:100000000C9468020C94AF020C94AF020C94DA09C1
:100010000C94AF020C94AF020C94AF020C94AF029C
:100020000C94AF020C94AF020C942F1D0C94011E83
:100030000C94EF150C94AF020C94AF020C94AF0229
:100040000C94AF020C94AF020C94AF020C94AF026C
:100050000C94AF020C943C160C94AF020C94AF02BB
:100060000C94AF020C94AF020C94AF020C94AF024C
:100070000C94AF020C94AF020C94AF020C94AF023C
:100080000C94AF020C94AF020C94AF020C94AF022C
:100090000C94AF020C94AF020C94AF020C94AF021C
:1000A0000C94AF020C94AF020C94AF028C0C8C0C2D
:1000B000BE0CBE0C1F0E0B0D1F0E1F0E160DAF0D2E
:1000C000C00DC00DB70EB70EC90EC90EC00EC90EB9
:1000D000C90EC90EB70EB70EC50EC90EC90EC50E94
:1000E0006E1E951E8D1F951E8D1FE11E041F8D1FF8
:1000F0005B1F6A1F000014001A000800150017009B
:10010000000004621600070009000A0000001D61DB
:100110001B68066419000500000000000000294368
:100120002C412B420000130012000C0018001C0090
:10013000000033620F000E000D000B00000038615C
:1001400037683674100011000000000000004C46B3
:100150002A442845000000000000000000000000C4
:100160000000E10000000000000000000000E000CE
:10017000E300E200000000000000000000000000BA
:100180000000000000004B004D0052004A007D00BE
:1001900000004E004F00510050007C0000007A002B
:1001A0007900000049007B000000000000004C00C6
:1001B0002A002800000000000000000000000000ED
:1001C0000000E10000000000000000000000E0006E
:1001D000E300E2000000000000000000000000005A
:1001E000000000000000F900FC00F000FB00FD0032
:1001F0000000FA00F300F100F200FE000000000031
:10020000000000000000FF00000000000000F600F9
:10021000F400F500000000000000000000000000F5
:100220000000E10000000000000000000000E0000D
:10023000E300E200000000000000000000000000F9
:1002400000000000000000000000A9000000000005
:1002500000000000AB00AA00AC000000000000009D
:100260000000000000000000000000000000A800E6
:10027000AE00AD0000002F001E001F002000300067
:10028000000033002100220023002E000000350072
:100290002400250026003100000000000000370087
:1002A00027002D00000000000000000000000000FA
:1002B0000000E10000000000000000000000E0007D
:1002C000E300E60000000000000000000000000065
:1002D0000000000000001E02310234023602370224
:1002E000000025022E022E622F02300200002002A2
:1002F000240238022F023002000000000000260213
:1003000027022D0000000000000000000000000097
:100310000000E10000000000000000000000E0001C
:10032000E300E60000000000000000000000000004
:100330000000000000003A003B003C003D00460089
:1003400000003E003F00400041000000000042006D
:10035000430044004500000000000000000065006C
:100360002C002B0000000000000000000000000036
:100370000000E10000000000000000000000E000BC
:10038000E300E600000000000000000000000000A4
:1003900000000000480343006F0072006E0065001B
:1003A00020004B006500790062006F006100720060
:1003B000640020005200650076002E00310020000D
:1003C0002800530070006C00690074002000430096
:1003D0006F006D006D006F006E00290000001003BB
:1003E00066006F006F007300740061006E00000013
:1003F0000403090409023B00020100A0FA090400F9
:100400000001030101000921110100012240000740
:1004100005810308000A0904010001030000000926
:100420002111010001224F000705820320000A125A
:100430000110010000000853460100010001020004
:100440000105010902A10185020901A1000509199F
:100450000129051500250195057501810295017594
:100460000381010501093009311581257F95027548
:1004700008810609381581257F95017508810605D3
:100480000C0A38021581257F950175088106C0C0C8
:1004900005010906A101050719E029E71500250155
:1004A00095087501810295017508810105071900FC
:1004B00029FF150026FF009506750881000508191B
:1004C000012905950575019102950175039101C0FA
:1004D00011241FBECFEFDAE0DEBFCDBF04B603FEAE
:1004E00027C08091F5019091F601A091F701B0919C
:1004F000F8018730904BA740B04BD1F41092F50132
:100500001092F6011092F7011092F80114BE84B710
:10051000877F84BF0FB6F894A895809160008861AA
:1005200080936000109260000FBEE0E0F8E3099550
:1005300011E0A0E0B1E0E6E6F0E402C005900D9223
:10054000AC32B107D9F721E0ACE2B1E001C01D92B5
:10055000A53FB207E1F70E946F1A0C9431200C946A
:1005600000000C94410581E0089581E008950C9409
:10057000B50208950C94B9021F93CF93DF9300D076
:1005800000D01F92CDB7DEB749835A836B83309179
:100590004B0189819A81311114C0662359F02223BD
:1005A00049F00E947813182F682F89819A810E9440
:1005B0001F1303C00E944B13182F69817A81812F6A
:1005C00004C00E94781369817A810F900F900F9078
:1005D0000F900F90DF91CF911F910C946A03FC0153
:1005E000262F408151816281738184810C94BC02E9
:1005F000CF93DF93EC0160E00E94EF02BE01DF9138
:10060000CF910C94BA020E949D14811102C00E94E5
:1006100044150C94B1020C943F0508950E94A50E58
:100620000E940D032FEF84E39CE021508040904016
:10063000E1F700C000000C9462160F931F93CF9354
:10064000DF93EC0161E00E94EF028C01BE010E9489
:10065000B702882349F1BE01C8010E94810788239F
:1006600019F1BE01C8010E94D3078823E9F0BE0139
:10067000C8010E94FE088823B9F08A81882369F0A6
:1006800001158CE5180731F00F3D1C4531F40E942F
:1006900044150AC00E940E0307C0CE01DF91CF911E
:1006A0001F910F910C94B30280E0DF91CF911F91C5
:1006B0000F91089508950C945A0381E008950C94C5
:1006C0005D03CF93C82F0E945B038C2F0E945F03B2
:1006D000CF91089520E3829FC0011124FC0126E000
:1006E000729FE00DF11D1124E60FF11DEE0FFF1FAB
:1006F000EC50FF4F859194910895CF93DF930E9422
:100700006A030E945A04EC018115924580F5C115D7
:1007100081E5D80708F095C0CF3FD10509F0B8F4BE
:10072000C03FD10508F06CC0C53AD10548F4C430CB
:10073000D10508F0BBC0C130D10509F4B7C0B4C0C1
:10074000CE01805E9109089708F4B0C0ADC0C11514
:1007500090E5D90708F059C0C11520E4D20708F088
:1007600051C0C11580E2D80708F4A0C09DC0C115D2
:1007700096E5D90718F5C11525E5D20708F07AC026
:10078000C11584E5D80708F070C09E012370332797
:100790008C2F86958695C115D34508F057C0C1E0CA
:1007A000D0E002C0CC0FDD1F2A95E2F720E2829F45
:1007B000C0011124C82BD92BDC6878C0C1152AE5EB
:1007C000D20778F4C11589E5D80708F05DC0C115D6
:1007D00098E5D90708F468C0DC2FCC27C06FD06A31
:1007E00065C0CE0190568115904208F05DC08D2FF6
:1007F0008F710E94EE04DD27D0628F71D82B56C016
:10080000D06554C0DF70D06A51C0CE0174E09695B7
:1008100087957A95E1F783709C2F937021E030E003
:1008200002C0220F331F9A95E2F73C68382BCF7035
:10083000C695C69580E2C89FE0011124C22BD32B38
:1008400035C0DC2FCC27C16FD06A30C0C1E0D0E00A
:1008500002C0CC0FDD1F2A95E2F720E2829FC00183
:100860001124C82BD92BDA6821C0DC2FCC27C46F08
:10087000D06A1CC08C2F0E94EE048F71C82FD0E06C
:10088000DC2FCC27D06212C08C2F8F700E94EE0418
:1008900094E0D695C7959A95E1F7CF70D0E0DC2F1C
:1008A000CC27D069C82B02C0C0E0D0E0CE01DF91D8
:1008B000CF9108958238910569F1B0F481339105A3
:1008C00009F46DC048F48932910509F463C08A3295
:1008D000910509F469C008958533910509F455C05F
:1008E00089339105B9F00895833E910569F138F493
:1008F000803E9105B1F0823E910509F10895863E52
:100900009105A9F1873E9105B9F1843E910509F061
:1009100064C023C02091E60120FD4FC021FD4DC0E1
:1009200008958091E60180FD44C08091E70180FF39
:1009300044C08091E60184FD42C083EE4DC08091A9
:10094000E60182FF38C0F5CF8091E60182FD33C019
:100950008091E70180FD31C0ECCF8091E70181FFFC
:1009600032C08091E60184FD2AC087EE35C08091B7
:10097000E60183FF26C0F5CF8091E60183FD21C00B
:100980008091E70181FD1FC0ECCF8091E60185FDDC
:100990001CC01DC08091E60185FD19C016C0809164
:1009A000E60186FD16C017C08091E60186FD13C0E2
:1009B00010C089E311C082EE0FC080EE0DC080E050
:1009C0000BC086EE09C084EE07C089E205C085E34E
:1009D00003C08AE201C081E390E008959091E601AE
:1009E00092FF0DC0282F2871283019F4877F84606A
:1009F00006C0282F2471243011F48B7F886093FF68
:100A00000DC0282F2871283119F4877E846106C013
:100A1000282F2471243111F48B7E88612091E70105
:100A200020FF0DC0382F3871383019F4877F81606E
:100A300006C0382F3171313011F48E7F886021FF6C
:100A40000DC0282F2871283119F4877E816106C0D6
:100A5000282F2171213111F48E7E886194FD877ECB
:100A60000895E82FF0E0E852FE4F80810895089540
:100A700080EA8A95F1F7089508950C943C050C944A
:100A80003D050C943C05F894E82FE295EF70F0E0FA
:100A900031A1282F2F7081E090E001C0880F2A95A6
:100AA000EAF7982F9095932391A392A1892B82A383
:100AB0007894089508950F931F93CF93DF930E9426
:100AC000A2068091000180910001811102C094E092
:100AD00001C090E09093E10184E0891B8093E001E4
:100AE00084E90E94430586E60E94430587E90E9447
:100AF000430586EC0E944305CEE1D1E004E211E01B
:100B000089910E9443050C171D07D1F7E0EDF1E034
:100B1000A8EDB1E011921D9281E0E83DF807D1F710
:100B200084E00E944C060E940303DF91CF911F9145
:100B30000F910C94AC060E9483068823F1F08091FB
:100B4000E00190E088529E4F0E94BF06811111C0C3
:100B500080912C018F5F80932C01863060F0E091B2
:100B6000E001F0E0E852FE4F1082118212821382FF
:100B700002C010922C010C940B038091E10190E0D3
:100B800088529E4F0E94DA060C945A058F929F92CB
:100B9000AF92BF92CF92DF92EF92FF920F931F938B
:100BA000CF93DF9384E2A82E81E0B82EC0EDD1E090
:100BB00098E2E92E91E0F92E912C01E010E0650118
:100BC000F5018081F894E82FE295EF70F0E021A123
:100BD0008F70A80102C0440F551F8A95E2F7CA0121
:100BE000922F982B91A392A18095892382A3789428
:100BF0000E943805EEE1F1E020E030E0812C4191E7
:100C0000A42FA295AF70B0E090968C9190E04F70B9
:100C100002C0959587954A95E2F780FD07C0802F21
:100C2000022E01C0880F0A94EAF701C080E0882AEA
:100C30002F5F3F4F2630310511F75FEFA51AB50A38
:100C4000F60180810E9443058881881619F0888208
:100C500081E001C080E0982A2196EA14FB0409F0A3
:100C6000AECF6091E10170E068527E4F292D44E0E3
:100C700080ED91E00E944D060E949B05892DDF9139
:100C8000CF911F910F91FF90EF90DF90CF90BF9089
:100C9000AF909F908F9008950895FF920F931F93A8
:100CA000CF93DF938C01F62ED72FC42F222349F048
:100CB00081E080932F010E94211690932E01809352
:100CC0002D0180912F018823C1F080912D019091F9
:100CD0002E010E942D16069780F0EF2DFD2FD801D2
:100CE0004C2F50E0CD01801B910B841795071CF40D
:100CF0008D918193F7CF10922F01DF91CF911F91AA
:100D00000F91FF90089580913001811112C0809160
:100D1000D80080618093D8008AE18A95F1F700C0FD
:100D20008091D90080FD02C082E001C081E0809303
:100D3000300181E090913001913009F080E0089518
:100D40000C9483060E94A006809300010E948306F3
:100D500081110C94B30608950E948306811102C08C
:100D60000C94B906089561E070E081E091E00C9484
:100D70008C0961E070E081E091E00C949309CF93DD
:100D8000DF93D82FC92F0E942B0A892B79F4ED2FDE
:100D9000FC2F80E090E0DC01AE5CBE4F2C912193F3
:100DA000019684309105B9F781E001C080E0DF91C0
:100DB000CF91089520E030E0FC014191CF01F9018D
:100DC000EE5CFE4F40832F5F3F4F24303105A1F78B
:100DD0000895AF92BF92CF92DF92EF92FF920F935E
:100DE0001F93CF93DF937C015B01C42FD22FFC01B3
:100DF00082818823F9F0409338010E942116909354
:100E000037018093360180E28C0F883008F06EC085
:100E1000C77081E001C0880FCA95EAF7DF91CF91D2
:100E20001F910F91FF90EF90DF90CF90BF90AF9008
:100E30000C94440C80913801481335C080913601E0
:100E4000909137010E942D166C01B701C5010E94D7
:100E50005E11C816D90638F510E21D0FCD17B9F08E
:100E600080E28C0F883040F4C77081E001C0880FA9
:100E7000CA95EAF70E944B0C183058F581E09D2F77
:100E8000977001C0880F9A95EAF70E94440C802F52
:100E90000E94310C183050F5D77081E001C0880FE6
:100EA000DA95EAF70AC080E28C0F8830F8F4C77050
:100EB00081E001C0880FCA95EAF7DF91CF911F91B9
:100EC0000F91FF90EF90DF90CF90BF90AF900C9478
:100ED0004B0C802FDF91CF911F910F91FF90EF90DE
:100EE000DF90CF90BF90AF900C94310CDF91CF91F9
:100EF0001F910F91FF90EF90DF90CF90BF90AF9038
:100F000008950F939C01CB01243F4CE5340731F148
:100F100088F4293DFCE53F07D9F02A3D4CE534072C
:100F200079F1283D3C45A9F506E221EE41EE68ED58
:100F30007CE52BC0263FFCE53F07E1F0A8F0273F0A
:100F40003C4539F507E225EE46EE67EF7CE51DC02E
:100F500007E225EE45EE69ED7CE517C006E221EEDD
:100F600040EE64EF7CE511C007E225EE44EE65EF4C
:100F70007CE50BC006E221EE42EE66EF7CE505C0A3
:100F800008E221E045EE6AED7CE50E94E90680E09A
:100F900008C0FC018281882319F01092380101C039
:100FA00081E00F910895CF93DF93EC01FB018281E3
:100FB000882309F41FC1C230FCE5DF0708F41BC118
:100FC000C6319CE5D90738F09E012B5F3C4529309E
:100FD000310508F010C10E94B0149093E70180938E
:100FE000E601C031ECE5DE0709F4C3C008F041C0FA
:100FF000C8308CE5D80709F49AC0F0F4C430ECE5A9
:10100000DE0709F487C068F4C2308CE5D80709F41C
:1010100077C0C330DC4509F0E3C08091E60182600F
:1010200076C0C630ECE5DE0709F46EC008F07BC080
:101030008091E60188606BC0CC308CE5D80709F45C
:1010400085C068F4CA30ECE5DE0709F474C008F026
:1010500079C00E94A50E8091E601806858C0CE300C
:101060008CE5D80709F476C008F07FC08091E601CE
:101070008BC0CC3FECE5DE0709F44FC018F5C33157
:101080008CE5D80709F47DC078F4C131ECE5DE07C2
:1010900009F473C0C231DC4509F0A2C00E94A50E5C
:1010A0008091E6018F7733C0C5318CE5D80709F40C
:1010B00072C008F486C0CB3FDC4509F091C0809136
:1010C000E7013EC0C115FDE5DF0709F45FC058F434
:1010D000CE3F9CE5D90709F444C008F43FC0809195
:1010E000E70182602DC0C230FDE5DF0709F475C05D
:1010F00008F45DC0C330DD4509F072C080E06EC009
:101100008091E601816003C08091E6018061809357
:10111000E60166C08091E60111C08091E70182601E
:101120008093E7015DC08091E6018062F0CF8091FD
:10113000E6018064ECCF8091E60188608460E7CFAF
:101140008160EECF8091E6018E7FE1CF8091E60154
:101150008D7FDDCF8091E601877FD9CF8091E70138
:1011600018C08091E7018D7FDBCF8091E6018F7EF3
:10117000CECF8091E6018F7DCACF8091E6018F7B33
:10118000C6CF8091E601877F8B7FC1CF8091E70139
:101190008D7F8E7FC5CF8091E60182FB222720F9CB
:1011A00091E0922790FB82F990FB83F9B0CF809178
:1011B000E701982F909591708E7F892B90FB81F994
:1011C000AFCF0E94A50E8091E60187FB222720F970
:1011D00091E0922790FB87F99ACF81E00E94461513
:1011E0008091E6019091E7010E94C1140E94A50E32
:1011F00080E001C081E0DF91CF910895CF93DF932C
:1012000086319C4541F5EB010E94F913982F8A81A4
:101210002091090130910A01882379F09A7A81E0BE
:1012200009F480E080933901911102C069E201C0A4
:1012300065E3C9010E948D150AC0809139018111B1
:1012400002C069E201C065E3C9010E948F150E94D6
:101250003A1480E001C081E0DF91CF9108958EE1E2
:101260004A9B02C08150E1F74A9BFECF08955A98ED
:1012700080E28A95F1F75A9A0895FC012AE02A95AE
:10128000F1F728E090E080E031E040E14A95F1F7A5
:10129000880F4A9B02C08160932700C0000040E194
:1012A0004A95F1F7215089F720E12A95F1F729B104
:1012B00000C0000030E13A95F1F722FB222720F927
:1012C00092272081920F90830895EF92FF920F93BF
:1012D0001F93CF93DF931F92CDB7DEB719828C0196
:1012E0007C01E60EF11C0E151F0551F00E942F091E
:1012F000CE0101960E943D09F80181938F01F3CF41
:1013000081E09981911180E00F90DF91CF911F9141
:101310000F91FF90EF90089590933B0180933A01D5
:10132000529A5A9A089590933B0180933A015298A9
:101330005A9AEA9AE9E6F0E080818F7C80830895EA
:10134000615091E001C0990F6A95EAF720E031E021
:10135000992361F0492F482319F05A9A232701C095
:101360005A9840E24A95F1F79695F2CF222311F070
:101370005A9A01C05A9880E28A95F1F75A980895CE
:10138000FF920F931F93CF93DF93EC018C01060F15
:10139000111DC017D10741F0F9900E94370968E08C
:1013A0008F2D0E94A009F5CFDF91CF911F910F9152
:1013B000FF9008951F920F920FB60F9211242F9352
:1013C0003F934F935F936F937F938F939F93AF93CD
:1013D000BF93CF93DF93EF93FF935A98529AC091A4
:1013E0003A01D0913B016D81662321F08E819F816E
:1013F0000E94C0090E94370980E18A95F1F75A9846
:1014000052985A9A80E18A95F1F76A81662351F0E1
:101410008B819C810E946509E881F981811104C05A
:1014200082E003C0E881F98188E080830E942F096F
:10143000FF91EF91DF91CF91BF91AF919F918F91EC
:101440007F916F915F914F913F912F910F900FBEC0
:101450000F901F901895CF93DF93C0913A01D091D0
:101460003B01F894529A5A9885E08A95F1F700006A
:1014700052985A9A80E28A95F1F74A9B0AC0529A8A
:101480005A9AE881F98181E08083789481E090E044
:101490002CC06D81662381F08E819F810E94650939
:1014A00081110AC0529A5A9AE881F98182E08083B8
:1014B000789482E090E019C00E942F0980E28A951A
:1014C000F1F75A98529A80E18A95F1F76A8166237A
:1014D00021F08B819C810E94C0090E943709E8811C
:1014E000F9811082789480E090E0DF91CF910895A7
:1014F00090934101809340010895E0914001F09163
:101500004101309721F00190F081E02D099480E0B5
:101510000895E0914001F0914101309721F002805F
:10152000F381E02D09940895E0914001F09141018B
:10153000309739F022E0DC012C930480F581E02D16
:101540000994089520913E0130913F0128173907F1
:1015500071F090933F0180933E01E0914001F09142
:101560004101309721F00680F781E02D099408951C
:1015700020913C0130913D012817390771F090937B
:101580003D0180933C01E0914001F0914101309791
:1015900021F00084F185E02D0994089585B78068D5
:1015A00085BF85B7806885BF08950C94830608952C
:1015B0000C94D70A0C94D70A0C94DA0A0C94D70A24
:1015C0000C94DE0A0C94D70A0E94CE0A0E94E20A0A
:1015D0000C94E00A0E9418160E945B050E94731684
:1015E0000C94DC0AAF92BF92CF92DF92EF92FF92FF
:1015F0000F931F93CF93DF93CDB7DEB72A970FB624
:10160000F894DEBF0FBECDBF0E94D80A0E94D70A51
:101610000E94C6050E94D50A811111C08FEF8983EF
:101620008A831B820E9421168160782F9D838C8380
:1016300049815A816B818D810E948E0B40C083E469
:10164000A82E81E0B82E00E010E0C02E802F0E946E
:101650003105E82EF501D1905F01D82631F40F5FF6
:101660001F4F0830110589F7D9CF8091B70181FD4F
:101670000E94370580E0FF24F3949D2D9F21D1F037
:101680008E83CF82EF2081E009F480E088870E947A
:1016900021168160782F9A8789874E815F816885BE
:1016A0008A850E948E0BF801ED5BFE4F8081F82643
:1016B000F08205C08F5FFF0C8630F9F6D0CF0E9414
:1016C00022180E947D0A909142018917B1F00E9470
:1016D0007D0A809342012A960FB6F894DEBF0FBEB2
:1016E000CDBFDF91CF911F910F91FF90EF90DF90D1
:1016F000CF90BF90AF900C9461032A960FB6F894E8
:10170000DEBF0FBECDBFDF91CF911F910F91FF9034
:10171000EF90DF90CF90BF90AF900895CF93DF937D
:10172000CDB7DEB72B970FB6F894DEBF0FBECDBF97
:101730004F83588769877A878B87DE01119686E009
:10174000FD0111928A95E9F785E0FE013796019037
:101750000D928A95E1F749815A816B817C818D8157
:101760009E810E9461112B960FB6F894DEBF0FBECA
:10177000CDBFDF91CF910895FC01808191810E94BE
:10178000BA130895CF938823B1F1C82F8CEF8C0F33
:10179000813AD0F46C2F8091090190910A010E9446
:1017A0005715882349F06C2F8091090190910A0107
:1017B0000E948F150E943A146C2F8091090190911C
:1017C0000A010E948D150CC080E28C0F883058F4FD
:1017D000C77081E001C0880FCA95EAF70E94FC1328
:1017E000CF910C943A14C03F30F08C2F0E94171701
:1017F000CF910C940418CF910895882389F19CEF20
:10180000980F913A40F4682F8091090190910A0154
:101810000E948F150DC090E2980F983058F4877091
:1018200091E001C0990F8A95EAF7892F0E9402146E
:101830000C943A149BE5980F933020F480E090E0EC
:101840000C94A20A98E5980F973120F480E090E07C
:101850000C94B80A803F20F00E947F170C94041863
:101860000895CF93C82F0E94C20BC93349F42FEFBC
:1018700087EE93E0215080409040E1F700C00000E7
:101880008C2FCF910C94FD0B882321F00E94FC1328
:101890000C943A140895882321F00E9402140C94A9
:1018A0003A140895CF92DF92EF92FF920F931F9315
:1018B000CF93DF937C01D62FC72FFC0105810295C2
:1018C0000F70128111110E9419140E94F2138823C3
:1018D00099F0112389F08C2F807F803421F080E2F1
:1018E0008D0F883048F082E00E9484140E94F21329
:1018F00091E0D82ED92601C0D12CCC2EC2948FE0F5
:10190000C8228C2D90E08C30910508F098C1FC0124
:10191000EA5AFF4F0C94D51F8C2F807FCF708823FD
:1019200011F0C295C07F112399F0CC2309F473C143
:1019300080E28D0F883010F0D11104C08C2F0E94EE
:10194000FC1303C08C2F0E940C140E943A1463C134
:101950008D2F0E94FD0BCC2309F471C180E28D0F05
:10196000883010F0D11104C08C2F0E94021403C0E3
:101970008C2F0E9412140E943A1461C18C2F807F18
:10198000CF70803211F0C295C07FDD2319F0D130C5
:10199000C9F022C0112371F0002341F0013031F46D
:1019A0000E941F148C2B0E94271449C10E941F14EF
:1019B0008C2B1DC0002319F0013009F440C10E9496
:1019C000301425C0112321F0063008F038C10EC0B4
:1019D000053008F034C11BC0112361F0002331F041
:1019E000F701858180FF17C18F7085838C2F0E943E
:1019F000440C25C1002359F0D93309F01DC1FFEF74
:101A000007EE13E0F15000401040E1F713C18C2FB6
:101A10000E944B0C14C18D2F112319F00E9417172F
:101A200002C00E947F170E94041811C18C2F83707E
:101A300009F047C0111107C12D2F22952695277057
:101A4000220F220F6D2F6F70862F90E0A0E0B0E084
:101A5000022E04C0880F991FAA1FBB1F0A94D2F739
:101A6000D4FF10C04FE050E060E070E004C0440FCD
:101A7000551F661F771F2A95D2F7409550956095A0
:101A8000709503C040E050E0BA01C695C695C3709A
:101A90008A019B01082B192B2A2B3B2BC901B8016A
:101AA000C23049F058F4C13019F00E943512CBC051
:101AB0000E942312C8C00E944712C5C00E94211272
:101AC000C2C0112319F08C2F817001C08695882324
:101AD00009F4B9C02D2F229526952770220F220FC9
:101AE0006D2F6F70862F90E0A0E0B0E0022E04C052
:101AF000880F991FAA1FBB1F0A94D2F7D4FF10C0EA
:101B00004FE050E060E070E004C0440F551F661FD6
:101B1000771F2A95D2F7409550956095709503C030
:101B200040E050E0BA01C695C695C3708A019B019A
:101B3000082B192B2A2B3B2BC901B801C23049F0C5
:101B400058F4C13019F00E94FA127DC00E94E812C8
:101B50007AC00E940C1377C00E945B1274C0CF70D1
:101B6000112339F08C2F0E9481128D2F0E94440C7A
:101B70006AC08D2F0E944B0C8C2F0E94A21263C052
:101B8000D23F01F128F4D03F41F0D13FA1F03FC056
:101B9000D33FF9F0D43F39F13AC0112341F0053079
:101BA00008F04DC08C2F8F710E94C71248C00630BC
:101BB00008F045C0F7CF112339F08C2F8F710E94A8
:101BC00081123DC01123C9F38C2F8F710E94A21284
:101BD00036C0112329F08C2F8F710E946C122FC0F8
:101BE0000E9467122CC0112349F0CF718C2F0E94E4
:101BF000811263E08C2F0E946F1421C081E00E944B
:101C000084140230E0F082E00E94841418C0112392
:101C100031F0002391F28D2F0E94C20B10C00023DF
:101C200099F2D93349F41FEF27EE33E011502040E9
:101C30003040E1F700C000008D2F0E94FD0B88EFBF
:101C40008C0D843020F40E947D0A0E946103DD2007
:101C5000C9F00E94EE1380FD15C0F70112820E94A8
:101C6000E8130E948112C7010E94630E0E94E813CC
:101C7000DF91CF911F910F91FF90EF90DF90CF9068
:101C80000C94A212DF91CF911F910F91FF90EF90D2
:101C9000DF90CF9008950F931F93CF93DF93EC01C4
:101CA000688179818A810E94C5138C010E941E136C
:101CB0000E940F12B801CE010E94520CDF91CF9109
:101CC0001F910F910895CF93DF93EC019881898143
:101CD0002B813C81232B31F08F3F31F481E09F3FFA
:101CE00019F403C081E001C080E080FD19C0CE017D
:101CF0000E941D0381110CC00E94F213882381F001
:101D00008A81882369F082E0DF91CF910C9484145A
:101D1000CE010E944B0ECE01DF91CF910C94F802C0
:101D2000DF91CF9108950E9419140E941C140E9403
:101D30003A140E9435190C9404188091090190916D
:101D40000A010E9491150C94930E0E9409140C94A0
:101D50009D0EE92FE295EF704E2F50E0FA01329779
:101D6000EE30F105B0F4EE59FF4F0C94D51F803FD3
:101D700091F018F4883E68F40EC0843F51F40BC013
:101D8000883E48F0813F29F406C093FB882780F9FC
:101D9000089580E0089581E008950E94BA130E949A
:101DA000A90E0895CF93DF9300D000D01F92CDB736
:101DB000DEB70F900F900F900F900F90DF91CF91A3
:101DC0000895CF93DF9300D000D000D0CDB7DEB719
:101DD00026960FB6F894DEBF0FBECDBFDF91CF9130
:101DE00008951F93CF93DF93C0914C0116E080912B
:101DF0004D01C81799F0D0E01C9FF0011D9FF00D18
:101E00001124E25BFE4F40815181628173818481A4
:101E100095810E94E10E2196C770E9CFDF91CF91A5
:101E20001F91089540917E0150917F016091800142
:101E30007091810180918201909183010C94E10E57
:101E40000F931F93CF93DF938091830182958F70BF
:101E500009F05DC080918001882309F458C0809109
:101E60004C0110914D0160917E0170917F01C091F4
:101E70008101D091820191E06F3F09F090E0292F1C
:101E800006E0811709F443C0209721F07F3F21F03D
:101E900030E003C031E001C0322F90E030FD34C0AB
:101EA000089FF001099FF00D1124DF01A25BBE4FD6
:101EB00011963C911197371327C03C91361324C0DB
:101EC00012963C91129731111FC013964D915C915F
:101ED00014974C1B5D0B483C5105B0F48091830175
:101EE0008F70806180938301ED5AFE4F80818F70E7
:101EF000806180838EE791E00E94630EDF91CF9135
:101F00001F910F910C94F10E01968770BACFDF915B
:101F1000CF911F910F9108959F92AF92BF92CF9250
:101F2000DF92EF92FF920F931F93CF93DF93CDB782
:101F3000DEB761970FB6F894DEBF0FBECDBF8C0140
:101F400085E0F801DE011D9601900D928A95E1F77A
:101F5000F80140815181E28090917E0160917F0182
:101F600020918101309182012115310531F06F3FBF
:101F700031F481E09F3F19F403C081E001C080E0AB
:101F8000F82FF1709F2E80FD46C1F801A380B48028
:101F90008EE7C82E81E0D82EF0908001F501E21B7B
:101FA000F30BFF2009F4DFC080918301E83CF105C9
:101FB00008F09BC0282F207F09F052C0561313C091
:101FC000491311C0FE2CE1100EC08F708061809308
:101FD00083010E94120FC6010E94630E809183014B
:101FE000F801858358C1AB2831F05F3F31F481E0BF
:101FF0004F3F19F403C081E001C080E080FD03C0C1
:1020000081E08E2502C080E090E0F82FF170FF2E75
:1020100080FF1CC080914C0120914D0136E0821759
:1020200009F417C190E0389FF001399FF00D112499
:10203000E25BFE4F6181561306C06081461303C008
:102040006281E61203C001968770E9CFFE2CEE2074
:1020500009F421C1809183018160809383015AC07A
:10206000561306C0491304C0E11002C0F8019FC016
:102070004D875E878D859E850E94CD0E882379F1E0
:10208000EE2069F120918301822F82958F7090E07C
:10209000029774F080917E0190917F0198878F83E1
:1020A0001986BB86AA862C87CE0107960E94630EEE
:1020B00086E0F801AEE7B1E001900D928A95E1F774
:1020C0000E94200F0E94120F0DC0561729F14D8754
:1020D0005E878D859E850E94CD0E81112CC0C80122
:1020E0000E94630EFF24F394D6C0282F207F69F747
:1020F0007A2DB98AA88A6E2D89890E94D20E8EE720
:1021000091E00E94630E86E0F60111928A95E9F74C
:102110000E94120FF12CBFC04913D9CFE110D7CFC5
:10212000F8018583C8010E94630E86E0F6011192D2
:102130008A95E9F7B0C0EE2091F220918301822FB9
:1021400082958F7090E002970CF4B2CF80917E015F
:1021500090917F019A8389831B82BD82AC822E83FA
:10216000CE010196A3CFE83CF10508F047C0FE2C54
:10217000EE2009F4B4CF561330C049132EC020917D
:10218000830120FD21C0822F82958F70482F50E05F
:1021900041155105C9F0F80125834F30510541F033
:1021A0008F5F982F9295907F822F8F70892B8583D8
:1021B000C8010E94630E86E0F801AEE7B1E001902D
:1021C0000D928A95E1F742C086E0F801AEE7B1E0F2
:1021D00001900D928A95E1F75EC04D875E878D85EF
:1021E0009E850E94CD0E811163CF80918301816015
:1021F00080938301C8010E94630E4DC07A2DB98A75
:10220000A88A6E2D89890E94D20E86E0F60111926D
:102210008A95E9F71BC0EE2009F461CF4D875E87F0
:102220008D859E850E94CD0EF82E882309F457CF08
:1022300086E0F801AEE7B1E001900D928A95E1F7F2
:102240008EE791E00E94BC0B0E94200F0E94120FAB
:1022500022C04D875E878D859E850E94BA13292FE7
:1022600022952F70223028F49F7039F0811105C01B
:102270000BC0243028F49F7049F4805E883020F031
:10228000C8010E94630E9F2CF92C05C0F8019581AE
:10229000907F99F7F9CF8F2D61960FB6F894DEBF36
:1022A0000FBECDBFDF91CF911F910F91FF90EF90A7
:1022B000DF90CF90BF90AF909F90089588EC90E012
:1022C00008951F93CF93DF93CDB7DEB72C970FB64A
:1022D000F894DEBF0FBECDBF4F83588769877A87DA
:1022E0008B879C87CE0107960E948C0F8823D1F0A4
:1022F0009F8188852A853B85232B31F08F3F31F4E0
:1023000081E09F3F19F403C081E001C080E080FDBF
:1023100047C04F81588569857A858B859C850E9449
:10232000E10E3EC086E0FE013796DE011196019077
:102330000D928A95E1F7FF81E8856A857B856115B5
:10234000710531F0EF3F31F481E0FF3F19F403C034
:1023500081E001C080E080FD23C020914D0130E08C
:10236000C90101968770992740914C0150E084176C
:102370009507F1F1F983EA837D836C8396E0929F60
:10238000D001939FB00D1124A25BBE4FFE01319688
:1023900001900D929A95E1F780934D010E94F10E04
:1023A00016E080914C0190914D01891771F1189FB1
:1023B000C0011124825B9E4F0E948C0F882329F15B
:1023C000E0914C011E9FF0011124E25BFE4F408121
:1023D000518162817381848195810E94E10E809197
:1023E0004C0190E001968770992780934C01D9CFDA
:1023F0000E94A50E10924D0110924C01EEE7F1E003
:1024000086E0DF011D928A95E9F72C960FB6F894C5
:10241000DEBF0FBECDBFDF91CF911F91089508950C
:1024200008950C9410120C9411120E9413126093D0
:10243000A6017093A7018093A8019093A9010C9421
:10244000930E0C9415120F931F930091A6011091F7
:10245000A7012091A8013091A901602B712B822B3B
:10246000932B1F910F910C9415120F931F930091B2
:10247000A6011091A7012091A8013091A901602324
:102480007123822393231F910F910C9415120F93A4
:102490001F930091A6011091A7012091A8013091EE
:1024A000A90160277127822793271F910F910C9410
:1024B00015120C9410120E9459126093A20170938D
:1024C000A3018093A4019093A5010C94930E60E066
:1024D00070E0CB010C945B120F931F9341E050E02E
:1024E00060E070E08A019B0104C0000F111F221FF1
:1024F000331F8A95D2F7C901B8011F910F910C942F
:102500005B120F931F9341E050E060E070E004C065
:10251000440F551F661F771F8A95D2F78091A2013D
:102520009091A301A091A401B091A5018A019B0102
:10253000082B192B2A2B3B2BC901B8011F910F9196
:102540000C945B120F931F9341E050E060E070E049
:1025500004C0440F551F661F771F8A95D2F7409518
:102560005095609570958091A2019091A301A091E2
:10257000A401B091A5018A019B01082319232A23F4
:102580003B23C901B8011F910F910C945B120F936B
:102590001F9341E050E060E070E004C0440F551F1D
:1025A000661F771F8A95D2F78091A2019091A301AF
:1025B000A091A401B091A5018A019B0108271927C8
:1025C0002A273B27C901B8011F910F910C945B1278
:1025D0000F931F930091A2011091A3012091A401D8
:1025E0003091A501602B712B822B932B1F910F91A2
:1025F0000C945B120F931F930091A2011091A30101
:102600002091A4013091A50160237123822393239B
:102610001F910F910C945B120F931F930091A201D5
:102620001091A3012091A4013091A5016027712789
:10263000822793271F910F910C945B120895292FE5
:10264000220F920F990F890FE82FE695E695E695F0
:10265000877051E001C0550F8A95EAF785E0E89F41
:10266000F0011124EC57FE4F20E030E070E0408193
:10267000CB01022E02C0969587950A94E2F78170ED
:10268000819584278523842781932F5F3F4F2530B1
:10269000310569F70895292F220F920F990F890F9D
:1026A000682F669566956695982F977085E0689F68
:1026B000B001112440E050E080E0FB01E40FF51F81
:1026C000EC57FE4F208130E0092E02C03695279549
:1026D0000A94E2F721703327042E01C0220F0A94D6
:1026E000EAF7822B4F5F5F4F4530510531F7089570
:1026F000BF92CF92DF92EF92FF920F931F93CF93EF
:10270000DF938C01C090A201D090A301E090A401BE
:10271000F090A5018091A6019091A701A091A80138
:10272000B091A901C82AD92AEA2AFB2ACFE1D0E030
:10273000D701C6010C2E04C0B695A795979587952D
:102740000A94D2F780FD04C0219790F7B12C07C0FE
:10275000BC2EB8018C2F0E947D030197A9F38B2D0D
:10276000DF91CF911F910F91FF90EF90DF90CF906D
:10277000BF900895CF93DF93EC010E947813BE01C0
:102780000E947D03DF91CF9108951F93CF93DF9334
:10279000EB0190914B01992321F0CB010E94BA13D8
:1027A00013C0882349F0CB010E947813182F682F9B
:1027B000CE010E941F1304C0CB010E944B13182F9F
:1027C000BE01812F0E947D03DF91CF911F9108955B
:1027D0008091AA0185958595859508958091AA0196
:1027E000877008959091AA01977081E009F480E0C4
:1027F00008958091B60108959091B601892B809338
:10280000B601089580959091B60189238093B60111
:1028100008951092B60108959091B501892B809387
:10282000B501089580959091B50189238093B501F4
:1028300008951092B50108951092B4010895809101
:10284000AB01089508950C9422140C9423149091D4
:10285000AB01981721F08093AB010C9425140895D7
:102860008091AB01882329F01092AB0180E00C9499
:1028700025140895E0910901F0910A018091B601B3
:102880008083E0910901F0910A0190818091B50166
:10289000892B8083E0910901F0910A019081809158
:1028A000B401892B80838091AB01882381F0E09172
:1028B0000901F0910A019081892B8083809109019F
:1028C00090910A010E944B1581110E943014809151
:1028D000090190910A010C94890A0C94221498E041
:1028E000899F90011124262B2093AA010E94811216
:1028F0008091AA018595859585950C946D1410920B
:10290000AA0180E00C946D142091AA018095822385
:102910008093AA01982F977079F430E0482F082E01
:10292000000C550B2417350739F08595859585954D
:102930000E94A2120C947F14089580E090E00E94FF
:10294000F71F21E08C3E9E4F09F020E0822F089572
:1029500082E090E00C94EF1F83E090E00C94EF1F76
:10296000CF9384E090E00E94EF1FC82F81E290E0B7
:102970000E94EF1F2C2F30E0A901582BCA01CF91E4
:102980000895CF93C92F682F84E090E00E94FD1F27
:102990006C2F81E290E0CF910C94FD1FAB01BC0144
:1029A0008FE090E00C940F20AB01BC0183E190E03C
:1029B0000C940F2060E070E0CB010C94D41460E024
:1029C00070E0CB010E94CE140C94DA146CEE7EEF12
:1029D00080E090E00E941B2060E082E090E00E9496
:1029E000FD1F60E083E090E00E94FD1F1092A601B1
:1029F0001092A7011092A8011092A90160E084E052
:102A000090E00E94FD1F60E081E290E00E94FD1FC7
:102A100060E085E090E00E94FD1F60E086E090E0CD
:102A20000E94FD1F6FEF87E090E00E94FD1F40E0D5
:102A300050E0BA0188E090E00E940F2060E08DE055
:102A400090E00E94FD1F40E050E0BA0188E190E074
:102A50000E940F2060E087E190E00E94FD1F40E0AF
:102A600050E0BA018CE190E00E940F2060E080E22B
:102A700090E00E94FD1F40E050E0BA0188E190E044
:102A80000E940F200C94DF140C94E614682F8EE043
:102A900090E00C94FD1FFC01329697E080E091508D
:102AA00029F021912223D9F38F5FF9CF089566236E
:102AB00049F0FC01329608962191621729F0E81737
:102AC000F907D1F780E0089581E008959C01FC01A9
:102AD00032969FEF80E04191461789F09F3F19F4AD
:102AE000411101C0982F8F5F8630A9F79F3F39F0C1
:102AF000F901E90FF11D97FDFA9562830895089594
:102B00009C012A5F3F4FFC014281461301C01282A3
:102B1000019682179307B9F708950C9466150C94E3
:102B20008015029626E0FC0111922A95E9F7089596
:102B300008950C9498150C949815CF930E949B15AA
:102B40000E94C6050E949915C0E08C2F0E94310595
:102B5000811104C0CF5FC830C1F701C081E0CF91BF
:102B600008950C9498150C94B1150E94B31580919A
:102B7000EC01843049F11092B80120E488E190E042
:102B80000FB6F894A895809360000FBE2093600064
:102B900080E00E9461030E94B31583B7817F846047
:102BA00083BF83B7816083BF7894889583B78E7F16
:102BB00083BF0FB6F894A8958091600088618093D8
:102BC0006000109260000FBE08950C9498150E944A
:102BD000A50E0E947D0A0E9461030C94E5151F92C8
:102BE0000F920FB60F9211248F939F93AF93BF93C1
:102BF0008091B801811113C08091E2019091E301AD
:102C0000A091E401B091E5014196A11DB11D809311
:102C1000E2019093E301A093E401B093E501BF9139
:102C2000AF919F918F910F900FBE0F901F901895AD
:102C300082E084BD93E095BD9AEF97BD80936E00CE
:102C400008952FB7F8948091E2019091E301A0914B
:102C5000E401B091E5012FBF08959C014FB7F894AE
:102C60008091E2019091E301A091E401B091E5012E
:102C70004FBF821B930B089578941F920F920FB64B
:102C80000F9211248F939F93AF93BF938091E20192
:102C90009091E301A091E401B091E5010196A11D9D
:102CA000B11D8093E2019093E301A093E401B093FE
:102CB000E501BF91AF919F918F910F900FBE0F9043
:102CC0001F90189587E797E7909301088093000875
:102CD0009AE088E10FB6F894A895809360000FBE43
:102CE00090936000FFCF0E949D14811102C00E944A
:102CF00044150E94A8148093B7010E94B0149093C9
:102D0000E7018093E6010E94AC14682F70E080E038
:102D100090E00E9421126091A2017091A301809124
:102D2000A4019091A5010C9459128091BF0180FFDC
:102D30000BC06091100185E0689FB001112475956A
:102D40006795759567952BC081FF09C0609110014B
:102D500085E0689FB00111247595679520C082FFBA
:102D600007C06091100185E0689FB001112417C071
:102D70009091BE019923D1F060910F01961788F7C9
:102D80002091100185E0289F90011124929FA001BD
:102D9000939F500D112470E0CA010E94C11F60383A
:102DA000710540F46115710519F406C065E070E025
:102DB000862F08958FE7089581E008958091BF01DF
:102DC00080FF08C060910C0170E07595679575955E
:102DD000679521C081FF06C060910C0170E0759578
:102DE000679519C082FF04C060910C0170E010C0AB
:102DF0009091BD01992399F060910B019617A0F76E
:102E000080910C01899FC001112470E00E94C11FB4
:102E10006038710540F46115710519F406C061E070
:102E200070E0862F08958FE7089581E00895803F30
:102E300021F40E949516819504C0813F29F40E94D7
:102E400095168093C3010895823F21F40E94951640
:102E5000819504C0833F29F40E9495168093C20196
:102E60000895893F19F40E94DE1605C08A3F31F4A7
:102E70000E94DE1681958093C40108958B3F21F452
:102E80000E94DE16819504C08C3F29F40E94DE1654
:102E90008093C5010895843F21F48091C101816030
:102EA00017C0853F21F48091C101826011C0863F27
:102EB00021F48091C10184600BC0873F21F480918F
:102EC000C101886005C0883F31F48091C1018061F3
:102ED0008093C10108958D3F21F48091BF018160ED
:102EE0000BC08E3F21F48091BF01826005C08F3FEF
:102EF00029F48091BF0184608093BF010895803FD1
:102F000039F48091C30187FF6AC01092C30167C082
:102F1000813F29F48091C3011816BCF360C09091E1
:102F2000C201823F29F497FF5AC01092C20157C0D4
:102F3000833F19F41916CCF352C09091C401893F14
:102F400031F419160CF04BC01092C40148C08A3FEE
:102F500019F497FF44C0F8CF8B3F39F48091C50135
:102F600087FF3DC01092C5013AC08C3F29F4809183
:102F7000C5011816BCF333C0843F21F48091C10110
:102F80008E7F17C0853F21F48091C1018D7F11C0D4
:102F9000863F21F48091C1018B7F0BC0873F21F4D4
:102FA0008091C101877F05C0883F31F48091C101C4
:102FB0008F7E8093C10113C08D3F21F48091BF01AA
:102FC0008E7F0BC08E3F21F48091BF018D7F05C0A5
:102FD0008F3F29F48091BF018B7F8093BF01809147
:102FE000C201811106C08091C301811102C01092FB
:102FF000BE018091C401811106C08091C50181117B
:1030000002C01092BD0108950E9421162091C201B4
:10301000211104C02091C301222321F09093BC010F
:103020008093BB012091C401211104C02091C501EE
:10303000222321F09093BA018093B90180EC91E0B2
:103040000C94940AEF92FF920F931F93CF93DF9308
:1030500000D000D000D0CDB7DEB786E0E0ECF1E0E4
:10306000DE01119601900D928A95E1F7E090C20180
:10307000F090C3010091C4011091C5011092C201EA
:103080001092C3011092C4011092C501E11003C057
:10309000FF2009F45DC08091BB019091BC010E94AA
:1030A0002D16AC019091BE01992339F020911101A8
:1030B00030E02417350758F04BC0209112018AE008
:1030C000289F900111242417350718F041C09F3F15
:1030D00019F09F5F9093BE01EE2061F00E9495165B
:1030E0001E1414F09FEF01C091E0989F902D1124C1
:1030F0009093C201FF2061F00E9495161F1414F0F6
:103100009FEF01C091E0989F902D11249093C301EF
:103110003091C2013323E1F02091C3012223C1F099
:1031200045EB3403C0011124992319F09093C20197
:1031300003C081E08093C20135EB2303C001112459
:10314000992319F09093C30103C081E08093C301D8
:10315000011103C0112309F45DC08091B901909160
:10316000BA010E942D16AC019091BD01992339F04E
:1031700020910D0130E02417350758F04BC0209105
:103180000E018AE0289F900111242417350718F0BA
:1031900041C09F3F19F09F5F9093BD01002361F0F4
:1031A0000E94DE16101614F09FEF01C091E0989F68
:1031B000902D11249093C401112361F00E94DE161A
:1031C000111614F09FEF01C091E0989F902D1124EB
:1031D0009093C5013091C4013323E1F02091C501E2
:1031E0002223C1F045EB3403C0011124992319F0C7
:1031F0009093C40103C081E08093C40135EB2303A5
:10320000C0011124992319F09093C50103C081E0F6
:103210008093C5018091C20181110BC08091C301CF
:10322000811107C08091C401811103C08091C50143
:1032300081110E940418EB82FC820D831E8386E0BC
:10324000FE013196A0ECB1E001900D928A95E1F774
:1032500026960FB6F894DEBF0FBECDBFDF91CF919B
:103260001F910F91FF90EF900895E0ECF1E086E060
:10327000DF011D928A95E9F71092BE011092BD01FF
:103280001092BF0108958091CE010895089522E023
:103290002093E9002FEF3091E800215035FD06C062
:1032A00035ED3A95F1F700002111F5CF2091E800B6
:1032B00025FF0BC040E050E066E070E00E94231B59
:1032C0008091E8008E778093E8000895CF93DF9394
:1032D00021E02093E9002FEF3091E800215035FDE7
:1032E00006C035ED3A95F1F700002111F5CF209198
:1032F000E80025FF14C0EC0140E050E068E070E019
:103300000E94231B8091E8008E778093E80088E07C
:10331000FE01A6ECB1E001900D928A95E1F7DF91F4
:10332000CF91089508958091EB01811109C00E9409
:10333000B41C0E94111D8091E20084608093E20021
:1033400008951092EB010895089508950C94E715DF
:1033500042E061EC81E00E942D1C42E261EC82E0DF
:103360000C942D1C8091EE01833009F460C030F480
:10337000813071F0823009F499C008958A3009F4DF
:1033800085C08B3009F46BC0893009F0A7C020C01C
:103390008091ED01813A09F0A1C08091E800877F1A
:1033A0008093E8008091F1019091F201892B21F442
:1033B00068E086EC91E003C060E080E090E070E0BF
:1033C0000E946E1B8091E8008B778093E80008953F
:1033D0008091ED01813209F081C08091F1019091DD
:1033E000F201029708F07AC08091E800877F80930D
:1033F000E8008091E80082FD05C08091EC01811118
:10340000F8CF6CC02091F3008091F20090E0922BF5
:10341000029729F48091F1008B7F813021F4809113
:10342000F1008093CE018091E8008B7753C08091AA
:10343000ED01813A09F052C08091F1019091F201C1
:10344000892B09F04BC08091E800877F8093E800CA
:103450008091E80080FFFCCF80911D0136C08091F3
:10346000ED018132D9F58091F1019091F201892B22
:10347000A9F58091E800877F8093E8000E94621C94
:103480008091EF0180931D010C94A50E8091ED01B8
:10349000813221F58091E800877F8093E8000E94C7
:1034A000621C8091F0018093CF0108958091ED011D
:1034B000813AA1F48091E800877F8093E8008091B1
:1034C000E80080FFFCCF8091CF018093F1008091D4
:1034D000E8008E778093E8000C94621C089584B70E
:1034E000877F84BF0FB6F894A895809160008861AB
:1034F00080936000109260000FBE90E080E80FB6ED
:10350000F89480936100909361000FBE0E94E40ADA
:103510000E94B41C0E94111D8091E200846080937F
:10352000E20078940E94A61F0E94EA0A83E191E0DB
:103530000E94780A8091EC01853069F40E94B515EB
:103540008091EA018823B1F30E949D15882391F3AD
:103550000E940D1BEFCF0E94F20A0E94D80A0E941F
:10356000D70AE8CF0C94B41A292F3327233031051A
:10357000C9F060F42130310581F02230310509F0C5
:1035800044C08BE390E024EF33E043C021323105A7
:10359000E1F02232310549F138C082E190E02FE2BA
:1035A00034E037C099278130910549F028F002971F
:1035B00061F5E4E9F3E005C0E0EFF3E002C0EEED11
:1035C000F3E0849190E09F0124C06115710541F002
:1035D00061307105D1F489E090E02FE134E019C049
:1035E00089E090E026E034E014C06115710541F0F7
:1035F0006130710551F48FE490E021E434E009C0BA
:1036000080E490E020E934E004C080E090E020E035
:1036100030E0FA0131832083089580E189BD82E1A1
:1036200089BD09B400FEFDCF8091D8008F7D8093C5
:10363000D8008091E00082608093E0008091E000FB
:1036400081FDFCCF0895CF92DF92EF92FF920F930E
:103650001F93CF93DF93EC018B017A010E94811CB1
:10366000811133C0E114F10439F0F70180819181B7
:10367000081B190BC80FD91FC12CD12C011511051E
:1036800019F18091E80085FD16C08091E8008E77E1
:103690008093E800E114F10449F0F7018081918101
:1036A000C80ED91ED182C08285E00FC00E94811C45
:1036B000882321F30AC089918093F10001501109F8
:1036C000FFEFCF1ADF0ADACF80E0DF91CF911F91B1
:1036D0000F91FF90EF90DF90CF9008952091F3012C
:1036E0003091F4012617370748F06115710539F458
:1036F0002091E8002E772093E80001C0B901FC0179
:1037000020E06115710579F18091EC018823F1F1D8
:103710008530F1F18091E80083FD3CC08091E800A4
:1037200082FD2EC08091E80080FFEBCF2091F30056
:103730008091F20090E0922B6115710551F0883074
:10374000910538F421912093F1006150710901969F
:10375000F3CF21E0089709F020E08091E8008E7710
:103760008093E800CECF2111CFCF0AC08091EC0129
:10377000882361F0853061F08091E80083FD0AC004
:103780008091E80082FFF2CF80E0089582E0089502
:1037900083E0089581E008952091F3013091F401D0
:1037A0002617370748F06115710539F42091E800B4
:1037B0002E772093E80001C0B901FC0120E06115DB
:1037C000710591F18091EC01882309F440C08530A6
:1037D00009F43FC08091E80083FD3DC08091E8007E
:1037E00082FD2FC08091E80080FFE9CF2091F30097
:1037F0008091F20090E0922B6115710559F08830AC
:10380000910540F424912093F100319661507109A3
:103810000196F2CF21E0089709F020E08091E800BE
:103820008E778093E800CBCF2111CCCF0AC0809156
:10383000EC01882361F0853061F08091E80083FD20
:103840000AC08091E80082FFF2CF80E0089582E014
:10385000089583E0089581E00895982F973068F5E2
:103860009093E900981739F07091EC002091ED00E9
:103870005091F00003C0242F762F50E021FD02C0AC
:103880009F5FECCF3091EB003E7F3093EB003091A7
:10389000ED003D7F3093ED003091EB0031603093CF
:1038A000EB007093EC002093ED005093F00020911A
:1038B000EE0027FDE5CF80E008958F708093E9004A
:1038C00081E008958091ED0187FF11C08091E800AB
:1038D00082FD05C08091EC018111F8CF11C080916B
:1038E000E8008B770BC08091EC01882349F0809130
:1038F000E80080FFF8CF8091E8008E778093E800A1
:1039000008952091E4003091E50095E64091EC00A7
:10391000842F817040FF23C08091E80080FD1DC08E
:103920008091EC01882399F0853099F08091EB002B
:1039300085FD11C04091E4005091E5002417350742
:1039400029F3915011F09A01E1CF84E0089582E0CB
:10395000089583E0089581E0089580E008954091FE
:10396000E80042FFDDCF08950E94221D0E942A1D1B
:10397000E0EEF0E0808181608083E8EDF0E080811E
:103980008F77808319BCA7EDB0E08C918E7F8C93EC
:1039900080818F7E80831092EB0108950F931F9397
:1039A000CF93DF930E94221D0E942A1DC8EDD0E014
:1039B00088818F77888388818068888388818F7DDC
:1039C000888319BC1092EC011092E8011092EA0170
:1039D0001092E90100EE10E0F80180818B7F808376
:1039E00088818160888342E060E080E00E942D1C35
:1039F000E1EEF0E080818E7F8083E2EEF0E0808176
:103A000081608083808188608083F80180818E7FDF
:103A10008083888180618883DF91CF911F910F918E
:103A20000895E8EDF0E080818F7E8083E7EDF0E09F
:103A300080818160808384E082BF81E08093EB019C
:103A40000C94CE1CE8EDF0E080818E7F8083109294
:103A5000E20008951092DA001092E10008951F929A
:103A60000F920FB60F9211242F933F934F935F93B2
:103A70006F937F938F939F93AF93BF93EF93FF9336
:103A80008091E10082FF0BC08091E20082FF07C0BD
:103A90008091E1008B7F8093E1000E94A51F8091BF
:103AA000DA0080FF1FC08091D80080FF1BC080918A
:103AB000DA008E7F8093DA008091D90080FF0DC0FC
:103AC00080E189BD82E189BD09B400FEFDCF81E0BE
:103AD0008093EC010E94931905C019BC1092EC016F
:103AE0000E94A1198091E10080FF19C08091E2003D
:103AF00080FF15C08091E2008E7F8093E20080916C
:103B0000E20080618093E2008091D800806280931F
:103B1000D80019BC85E08093EC010E94A519809122
:103B2000E10084FF30C08091E20084FF2CC080E17E
:103B300089BD82E189BD09B400FEFDCF8091D80026
:103B40008F7D8093D8008091E1008F7E8093E1008B
:103B50008091E2008F7E8093E2008091E20081609C
:103B60008093E2008091E801882311F084E007C08F
:103B70008091E30087FD02C081E001C083E0809373
:103B8000EC010E94A6198091E10083FF29C0809179
:103B9000E20083FF25C08091E100877F8093E100F0
:103BA00082E08093EC011092E8018091E1008E7F29
:103BB0008093E1008091E2008E7F8093E20080910B
:103BC000E20080618093E20042E060E080E00E94D9
:103BD0002D1C8091F00088608093F0000E94A41951
:103BE000FF91EF91BF91AF919F918F917F916F91D5
:103BF0005F914F913F912F910F900FBE0F901F90AB
:103C000018951F920F920FB60F9211242F933F9386
:103C10004F935F936F937F938F939F93AF93BF93D4
:103C2000CF93DF93EF93FF93C091E900CF70809122
:103C3000EC00D82FD17080FDD0E81092E90080917F
:103C4000F000877F8093F00078940E94451E1092C8
:103C5000E9008091F00088608093F000CD2BCF7058
:103C6000C093E900FF91EF91DF91CF91BF91AF91A8
:103C70009F918F917F916F915F914F913F912F9184
:103C80000F900FBE0F901F9018951F93CF93DF9347
:103C9000CDB7DEB7AA970FB6F894DEBF0FBECDBF83
:103CA000EDEEF1E08091F100819321E0E53FF20734
:103CB000C9F70E94B2198091E80083FF2EC180915C
:103CC000ED019091EE01492F50E04A30510508F086
:103CD00024C1FA01E059FF4F0C94D51F803821F020
:103CE000823809F01AC108C08091E9019091EA0177
:103CF000992389F082600FC08091F1018F70873025
:103D000008F00BC18093E9008091EB0085FB8827C8
:103D100080F91092E9009091E800977F9093E80075
:103D20008093F1001092F100D1C0282F2D7F09F06F
:103D3000F4C0882319F0823061F0EFC08091EF0168
:103D4000813009F0EAC0933009F080E08093EA0105
:103D50002EC08091EF0181112AC08091F1018F70F6
:103D60002FEF280F263008F0D8C08093E90020916B
:103D7000EB0020FF1CC0933021F48091EB008062A7
:103D800014C09091EB0090619093EB0021E030E043
:103D9000A90102C0440F551F8A95E2F74093EA003B
:103DA0001092EA008091EB0088608093EB00109203
:103DB000E9008091E800877F8093E8000E94621C00
:103DC000ACC08111AAC01091EF011F778091E30070
:103DD0008078812B8093E3008091E800877F809337
:103DE000E8000E94621C8091E80080FFFCCF809177
:103DF000E30080688093E300111102C082E001C0FB
:103E000083E08093EC0189C08058823008F085C03F
:103E10008091EF019091F0018C3D53E0950779F589
:103E200083E08A838AE289834FB7F894DE01139690
:103E300020E03EE051E2E32FF0E050935700E491A0
:103E400020FF03C0E295EF703F5FEF708E2F90E090
:103E5000EA3010F0C79601C0C0968D939D932F5FF6
:103E6000243149F74FBF8091E800877F8093E800B5
:103E70006AE270E0CE0101960E946E1B16C060914E
:103E8000F1017091F201AE014F5F5F4F0E94B21AD3
:103E9000BC01892B09F441C09091E800977F909371
:103EA000E80089819A810E94CC1B8091E8008B7781
:103EB0008093E80032C0803881F58091E800877FE8
:103EC0008093E8008091E8018093F1008091E80000
:103ED0008E7772CF811121C08091EF019091F00116
:103EE00099270297D4F48091E800877F8093E800B7
:103EF0008091EF018093E8010E94621C8091E801AB
:103F0000811106C08091E30087FD02C081E001C0FD
:103F100084E08093EC010E94A8198091E80083FF5F
:103F20000AC08091E800877F8093E8008091EB00D1
:103F300080628093EB00AA960FB6F894DEBF0FBEA6
:103F4000CDBFDF91CF911F9108950895CF938091B8
:103F5000EC018823A1F0C091E900CF709091EC00B2
:103F6000892F817090FD80E8C82B1092E900809124
:103F7000E80083FD0E94451ECF70C093E900CF91F9
:103F8000089597FB072E16F4009407D077FD09D00B
:103F90000E94DB1F07FC05D03EF4909581959F4F52
:103FA0000895709561957F4F0895EE0FFF1F05905E
:103FB000F491E02D0994AA1BBB1B51E107C0AA1F75
:103FC000BB1FA617B70710F0A61BB70B881F991FBA
:103FD0005A95A9F780959095BC01CD010895F9995E
:103FE000FECF92BD81BDF89A992780B50895A8E1CA
:103FF000B0E042E050E00C942320262FF999FECF48
:1040000092BD81BDF89A019700B4021639F01FBA2B
:1040100020BD0FB6F894FA9AF99A0FBE0895039648
:10402000272F0E94FE1F0E94FD1F252F0E94FE1FAA
:10403000242F0C94FE1F0196272F0E94FE1F0C9424
:10404000FD1FDC01CB01FC01F999FECF06C0F2BDDA
:10405000E1BDF89A319600B40D9241505040B8F746
:064060000895F894FFCF63
:10406600013101003201043201AC012808641E143A
:104076000A321E4319661947199219461901F4F5B1
:0C408600F6F73133946697C60000000086
:00000001FF
