:100000008FC60000C6C60000C4C600000C94012BB9
:10001000C0C60000BEC60000BCC60000BAC60000D4
:10002000B8C60000B6C600000C94DC270C94C428A7
:100030000C94E813AEC60000ACC60000AAC60000CF
:10004000A8C60000A6C60000A4C60000A2C6000004
:10005000A0C600000C94B8279CC600009AC60000F9
:1000600098C6000096C6000094C6000092C6000024
:1000700090C600008EC600008CC600008AC6000034
:1000800088C6000086C6000084C6000082C6000044
:1000900080C600007EC600007CC600007AC6000054
:1000A00078C6000076C6000074C60000050109028B
:1000B000A10185020901A1000509190129081500FE
:1000C0002501950875018102050109300931158165
:1000D000257F95027508810609381581257F9501D0
:1000E00075088106050C0A38021581257F95017572
:1000F000088106C0C005010980A101850319012AF4
:10010000B700150126B700950175108100C0050CD8
:100110000901A101850419012AA002150126A002E6
:10012000950175108100C005010906A10105071997
:10013000E029E715002501950875018102950175F3
:100140000881010507190029FF150026FF00950603
:100150007508810005081901290515002501950577
:1001600075019102950175039101C009023B0002DE
:100170000100A0FA09040000010301010009211196
:100180000100012244000705810308000109040160
:10019000000103000000092111010001227B00077A
:1001A00005820320000112010002000000081D8DDD
:1001B00017EC0001010200012403410075007200E8
:1001C0006F00720061002000530077006500650039
:1001D00070002000720065007600310000001803F6
:1001E000730070006C00690074006B0062002E00E8
:1001F00063006F006D000000040309042020005319
:1002000020002020004320002020004E2000ABAC26
:1002100000CFD000C600CA00C800CC00A9AA00B117
:10022000B2008B8C00CDCE00C500C900C700CB004A
:10023000898A00919200A7A800AFB000C600CA004A
:10024000C800CC00A5A600ADAE008788008F900046
:10025000C500C900C700CB008586008D8E002094A4
:1002600095962020B4B5B62020D4D5D62000209D68
:100270009E9F2020BDBEBF2020DDDEDF2000209716
:1002800098992020B7B8B92020D7D8D92000209A33
:100290009B9C2020BABBBC2020DADBDC2000202085
:1002A00020202000737765657000000000E000F8F2
:1002B000C0F8E0C0FC007E180080000280F000C0A2
:1002C00080F8C0E070603C383C1C003F0C0F1F03FE
:1002D0000701C300E08000E080F880C0F7C76F7BB3
:1002E0003930008000C000C0C2E000403830381E05
:1002F000181E0F0C07070703032121313018181CA3
:10030000080C0E07060703C303014CCCC2C24149C7
:10031000092B2A6A6E2424049292B1F1F1F2E6A428
:10032000A4040428282828282828000000100000F9
:100330000000000000081C08000000000000000091
:10034000020000000000100000000000000020007B
:1003500000000000000000020040E040000000003B
:100360000000040000000080C080C0800000000089
:100370000000E0008000F00000C00000000000006D
:10038000004000000000000001008100C000FE00ED
:10039000FC00FF20FFF00FF000FF00000000100045
:1003A000000000009000F80000F8FF10FF84FF60DC
:1003B000FF36FF0FFF3F005F000580008000C03860
:1003C00000ECF000FB80FFF0FFEFFFE8FF03FF0C05
:1003D000FF00FF00030000F80080FF20FFD0FFE0D7
:1003E000FEF8FFFCFFFF0FFF013FFF000F000100C1
:1003F0000300FE80FE00C0FFC4FBFFFEFFFFFF3FC7
:10040000FFFF07FF033F000FC0000000B800FF40E0
:10041000BEF0FFF1FFFEFFFFFFFF1FFF6700EF00D1
:100420001F0000070000E000FFF0FF88FFC4FFF896
:10043000FFFFFFFFFFFF8F7F0FFF0007FE0007009A
:10044000000000F800C03FF8E7FFFFFFFF1FFFFFBD
:100450001F3F01FF0B00FF000005000000E000F857
:100460006080FEE3FCFF1EFFFF23FF09FF20003F2B
:100470000200000F004000C000FCE0FCF0FFFF7F26
:10048000FCFF0FFF071F00010F000F0081700CF031
:10049000800000E4F8E6703FCFFF1FFF48FF0F0029
:1004A0000700004360F8F0FE38FE00FC0300C8724D
:1004B000CFFC00030F01E01CE003000F0000000070
:1004C000000000F806F900030007FF001012C9F051
:1004D000CFB47F80E01E0140655EE00000F00CF0CC
:1004E00000807E018093FCC000000000000089189D
:1004F0002C46000721101080091331BFFF00081A95
:10050000F70F0000444534BFB80010F008F418118C
:10051000FC18FB0E10F804F810201809FF0CEA1F55
:10052000286030F820C04233210000AE00AF000048
:10053000000000003E5B4F5B3E003E6B4F6B3E0099
:100540001C3E7C3E1C00183C7E3C18001C577D570E
:100550001C001C5E7F5E1C0000183C180000FFE7BA
:10056000C3E7FF00001824180000FFE7DBE7FF00E7
:1005700030483A060E00262979292600407F0505D5
:100580000700407F05253F005A3CE73C5A007F3E6C
:100590001C1C0800081C1C3E7F0014227F22140033
:1005A0005F5F005F5F0006097F017F00006689953D
:1005B0006A0060606060600094A2FFA2940008047A
:1005C0007E04080010207E20100008082A1C080065
:1005D000081C2A0808001E10101010000C1E0C1E0B
:1005E0000C0030383E383000060E3E0E060000008B
:1005F0000000000000005F0000000007000700008E
:10060000147F147F1400242A7F2A12002313086405
:100610006200364956205000000807030000001C05
:10062000224100000041221C00002A1C7F1C2A00DD
:1006300008083E080800008070300000080808081C
:1006400008000000606000002010080402003E5115
:1006500049453E0000427F4000007249494946003A
:100660002141494D33001814127F1000274545459C
:1006700039003C4A494931004121110907003649F6
:1006800049493600464949291E000000140000006F
:100690000040340000000008142241001414141417
:1006A00014000041221408000201590906003E41CD
:1006B0005D594E007C1211127C007F494949360079
:1006C0003E41414122007F4141413E007F4949492D
:1006D00041007F09090901003E41415173007F0833
:1006E00008087F0000417F4100002040413F010099
:1006F0007F08142241007F40404040007F021C02DE
:100700007F007F0408107F003E4141413E007F0989
:10071000090906003E4151215E007F091929460062
:1007200026494949320003017F0103003F40404010
:100730003F001F2040201F003F4038403F0063140F
:10074000081463000304780403006159494D430011
:10075000007F414141000204081020000041414156
:100760007F000402010204004040404040000003BA
:10077000070800002054547840007F284444380083
:10078000384444442800384444287F0038545454A2
:10079000180000087E0902001824241C78007F0835
:1007A0000404780000447D4000002040403D0000EB
:1007B0007F102844000000417F4000007C04780442
:1007C00078007C08040478003844444438007C18DD
:1007D00024241800182424187C007C080404080031
:1007E00048545454240004043F4424003C40402016
:1007F0007C001C2040201C003C4030403C00442831
:10080000102844004C9090907C004464544C440068
:100810000008364100000000770000000041360863
:1008200000000201020402003C2623263C000000D6
:10083000000000000000C0E0F0F8F81800C0F0FC74
:10084000FEFFFFFFFFFFFFFF7E00000000F8042215
:1008500052E2424242E252222222428202022222F8
:100860000204F80000F804020282422242820202DC
:1008700002824222122242820204F80000F8FCDEC8
:10088000AE1EBEBEBE1EAEDEDEDEBE7EFEFEDEDE08
:10089000FEFCF80000F8FCFEFE7EBEDEBE7EFEFE24
:1008A0000000000000008080404020201010080858
:1008B00010102020404080808080C0C0E0E0F0F038
:1008C000F8F8F0F0E0E0C0C0808080804040202058
:1008D000101008081010202040408080808040C008
:1008E00060A050B058A850B060A040C0808000F810
:1008F000FCFEFFE000FFFFFFFFFFFF80FFFFFFFFA9
:10090000FFFFFFFFFF1F070100000000001F204442
:100910004A47424242474A444040404041424444A0
:1009200040201F00001F20404140404040404140C7
:1009300041414F4848484F4141201F00001F3F7B25
:1009400075787D7D7D78757B7F7F7F7F7E7D7B7BEE
:100950007F3F1F00001F3F7F7E7F7F7F7F7F7E7FE7
:1009600000000000000088885D5D3E3E7C7CF8F859
:100970007C7C3E3E5D5D88888888555523234747AB
:100980008F8F47472323555588888888D5D5E2E23D
:10099000C4C48888C4C4E2E2D5D5888888885DD577
:1009A0006BB66DD6ADDA6DD66BB65DD588880003B3
:1009B0000F1F3F3F3F3F1F1F3F3F7F7F7F3F3F1F37
:1009C0003F7F7F7F7F7C7878381C0F0004F8000021
:1009D000F804201F00001F20FCF80000F8043F1F4F
:1009E00000001F2004F80000F8FC201F00001F3F3B
:1009F000FCF80000F8FC3F1F00001F3FFE7EBEDE3B
:100A0000EEDEBE7EFEFCF8007E7E70777777707E2D
:100A10007E3F1F00000000000000000000000000FA
:100A200000000000000000000101020204040808A8
:100A3000040402020101000000000101020204049A
:100A40000808040402020101000000000101030380
:100A500007070F0F07070303010100000000010152
:100A6000030205060D0A050603020101000000014C
:100A7000010101010101010102020202020202025E
:100A80000203030303030303030404040404040430
:100A900005050505050606060606070707070708F4
:100AA000080808090909090A0A0A0B0B0B0C0C0CA7
:100AB0000D0D0D0E0E0E0F0F0F1010111111121241
:100AC00013131414151516161717181819191A1ABE
:100AD0001B1B1C1D1D1E1E1F20202122222324241F
:100AE000252626272829292A2B2C2D2D2E2F30315B
:100AF0003232333435363738393A3B3C3D3E3F406D
:100B00004142434445464748494A4C4D4E4F505157
:100B10005354555658595A5B5D5E5F616264656611
:100B200068696B6C6D6F7072737577787A7B7D7E98
:100B30008082838587888A8C8E8F91939596989AE8
:100B40009C9EA0A2A3A5A7A9ABADAFB1B3B5B7BA00
:100B5000BCBEC0C2C4C6C9CBCDCFD1D4D6D8DBDDD4
:100B6000DFE2E4E7E9EBEEF0F3F5F8FAFDFF00DA97
:100B70000281FFD9F1DB20A4A62EAF00A0C0D300D4
:100B800000A1C8D30000AED580A81F408D1420005E
:100B90001700150008001A0014000A0009000700D9
:100BA000160004220500190006241B281D212B41D4
:100BB0002C420000000000001C0018000C00120075
:100BC00013000B000D000E000F0033321100100057
:100BD00036343738383128432A44000000000000FA
:100BE0000000000000000000000000000000000005
:100BF0000000E10000000000E200E300E00000006F
:100C0000000000000000000046004A0052004D00B5
:100C10004B004900500051004F004E000000000002
:100C200000000000000029004C000000000000004F
:100C300000000000000000000000000000000000B4
:100C40000000E10000000000E200E300E00000001E
:100C500000000000000000003A003B003C003D00A6
:100C600000003E003F004000410000004200430001
:100C700044004500000000000000000000000000EB
:100C800037023602340035001E02270226022102F6
:100C90003100240230002F001F022D0223023002F7
:100CA0002F02000000000000000000000000000013
:100CB00000000000000000000000E500000000004F
:100CC000E600E700E4000000000000000000000073
:100CD000550020001F001E002202540023002200A5
:100CE000210067005700260025002400200256003E
:100CF00027000000000000000000000000000000CD
:100D000000000000000000000000E50000000000FE
:100D1000E6006338E400000000000000000000006E
:100D200011241FBECFEFDAE0DEBFCDBF04B603FE55
:100D300019C08091B1069091B206A091B306B0910E
:100D4000B4068730904BA740B04B61F41092B106C7
:100D50001092B2061092B3061092B406E0E0F8E3E7
:100D6000099500C012E0A0E0B1E0E6EAFAE502C0B1
:100D700005900D92A63BB107D9F726E0A6EBB2E0AD
:100D800001C01D92A13BB207E1F70E947E230C94A3
:100D9000E52C36C980936806909369060895809380
:100DA0006A0690936B06089521E030E002C0220F9E
:100DB000331F8A95E2F780916A0690916B06822B29
:100DC000932BEDCF21E030E002C0220F331F8A9534
:100DD000E2F72095309580916A0690916B06822308
:100DE0009323DDCF983090F5853080F5E82FF0E043
:100DF00085E0989FE00DF11D112451E0E1FD54E0E4
:100E0000E0FD550FE2FD529583E0F695E7958A9552
:100E1000E1F7EE0FFF1FEE0FFF1FE25CF94F20E03E
:100E200030E070E04191DF01CB01022E02C09695C7
:100E300087950A94E2F78695880B84278523842773
:100E40008E932F5F3F4F2430310561F70895292F8E
:100E5000983070F5853060F590E035E0239F800D87
:100E6000911D1124682F677023E0969587952A9528
:100E7000E1F7FC01EE0FFF1FEE0FFF1FE25CF94FE1
:100E800040E050E080E0219130E0062E02C036952F
:100E900027950A94E2F72170042E01C0220F0A94CC
:100EA000EAF7822B4F5F5F4F4430510561F7089599
:100EB00080E00895E091710690917006E91302C0F8
:100EC00080E008959F0157E0E59FF0011124EE585E
:100ED000F94F5181561306C05081581303C05581F4
:100EE000541305C02F5F3F4FF901E770E7CF81E052
:100EF00008958091710620917006281301C008950D
:100F000001968770FACF90916C0680958923809323
:100F10006C06282F277061F4891751F090916E06A6
:100F200092FF06C08695869586954CDF10926C06DA
:100F300008958095982F8091650689238093650692
:100F40000895972F7830C8F46530B8F48530C0F430
:100F500070E025E0929F600D711D112498E2899F39
:100F6000600D711D1124FB01EE0FFF1FE057F44FC0
:100F700085919591282F822F089520E090E0FBCF56
:100F800021E0FCCF803E9105D1F1C8F48133910579
:100F900009F481C048F48932910509F471C08A329C
:100FA000910509F47FC0089589339105E1F08238F5
:100FB0009105C9F08533910509F45DC00895843E1B
:100FC0009105D1F148F4823E910531F1833E9105BE
:100FD00041F181EE90E00895863E9105C1F1873E92
:100FE0009105F1F1089520916D06237009F064C018
:100FF00020916E0623FF14C089E290E008952091AD
:101000006D0620FD45C030916E0630FF09C024FDFD
:1010100024C083EE90E0089520916D0622FDF7CF65
:10102000089520916D0622FD44C030916E0630FD7A
:1010300043C024FFF5CF11C020916E0621FFF0CFF1
:1010400080916D0684FD09C087EE90E0089520919F
:101050006D0623FFE5CF24FFF7CF80E090E00895F1
:1010600020916D0623FD2BC030916E0631FFE1CF3C
:1010700084EE90E0089520916D0625FFD1CFBCCF7E
:1010800020916D0625FD1EC020916E0623FFC8CF5E
:1010900089E390E0089520916D0626FFC1CF8AE292
:1010A00090E0089520916D0626FFBACF81E390E08D
:1010B000089582EE90E0089580EE90E0089586EE27
:1010C00090E0089585E390E0089590916D0692FF79
:1010D00010C041E0282F2471243009F040E031E0B5
:1010E000282F2871283009F030E0431711F02CE048
:1010F000822793FF10C041E0282F2471243109F08A
:1011000040E031E0282F2871283109F030E0431702
:1011100011F02CE0822730916E0630FF10C051E0B4
:10112000282F2171213009F050E041E0282F28714B
:10113000283009F040E0541711F029E0822731FFF0
:1011400010C041E0282F2171213109F040E031E049
:10115000282F2871283109F030E0431711F029E0D9
:10116000822794FF02C083FD877E08950F931F930B
:10117000CF93DF9307DFEC01D23508F04DC0D035B7
:1011800008F0C3C0C03ED10530F5CD3CD10508F014
:101190009AC0C83AD10578F4C53AD10508F090C094
:1011A000C130D10599F1CE010497813A910570F1D2
:1011B000C0E0D0E02BC0CE01885A91094B97C0F710
:1011C000C85AD0E0CC0FDD1FC65BDD4F0990D88137
:1011D000C02DD4641BC0D03490F4D03208F0A8C025
:1011E000C83ED10598F0CE0191509F3108F78D2F60
:1011F0006CDF082F8C2F90E0C5DE902B54C08C2F15
:1012000090E0C0DEDF70C82FD92BD06ACE01DF910D
:10121000CF911F910F910895C03882E5D807B8F596
:10122000C03682E5D80708F056C0C03482E5D8073A
:10123000C8F4C03282E5D80708F047C08C2F8695E5
:10124000869520E2829FC0011124C37021E030E026
:1012500002C0220F331FCA95E2F7E901C82BD92B30
:10126000DD68D4CF8C2F86958695877020E2829F8B
:10127000C0011124C37021E030E002C0220F331FEF
:10128000CA95E2F7E901C82BD92BDC68BFCFC03C77
:1012900082E5D80750F48C2F8F71C03AD24580F583
:1012A000982F84EF906AEC01B1CFCE01805C92451B
:1012B000809708F07DCFDC2FDF71C0EFD06AA6CF1A
:1012C000A497D064A3CFD065A1CF8C2F8F71D82FD6
:1012D000C1EFD06A9BCF8C2F86958695877020E2D0
:1012E000829FC0011124C37021E030E002C0220FB0
:1012F000331FCA95E2F7E901C82BD92BDA6886CFEC
:10130000E4DEC0E0D82FD06281CF8C2F8F71DDDE7C
:1013100093E0CC0FDD1F9A95E1F7DF70282F84FF53
:1013200004C090E1899F90011124C22FD0696ECF33
:101330008D2F8F71CADE082F8C2F90E023DE902B2B
:10134000EC01E1CFCF92DF92FF920F931F93CF93E7
:10135000DF936C0100916A0610916B06809168061C
:1013600090916906082B192BCFE0D0E081E090E046
:101370000C2E02C0880F991F0A94E2F78023912354
:10138000892B61F4219790F7F12C8F2DDF91CF916C
:101390001F910F91FF90DF90CF900895FC2EB60122
:1013A0008C2FCFDDE3DE019769F3EFCF1F93CF934F
:1013B000DF93FC012581C081D181CE01211571F01F
:1013C000611561F0BFDF182F682FCE010BDDBE0164
:1013D000812FB7DDDF91CF911F91089538DD182F50
:1013E000F6CFCF93DF93EC01ADDFBE01AADDBEDE09
:1013F000DF91CF910895FC012481211599F080811E
:101400009181EFDF282F92959F70963099F060F4CC
:10141000925F9F70923030F4203FB1F038F481E059
:10142000283E38F080E008959A5FF3CF81E0243FB2
:10143000C9F7089591E0213F09F090E081E0283E4E
:1014400008F080E0892B089581E0089580E00895F8
:10145000F894E82FE295EF70F0E041A18F7021E061
:1014600001C0220F8A95EAF7922F9095942391A3B9
:1014700092A1822F892B82A37894089581E0809392
:10148000D50508958091980381608093980308950D
:10149000FF920F931F93CF93DF93182F062FF42EF5
:1014A000C0E0D0E0CE0120912D06211103C0C7314C
:1014B00008F047972F2D402F612F67D12196CE320C
:1014C000D10581F7CDB7DEB7E5E00C94492C9AE061
:1014D000899F802D1124982F965F9F3208F09EE2FD
:1014E00020912D06211104C0873128F487E1089549
:1014F000983108F097E1089580915D0691E0892781
:1015000080935D0610927001BDCF80915D0683705F
:1015100031F0846080935D0610927001B3CF08951E
:1015200080915D06837031F0846080935D06109237
:101530007001A8CF089590915D06937051F080934B
:101540005E0660935F06413808F040E8409360060D
:1015500099CF0895EDE5F6E0818190E043816281C5
:101560000896E9CFEDE5F6E08181438162818850FC
:10157000990BE1CFEDE5F6E0628120E1620F08F41E
:101580006FEF8181438190E0D6CFEDE5F6E0628197
:1015900020E1621B08F460E08181438190E0CBCFC1
:1015A000EDE5F6E0438120E1420F08F44FEF818141
:1015B000628190E0C0CFEDE5F6E0438120E1421B7F
:1015C00008F440E08181628190E0B5CF209161060E
:1015D00030E1230F08F42FEF2093610653CF2091C1
:1015E000610630E1231B08F420E0209361064ACF16
:1015F000E0916206EF3F61F0E53061F0E23061F4C6
:10160000EF5FF0E0EE57FE4F8081809362063ACFA5
:10161000E0E0F6CFE1E0F4CFE0E0F3CFE091620666
:10162000EF3F89F0E53069F0E23019F0E1110DC0CB
:10163000E3E0E150F0E0EE57FE4F808180936206D8
:1016400021CFE1E0F6CFE3E0F5CFE0E0F3CF0F9379
:101650001F93CF93DF93A0919B03B0919C039D01B7
:101660002D593340620F731F613042E0740710F050
:1016700060E072E04091990350919A03FC0101E00F
:1016800010E02617370748F04093990350939A03C8
:10169000DF91CF911F910F91089584919D9198179B
:1016A00089F0ED018A93C901C5E096958795CA95A1
:1016B000E1F7E80102C0CC0FDD1F8A95E2F7CE0109
:1016C0004C2B592B2F5F3F4F3196DBCF9091090662
:1016D000292F30E070910A06A9014395437050E02C
:1016E0007417150689F0295F394F60FB87F9F901F6
:1016F00084839F5F937090930906809107068F5FA4
:101700008093070681E0089580E0089590E06115D8
:10171000D1F0805F9E4FFC0180818F3F99F0E82FD0
:10172000E295EF70F0E041A18F7021E001C0220F3F
:101730008A95EAF7922F9095942391A392A1822FF4
:10174000892B82A308958E5E9E4FE5CF90E06115B0
:10175000A9F0805F9E4FFC0120812F3F91F0E22F86
:10176000E295EF70E05EF0E0808190E02F7002C0C3
:10177000959587952A95E2F7817008958E5E9E4F24
:10178000EACF80E00895539A0895FC01EE0FFF1F01
:10179000E80FF91FE352FD4F6183408322830895D0
:1017A000FC01680F791F8FEF41E39191892728E0B1
:1017B00030E0982F990F87FF09C0892F8427215087
:1017C0003040B9F7E617F70781F70895892FF7CF6B
:1017D000382F25EB3203C001112497FF04C0805835
:1017E0009109892F089580589F4FFBCF809154060F
:1017F00080FD14C081FD14C082FD16C08091530687
:10180000811581F08E3180F420E5829FC001112482
:101810006EE170E00E94632C862F089584E10895A4
:1018200088E2089588E0089580E50895809154063F
:1018300080FD17C081FD17C082FD19C0809152063E
:10184000811599F0883298F428E0829FC001112414
:1018500068E270E00E94632C6115710551F0862FDB
:10186000089562E0FCCF64E0FACF61E0F8CF68E071
:10187000F6CF81E0089580912C06811571F0E091FA
:101880003406F0913506309739F00190F081E02D63
:10189000309711F00995089580E00895A3E0B0E035
:1018A000E4E5FCE00C94302C2091D9023091DA026E
:1018B00028173907B1F08093D9029093DA02E091AA
:1018C0003406F0913506309761F00084F185E02D03
:1018D000309739F023E029838A839B83CE010196D8
:1018E00009952396E2E00C944C2CA3E0B0E0EBE7E2
:1018F000FCE00C94302C2091D7023091D8022817AC
:101900003907B1F08093D7029093D802E091340662
:10191000F0913506309761F00084F185E02D309725
:1019200039F024E029838A839B83CE0101960995AF
:101930002396E2E00C944C2C9C01FC01329680E052
:101940009FEF4081461759F031969F3F19F441119E
:1019500001C0982F8F5F8630A1F79F3F09F408954B
:10196000290F311D97FD3A95F90162830895FC0115
:10197000329608962191261302C0DF011E92E817C5
:10198000F907C1F7089580910D0108952FB7F894D4
:101990006091D3027091D4028091D5029091D602C9
:1019A0002FBF089580912C06811539F0EFDF462F67
:1019B000572FBC01CB01BA010895E8DFDC01CB0150
:1019C00040912E0650912F0660913006709131069D
:1019D000480F591F6A1F7B1FEDCF0895FC0120910E
:1019E000C9023091CA022617370748F06115710500
:1019F00029F49091E8009E779093E8009B0190E095
:101A00002115310541F4911106C08091E80082FF53
:101A100032C080E008958091A7058115C1F185301D
:101A2000C1F18091E80083FD30C08091E80082FD23
:101A3000ECCF8091E80080FFE3CF8091F3004091EC
:101A4000F200582F2115310519F04830510558F092
:101A500091E04830510509F090E04091E8004E7760
:101A60004093E800CDCF81918093F100215031095E
:101A70004F5F5F4FE7CF8091A705811541F085301B
:101A800041F08091E80083FFC0CF81E0089582E0BB
:101A9000089583E00895982F9093E900891771F0D5
:101AA0007091EC002091ED005091F00021FD09C0F3
:101AB0009F5F973089F78093E9000895762F242F50
:101AC00050E03091EB003E7F3093EB003091ED0021
:101AD0003D7F3093ED003091EB0031603093EB00AF
:101AE0007093EC002093ED005093F0002091EE00F5
:101AF00027FDDECF08958091C30287FF13C0809138
:101B0000E80082FF06C08091E8008B778093E800B0
:101B100008958091A7058111F2CF08958091A705BE
:101B20008115D9F38091E80080FFF8CF8091E8001B
:101B30008E77ECCF2091E4003091E50095E6A90185
:101B40002091EC00822F817020FF06C08091E80078
:101B500080FF06C080E008952091E80022FD1AC0B1
:101B60008091A705811589F0853089F08091EB007F
:101B700085FD0FC02091E4003091E5004217530726
:101B8000F9F29150E1F684E0089582E0089583E04F
:101B9000089581E00895CF93DF93C8EDD0E0888168
:101BA0008F7E8883E7EDF0E080818160808384E030
:101BB00082BF81E08093C20288818E7F8883E2EEBB
:101BC00010821092DA00A1EEB0E01C9288818F772B
:101BD000888388818068888388818F7D888319BC09
:101BE0001092A7051092C1021092A6051092C00291
:101BF000A0EE8C918B7F8C9388818160888342E0FA
:101C000060E080E048DFA1EEB0E08C918E7F8C93A5
:101C1000E2EEF0E080818160808380818860808353
:101C2000E0EE80818E7F8083888180618883DF9170
:101C3000CF910895E8EDF0E080818E7F808310924F
:101C4000E2001092DA001092E100A0EEB0E08C9178
:101C500081608C9380818F77808319BCA7ED8C91F4
:101C60008E7F8C9380818F7E80831092C202089534
:101C7000A0E0B0E0EEE3FEE00C94282C7C016B01C8
:101C80005A01809113060AE010E08A3010F001E05A
:101C900010E0C1E0D0E0B601C701F501099581115E
:101CA00015C021960C171D078CF0CC9F9001CD9F7D
:101CB000300D300D112480E090E045E34A95F1F7B6
:101CC0000000019682179307C1F7E5CFCDB7DEB7C5
:101CD000EAE00C94442C3BB1377F2BB128604FB71E
:101CE000F8948DED92E0FC010196508168E02BB9EB
:101CF000000000C057FF3BB9550F000000C000C0F6
:101D000000C03BB900C06A9591F753E0873695074C
:101D100051F74FBF8FE594E00197F1F700C0000045
:101D2000089581E08093E00080E28093D8001092D3
:101D3000C9008FE19EE40197F1F700C00000A7E021
:101D4000B0EBCD018093B1069093B206A093B30699
:101D5000B093B40688E19CE00FB6F894A895809300
:101D600060000FBE90936000FFCF0F931F93CF933F
:101D7000DF93EB018A019091A705943059F5809388
:101D8000E9008FEF9091E80095FD06C095ED9A95DA
:101D9000F1F700008150B1F78091E80085FF1AC08B
:101DA000C9DE811112C08091E80085FD06C08091D6
:101DB000E8008E778093E800F3CF88818093F1006C
:101DC0000150104011F02196EECF8091E8008E77FF
:101DD0008093E800DF91CF911F910F910895CF93E9
:101DE000DF93EC0148E050E0BC0181E0BEDF88E019
:101DF000FE01ABECB2E001900D928A95E1F7DF9124
:101E0000CF91089546E050E0BC0182E0AECF43E0C0
:101E100050E0BC0182E0A9CF90916E0692FB222790
:101E200020F9281771F080FB92F990936E0660916B
:101E30006D0670916E0684E090E00E94E12C82E0D5
:101E400062C808958091650690916F06892B9091E4
:101E50006606911589F0892B90E02AEB32E0F901B2
:101E600040812F5F3F4F41119F5F42E0203C34078C
:101E7000B1F79111109266068093B80248E050E0E5
:101E800066E376E088EB92E00E94852C892BB9F01E
:101E900088E0E8EBF2E0A6E3B6E001900D928A95C7
:101EA000E1F7E0913406F0913506309741F0028079
:101EB000F381E02D309719F088EB92E009950895B1
:101EC000811531F090916506982B90936506BACFF5
:101ED0000895811511F02DD8B5CF0895CF92DF92D6
:101EE000FF920F931F93CF93DF936901E801082FAF
:101EF000880F110B41155105B1F0F80133E0EE0FD9
:101F0000FF1F3A95E1F7E15EFE4F81819281895191
:101F10009A4FE0812E2F30E04E17510508F49A01B8
:101F2000A9010E94922CC8010E949E2BF82E8115B7
:101F3000E1F02097D1F0C80123E0880F991F2A957E
:101F4000E1F7FC01E15EFE4F2381422F50E0C21712
:101F5000D10508F4AE01815E9E4FFC01648175815C
:101F600069517A4FC6010E94922C8F2DDF91CF913B
:101F70001F910F91FF90DF90CF900895A4E0B0E003
:101F8000E4ECFFE00C942C2CE090D105F090D2050D
:101F90000091D3051091D405F9DCDC01CB018E1939
:101FA0009F09A00BB10B11E084369105A105B10585
:101FB00000F1F8DCDC01CB010296A11DB11D898383
:101FC0009A83AB83BC8300E010E0980144E050E0CA
:101FD000BE016F5F7F4F86E081DF182F811549F0CA
:101FE000D5DC6093D1057093D2058093D30590938F
:101FF000D405812F2496E6E00C94482CA1E0B0E0B3
:10200000E4E0F0E10C94202C662E2A01190168010D
:102010008D019E012F5F3F4F40E050E0BA015EDF2F
:10202000182F811591F1F20180809180A280B380F8
:10203000ADDC7980681979098A099B0964367105D4
:102040008105910528F4B701C601AADB8715E9F0DF
:102050008701910140E050E0BA01862D3FDF082F53
:10206000B701C6019DDB10E087110AC0102F117067
:1020700000FF06C08BDCF20160837183828393834F
:10208000812F2196E2E10C943C2CA701B601C101FD
:102090000E94922CF5CFA4E0B0E0E1E5F0E10C94D1
:1020A0002A2C6B017D0108EE15E09E012F5F3F4F4A
:1020B00043EE55E061E080E0A1DF811561F04981E8
:1020C0005A816B817C814093DF055093E0056093DA
:1020D000E1057093E2054091DF055091E0056091C4
:1020E000E1057091E205F6014083518362837383B9
:1020F0002496E8E00C94462CA8E0B0E0E2E8F0E199
:102100000C942C2C7D0101EF15E09E012F5F3F4FB9
:1021100047ED55E064E083E071DF182F811591F100
:102120009091F0058091D605981761F19091F40592
:102130008091F305891701F1E92FF0E0E551FA4F9D
:10214000828587FB662760F99F5F93709093F40503
:102150009091F2059F5F9093F2058F77B7DAF82E92
:102160008111E4CF00E010E09801A801B80185E0FA
:10217000B5DEF8221F2D02C0F110F4CF8091F005DA
:102180008093D605812F2896E6E00C94482CA0E099
:10219000B0E0EDECF0E10C94262CD82EEB01C42E2F
:1021A00059014801E880F9800A811B81EFDBDC01DD
:1021B000CB018E199F09A00BB10B84369105A105A7
:1021C000B10510F4C11471F000E010E09801A40111
:1021D000B5018D2D83DE811531F0D8DB68837983DD
:1021E0008A839B8381E0CDB7DEB7ECE00C94422C70
:1021F000A1E0B0E0EEEFF0E10C942E2C8091C80548
:1022000089832091060690E041E02817190609F419
:1022100040E08D019E012F5F3F4F69EC75E088E043
:10222000B6DF2196E4E00C944A2CA9E0B0E0EBE1A3
:10223000F1E10C942E2C88E0EDE5F6E08E010F5FC5
:102240001F4FD80101900D928A95E1F7198649E058
:1022500050E06DEF75E0C8010E94852C41E09801C7
:10226000892B09F440E009E010E06DEC75E087E0AF
:102270008EDF2996E4E00C944A2C0F931F93CF93A2
:10228000DF93EC0144E050E06CEE75E00E94852C99
:1022900041E0892B09F440E004E010E09E016BED81
:1022A00075E082E074DFDF91CF911F910F91089567
:1022B00048E050E067E170E08DE596E00E94B82CC0
:1022C00010929803089585E080935D0680917101D6
:1022D00090917201A091730180935E0690935F06C6
:1022E000A09360068FE7809361068FEF809362066C
:1022F000DFCFA0E0B0E0EFE7F1E10C94282C52DB57
:10230000AB01BC0140938F035093900380939103E2
:1023100070939203D091970380917001823009F4F9
:102320003BC1D0F4811120C0109207014093930368
:1023300050939403609395037093960380915D0688
:10234000837021F080915D06869586958093970332
:1023500081E08093700103C0833009F426C1CDB7BA
:10236000DEB7EAE00C94442C80910B01D8132AC00C
:1023700090915D06937020910A0130E081E0921700
:10238000130609F480E08093090180916206909120
:102390000801981731F08093080140E060E080E088
:1023A00077D8D13089F0DF3F09F4C6C0D11108C019
:1023B00080910901811521F040E060E080E068D85B
:1023C00080E024C081E0DFCF8091070180D8A82E73
:1023D000092F40915E06B0905F06E0916006F0E044
:1023E000E259F54FB11024C0E491CE2F1E2FDE2EFE
:1023F000EA2CF12C90912D060E1511F008F081C0F9
:1024000081E0911509F496C00731D0F6909107014B
:102410009F5F909307018111A2CF82E080937001AA
:102420008091090181119BCFD11199CF83E091CF88
:10243000E491CE2F86E0489F700111242FEF30E009
:10244000C701B9010E940C2C440F551FF5E5F69FFA
:10245000C001F79F900D1124481B842F880F480F4F
:10246000D901AB19B109EA9FC001EB9F900D11246E
:10247000192FB49E60011124CD2CD12CD901AC1997
:10248000BD096D01EC9DD001ED9DB00D11246330AF
:10249000710569F16901C41AD108A601B49E6001F1
:1024A000B59ED00C1124CD2CD12C2C193D09E29FC6
:1024B000A001E39F500D1124D52E2CEFE21623E04E
:1024C000F20658F461307105B1F06230710509F01F
:1024D0008FCFC92F152FDE2E8BCF6430710571F091
:1024E0006630710509F484CFD92E1B2F81CFDB2EE6
:1024F000C92F1E2F7DCFDE2ECB2F7ACFC52FD92E01
:10250000F8CFF701E65FFD4F80812091080182231B
:1025100069F0F701911105C087E1E816F1040CF0AC
:102520007797212F4D2D6C2FCF012FD98FEFE81AE0
:10253000F80A60CF0E3269CF90919403A091950371
:10254000B0919603892F9A2FAB2FA69597958795D3
:10255000A69597958795837090E0A0E0B0E08230D3
:102560009105A105B10589F083309105A105B1055B
:1025700079F040E060E010979040814059F464E1C8
:1025800080E00E94480A82E0E4CE44E160E0F8CFB7
:1025900044E164E184E1F5CFD0930B0180915D06C5
:1025A000837080930A0197DB41CF8091980381115A
:1025B0007FDEC0909303D0909403E0909503F09059
:1025C000960380912C06811571F0E0D96C197D0974
:1025D0008E099F09603171058105910508F4BFCE10
:1025E00010927001BCCEDED9F1CFAB0124E630E011
:1025F000BC0188E70E94D5299C0181E0232B09F0CA
:1026000080E0089580919E058115E9F0BFD9DC0135
:10261000CB01805A9541AF4FBF4F80939F05909358
:10262000A005A093A105B093A2058091C8058111D2
:102630000AC062E070E08CE295E0D7DF811519F006
:1026400081E08093C805089580919E05811561F011
:102650008091C805811541F062E070E08AE295E062
:10266000C4DF81111092C8050895CF93DF93C09104
:102670009B03D0919C038A30C1F44091A305CE0105
:102680008D599340642F70E00E940C2C481B842FBE
:1026900066E00E94572CC82FC11103C0DF91CF9173
:1026A0000895C15080E2E1DFF7CF8D30C1F4CD59FC
:1026B000D3404091A305642F70E0CE010E940C2C02
:1026C000481BCE01840F911D923010F080E090E005
:1026D00083569C4F80939B0390939C03DFCF96E09F
:1026E000FE01A9E8B3E001900D929A95E1F7803ED2
:1026F00008F455C086E019928A95E9F7C0919B03CA
:10270000D0919C0346E050E0BE0189E893E00E942E
:10271000852C9E012D593340892B41F1C90145E09B
:10272000969587954A95E1F741E050E0BA0102C0DD
:10273000660F771F8A95E2F7CB016091990370913C
:102740009A03862B972BB9016B5F7F4FE5E0769557
:102750006795EA95E1F702C0440F551F6A95E2F7C5
:10276000842B952B8093990390939A032A5F3F4F74
:102770004091A305642F70E0C9010E940C2C481BF6
:10278000463010F4240F311D323010F020E030E0DC
:1027900023563C4F20939B0330939C037FCF96E0BE
:1027A000899FB0011124625D7A4F46E050E0CE016E
:1027B0000E947C2CA3CFCF93DF93EC01FE01849188
:1027C000811103C0DF91CF9108954FDF2196F6CF9D
:1027D0001F921FB61F9211248F939F93AF93BF93A5
:1027E0008091A505811113C08091D3029091D402EC
:1027F000A091D502B091D6024196A11DB11D809342
:10280000D3029093D402A093D502B093D602BF9185
:10281000AF919F918F911F901FBE1F9018952FB75A
:10282000F8948091D3029091D402A091D502B091F6
:10283000D6022FBF0895CF93DF93EC01F0DF8C1BFE
:102840009D0BDF91CF910895ACE0B0E0EAE2F4E1B6
:102850000C94292CFE013196DF0188E01D928A95A7
:10286000E9F787E6E82E81E0F82EDD24D394BE2E2A
:10287000CF2E00E711E0F70181917F018F3F09F42E
:1028800044C0F894E82FE295EF70F0E021A18F703A
:1028900041E001C0440F8A95EAF7922F942B91A34F
:1028A00092A1842F8095892382A3789400C06CE63E
:1028B00071E0EB2DFC2D4D2D4095DB019D91BD016F
:1028C00081919F3F09F4A4C0292F22952F70205E8B
:1028D00030E0D9012C919F7002C0359527959A95CB
:1028E000E2F720FD95C08D299F0121503109D901C2
:1028F0008C930617170709F7F70182918F3F11F0A4
:102900000E94280A80EA8A95F1F7DD0C8CE691E0B6
:102910008E159F0509F0AFCF48E050E06B2D7C2D60
:1029200084E296E00E94852C009749F028E0EB2D88
:10293000FC2DA4E2B6E001900D922A95E1F70091FA
:10294000230610E0055E194F892B09F463C081E06E
:1029500080931A0664DF809318069093190680917D
:102960002C06811509F4AEC07E0189E0E80EF11C49
:10297000F70184E011928A95E9F7809113068A3075
:1029800008F06BC04BE450E1B701C80171D9811563
:1029900009F487C04DE351E1B701C80169D9811538
:1029A00009F47FC04CE750E1B701C80161D9811536
:1029B00009F477C04EEB5FE0B701C80159D9811522
:1029C00009F46FC045E151E1B701C80151D9811542
:1029D00009F467C048EF50E1B701C80149D9811532
:1029E00009F45FC0109213068091170690E044E04E
:1029F00050E0B701855E994F0E94852C21E020931D
:102A00001606892B09F03FC02C96E9E00C94452C62
:102A100084236ACF80911A06811509F4A0CFE09033
:102A20001806F0901906FBDE8E199F09059708F429
:102A300096CF44E050E064E276E0C8010E94852C25
:102A4000892B41F084E0E4E2F6E0D80101900D9298
:102A50008A95E1F710921A0682CFC0901406D090A2
:102A60001506DDDE8C199D09843F914008F08ACF60
:102A700080911606811541F2F70184E011928A9542
:102A8000E9F710921606E0911706F0E0E55EF94FBF
:102A900089859A85AB85BC8580839183A283B38326
:102AA000B3CF809113068F3F31F4B9DE80931406C3
:102AB00090931506DDCF8F5F809313068A3008F45C
:102AC00093CFF3CFE0901706F12CC701855E994FA5
:102AD0007C01F80180819181A281B3818093E80516
:102AE0009093E905A093EA05B093EB0564E070E0EC
:102AF00088EE95E00E94D00B8093E7058091EC056D
:102B00009091ED05A091EE05B091EF05F70180835E
:102B10009183A283B38388E0E7E0F6E0A1EFB5E01C
:102B200001900D928A95E1F768E070E081EF95E001
:102B30000E94D00B8093F005C090F905D090FA0563
:102B4000E090FB05F090FC0580910F069091100637
:102B5000A0911106B0911206C816D906EA06FB0626
:102B6000C1F0C0920F06D0921006E0921106F092CA
:102B700012060E94C60CC61AD70AE80AF90AC6014C
:102B8000D70180932E0690932F06A0933006B09322
:102B9000310688E0EDEFF5E0ADE5B6E001900D928D
:102BA0008A95E1F780910606811511F02BDD2CCF77
:102BB0004BDD2ACF4F925F926F927F928F929F92BE
:102BC000BF92CF92DF92EF92FF920F931F93CF931A
:102BD000DF9380919E05811509F4F2C1C0918703AE
:102BE000D09188031CDE8C1B9D0BC29708F40DC18D
:102BF00016DE80938703909388038DE993E080939A
:102C00009B0390939C0380912C06811509F4EBC1E2
:102C100060E870E08AEA92E00E94270B8091A305A9
:102C200024E0829FC0011124923014F080E090E0F3
:102C300083569C4F80939B0390939C0384EA92E07D
:102C4000BADD8EE992E0B7DD20916A0630916B061D
:102C50008091680690916906282B392B832F90E08C
:102C6000009709F03DC0C90120E0AC01F4E05695A1
:102C70004795FA95E1F74115510511F02C5FCA010E
:102C8000AC0156954795569547954115510511F05C
:102C90002E5FCA0196958795820F823019F1833095
:102CA00021F1813029F58EE892E085DD8EE992E010
:102CB00082DDC091660680916506C82BDC2FD8782E
:102CC000C474D115C1F08BE592E075DDC1111BC054
:102CD00084E592E070DD8AE492E06DDDC0E019C029
:102CE00028E0C3CF8EE792E0E0CF8EE692E0DDCF22
:102CF0008EE592E0DACF88E592E05DDDC11116C085
:102D000080E592E0E7CF86E592E055DD8DE492E044
:102D100052DDD11571F087E492E04DDDC11111C093
:102D200080E492E048DD86E392E010C082E592E024
:102D3000ECCF84E492E03FDDC11120C08CE392E04F
:102D4000F1CF82E492E037DD89E392E034DDC09197
:102D5000660680916506C82BDC2FD171C272D11531
:102D600081F083E392E027DDC11113C08CE292E091
:102D700022DD82E292E01FDDC0E011C08EE392E02E
:102D8000E2CF80E392E017DDC11116C088E292E045
:102D9000EFCF8EE292E00FDD85E292E00CDDD115FF
:102DA00071F08FE192E007DDC11111C088E192E07E
:102DB00002DD8EE092E010C08AE292E0ECCF8CE17E
:102DC00092E0F9DCC1110CC184E192E0F1CF8AE11B
:102DD00092E0F1DC81E192E0EEDC0E943B0CC82F36
:102DE0008BE092E0C0FD02C088E092E0E4DC85E088
:102DF00092E0C1FD02C082E092E0DDDC8FEF91E065
:102E0000C2FD02C08CEF91E0D6DC809199039091D5
:102E10009A03892B09F4BAC080919E05811509F4A3
:102E2000B5C080919D058111B1C0ECDB8091990303
:102E300090919A03009709F4A9C0C82FC170D0E0FF
:102E400010E080FD0FC041E050E01F5FEA01012E5D
:102E500002C0CC0FDD1F0A94E2F79E01282339231C
:102E6000232B99F38091A40580FFC4C0912F990F63
:102E7000990F990F392F395F80E023E09093020179
:102E800080930501309303012093060124E630E08E
:102E900047E050E060E071E088E70E948B29892BD1
:102EA00009F074C080E2189FA00111248091A4054C
:102EB00080FFB2C0E7E6F3E080E211928A95E9F77D
:102EC0003EE7632E31E0732E8AE791E04C0162E821
:102ED00071E0D301ED913D01D4010D914D01040F3D
:102EE000152F111DF0E0E959FC4F80E090E027E03C
:102EF000B22EB81ACC24C394082E01C0CC0C0A946C
:102F0000EAF7980123563C4F2901E12CD201FD90AC
:102F10002D01FC202B2D2E19277030E0AF2D022E15
:102F200001C0AA0F0A94EAF7DA2E319521953109EA
:102F30002770332701C0F6942A95EAF7DF2820810D
:102F4000D22AD082E3942E2D283001F701963196B3
:102F50008830910561F66615770509F0BACF04E669
:102F600010E020E247E653E060E488E70E941B2A75
:102F7000892B61F4C095D0958091990390919A0323
:102F8000C823D923C0939903D0939A038091C8058D
:102F90008115B1F00E94C60CC0919F05D091A0058B
:102FA000E091A105F091A205DC01CB018C1B9D0BEA
:102FB000AE0BBF0B8F3F9F4FAF4FBF4708F444DBB3
:102FC000DF91CF911F910F91FF90EF90DF90CF9005
:102FD000BF909F908F907F906F905F904F900895DB
:102FE00086E192E0F6CE60E072E08AE293E00E9431
:102FF000270B0BCF20E2129FC0011124880F492F0D
:10300000441F550B5195242F912F9295990F90762F
:10301000392F315E842F32CF43565C4F04E610E0E7
:1030200020E230E0A1CFFBDB9C019091570680911C
:103030005806982B21F02093C5053093C605909132
:10304000590680915A06982B21F02093C30530939E
:10305000C405E0913406F0913506309759F00680AA
:10306000F781E02D309731F082E08093550685E5B9
:1030700096E009950895611509F448C0E82FED5CC4
:10308000E33150F4F0E0E951F34D0C94762C0E94BA
:10309000F60B819580935806C6CF0E94F60BFACFA7
:1030A0000E94F60B819580935706F6CF0E94F60B8F
:1030B000FACF0E94160C80935906EECF0E94160C90
:1030C0008195F9CF0E94160C819580935A06E4CF22
:1030D0000E94160CFACF815D990B21E001C0220FEE
:1030E0008A95EAF780915606822B80935606D4CFB4
:1030F00080915406816080935406CECF809154060F
:103100008260F9CF809154068460F5CF40915706D4
:103110008D3C59F48091580687FF0DC010925806D7
:10312000411559F41092530608C08E3C81F48091E9
:10313000580618169CF3411581F08091590690911C
:103140005A06892B09F0A8CF10925206A5CF8F3CC2
:1031500041F447FFF0CF1092570680915806811531
:10316000E0CF803D19F41416B4F3E5CF90915906E1
:10317000893D29F41916FCF610925906DCCF8A3DD8
:1031800019F497FFD8CFF8CF90915A068B3D29F4C8
:1031900097FFD1CF10925A06CECF8C3D19F4191655
:1031A000CCF3C9CF982F915D983078F4815D990B5D
:1031B00021E001C0220F8A95EAF7822F8095909135
:1031C0005606892380935606B6CF8D3D31F4809103
:1031D00054068E7F80935406AECF8E3D21F48091AD
:1031E00054068D7FF7CF8F3D09F0A5CF809154060F
:1031F0008B7FF0CFCF93C82F8115A9F08450813AEF
:10320000A0F4EAEBF2E080EC92E02081C217E9F151
:1032100031968E179F07C9F76C2F88EB92E00E94BA
:103220009C0C0E94220FCF9108958C2F805E8830D5
:1032300060F4C77021E001C0220FCA95EAF78091BF
:103240006506822B80936506ECCF8C2F855A8330E0
:1032500030F48C2F8452990B0E944E0CE4CFEC2F4B
:10326000E85AEB3150F4F0E0EE0FFF1FE058FD4F4D
:10327000808191810E94750CD6CF8C2F8D5C83311B
:1032800090F661E08C2FF7DECECF6C2F88EB92E0CA
:103290000E94B70C0E94220FBFCF811581F1982F99
:1032A0009450913A38F4682F88EB92E00E94B70C62
:1032B0000C94220F982F905E983058F4982F81E04C
:1032C00091FD84E090FD880F92FD82950E94990700
:1032D000EFCF982F955A933020F480E090E00C9433
:1032E0004E0C982F985A9B3120F480E090E00C947B
:1032F000750C982F9D5C933110F460E0BCCE08955E
:10330000CF93C82F77DF8C2FC8DFCF91089580E04F
:1033100090910A0620910906291729F1E92FF0E07A
:10332000E55FF94F8081282F2F779F5F93709093EF
:103330000A06909108069F5F90930806223050F08D
:10334000223071F487FF0AC08EE401C089EAD8DF19
:1033500081E0DECF87FDFACF8AEAF9CF8BE4F7CFA1
:103360002330B1F7EFCF089510926506EAEBF2E053
:1033700086E011928A95E9F780E090E00E944E0C79
:1033800080E090E00E94750C10926F060E94220F60
:10339000E5E5F6E086E011928A95E9F7109253068A
:1033A00010925206109254063ECEDEDF8FEF94E369
:1033B0002CE0815090402040E1F700C0000088E1FF
:1033C0009CE00FB6F894A895809360000FBE909390
:1033D0006000FFCFAAE2B0E0E0EFF9E10C942F2CFF
:1033E00083EC92E0FC0101962091F100208322E021
:1033F0008B3C9207B9F78091C402893009F459C017
:10340000C8F4823009F4B6C0833009F485C0813035
:1034100089F18091E80083FFEAC08091C302909116
:10342000C4029A3008F0E3C0E92FF0E0E650F34D13
:103430000C94762C8A3009F48CC08B3051F7809133
:10344000C302813231F78091C7029091C802892B63
:1034500001F78091E800877F8093E8000E947B0D50
:1034600081E09091C502911101C080E080930E012E
:103470007BDFCFCF8091C302813A59F68091E8007B
:10348000877F8093E8008091C7029091C802892BC2
:1034900061F060E080E090E070E00E94EE0C8091CE
:1034A000E8008B778093E800B4CF68E08BEC92E083
:1034B000F3CF8091C302813209F0ABCF8091C70274
:1034C0009091C802029708F0A4CF8091E800877F0E
:1034D0008093E8008091E80082FF19C02091F300FA
:1034E0008091F200922F029731F48091F1008130A7
:1034F00011F0863021F48091F10080930D018091CC
:10350000E8008B778093E8000E947B0D82CF80914A
:10351000A7058111DFCF7DCF8091C302813A09F0E9
:1035200078CF8091C7029091C802892B09F071CFA2
:103530008091E800877F8093E8008091E80080FF19
:10354000FCCF80910E018093F1008091E8008E778E
:10355000D9CF8091C302813209F05BCF8091E8001E
:10356000877F8093E8000E947B0D8091C602809344
:103570000C014FCF8091C302813A09F04ACF80916C
:10358000E800877F8093E8008091E80080FFFCCF0F
:1035900080910C01D8CF803889F0823841F5809134
:1035A000C7028F70873018F58093E9008091EB0097
:1035B00085FB882780F91092E90006C08091A60556
:1035C000880F9091C002892B9091E800977F90938B
:1035D000E8008093F1001092F1008091E8008E776E
:1035E00023C0811116C08091C502813011F18091F4
:1035F000E80083FF0AC08091E800877F8093E8009D
:103600008091EB0080628093EB00AA96E3E00C943B
:103610004B2C823061F78091C502811581F01092A8
:10362000E9008091E800877F8093E8000E947B0D8D
:10363000DECF933009F080E08093A605F0CF809133
:10364000C7028F70282F2150263088F68093E9001A
:103650002091EB0020FFE3CF933031F48091EB0019
:1036600080628093EB00DBCF9091EB0090619093B0
:10367000EB0021E001C0220F8A95EAF72093EA00CF
:103680001092EA008091EB008860EBCF8111AFCF00
:103690008091C5028F77182F8091E3008078812B6D
:1036A0008093E3008091E800877F8093E8000E9488
:1036B0007B0D8091E80080FFFCCF8091E300806863
:1036C0008093E30083E0111101C082E08093A7059D
:1036D0008ECF8058823008F08ACF2091C502309179
:1036E000C6022C3D83E0380791F583E08A838AE2A5
:1036F00089834FB7F894DE01139620E03EE051E253
:10370000E32FF0E050935700849120FF03C082958F
:103710008F703F5F8F708A30C0F0895C8D931D92EF
:103720002F5F243169F74FBF8091E800877F809336
:10373000E8006AE270E0CE0101960E94EE0C8091F2
:10374000E8008B778093E80052CF805DE7CF832F2E
:1037500090E08330910519F160F48130910509F40E
:103760006CC08230910509F042CF8BE3EBE6F1E0CB
:1037700029C02091C7023091C8028132910509F415
:1037800053C08232910509F032CF2130310508F45F
:103790005CC009F02CCF8BE7ECEAF0E013C0822F7D
:1037A00090E0213099F182309105B9F1009709F04C
:1037B0001ECFE8EFF1E0E4918E2FE8EFF1E0009703
:1037C00009F415CF2091E800277F2093E80020918D
:1037D000C9023091CA028217930708F49C0140E0A5
:1037E00021153105B1F5411134C08091E80082FD09
:1037F000A6CF8091A705811509F4A1CF853009F4E2
:103800009ECF8091E80083FFF0CF99CFEEEDF1E0FD
:10381000E4918E2FEEEDF1E0D2CFE8EBF1E0E49110
:103820008E2FE8EBF1E0CBCF2130310550F009F0DD
:10383000DECE89E0E6E9F1E0C5CF82E1E6EAF1E03B
:10384000C1CF89E0EDE7F1E0BDCF84E4E7E2F1E04C
:10385000B9CF8091A705811509F471CF853009F49E
:103860006ECF8091E80083FD6ACF8091E80082FDF1
:10387000BCCF8091E80080FFB3CF4091F3008091EE
:10388000F200942F2115310519F08830910550F080
:1038900041E0089709F040E08091E8008E7780933E
:1038A000E8009ECF44914093F100319621503109B8
:1038B0000196E8CF803809F09ACE8091E800877FA2
:1038C0008093E8008091C1028093F10086CE81113F
:1038D0008ECE8091C502182F823008F088CE80915C
:1038E000E800877F8093E8001093C1020E947B0D5F
:1038F0001115A9F084E08093A70542E061EC81E016
:103900000E944B0D42E261EC82E00E944B0D8091DF
:10391000A705843051F482E080930F0168CE809136
:10392000E30087FDE7CF81E0E6CF81E0F5CFFF92AE
:103930000F931F93CF93DF93C62FD42FF22E8115B1
:10394000B1F060935B060E940F148093DB029093AA
:10395000DC0281E0C1FD84E0C0FD880FC2FD8295DC
:103960000E94600FCDB7DEB7E5E00C94492C809142
:103970005B06681331C00091DB021091DC020E94EB
:103980000F14801B910B883C910530F51D2F105EA4
:10399000CD17A1F0C77001E0802F01C0880FCA9534
:1039A000EAF70E94690F183048F48D2F877001C024
:1039B000000F8A95EAF7802F0E94600F8F2DA0DC00
:1039C00081E0D1FD84E0D0FD880FD2FD82951830D2
:1039D00048F60E94690FC6CF81E0C1FD84E0C0FDBA
:1039E000880FC2FD8295F5CFA0E0B0E0EAEFFCE1E0
:1039F0000C942A2C7C01FC018481811521F161E069
:103A0000C7010E94D609EC01F7018581FE01E8514A
:103A1000FC47E730F10598F5EC5FF24D0C94762CFD
:103A200026E241EE61EE83DF80916C06877059F0EB
:103A3000F7018581811539F080916E0682FF03C000
:103A400082E00E948307CDB7DEB7E8E00C94462CF5
:103A500027E245EE65EEE7CF26E241EE60EEE3CFEA
:103A600027E245EE64EEDFCF26E241EE62EEDBCFE9
:103A700027E245EE66EED7CF28E241E0EBCF811595
:103A800009F4DBC310925B069E01305723323105E7
:103A900008F0E3C384E090E00E94B32C80936D06AD
:103AA00090936E06FE01E150F047E232F10520F4FA
:103AB000E55FF24D0C94762C80916D0681608093C9
:103AC0006D0660916D0670916E0684E090E00E9434
:103AD000E12C4ADCA9CF80916E06886080936E0647
:103AE000F0CF80916D068260EACF80916D06846090
:103AF000E6CF80916D068860E2CF80916E0681608E
:103B0000EDCF80916E068260E9CF80916D06806175
:103B1000D6CF80916D068062D2CF80916D06806491
:103B2000CECF22DC80916D068068C9CF80916D0672
:103B30008C60C5CF80916E068360D0CF80916D067A
:103B40008E7FBDCF80916E06877FC8CF80916D0636
:103B50008D7FB5CF80916D068B7FB1CF80916D0643
:103B6000877FADCF80916E068E7FB8CF80916E0635
:103B70008D7FB4CF80916D068F7EA1CF80916D0631
:103B80008F7D9DCF80916D068F7B99CFEDDB8091EE
:103B90006D068F7794CF80916D06837F90CF809153
:103BA0006E068C7F9BCF90916D06892F8B7F92FF45
:103BB0008460877F92FF886082CF80916E06982F05
:103BC000909590FB80F990FB81F988CF90916D06DC
:103BD000892F8F7B96FF806472CFC6DB90916D0634
:103BE000892F97FB87F980586ACF61E08EE090E0DB
:103BF0000E94C72C66CF60E0F9CF90916D06892FA7
:103C00008F7E94FF80615BCF90916D06892F8E7FB0
:103C100090FF816054CF90916E06892F877F93FF2C
:103C200088605CCF9272FE01E052F847EB30F105FC
:103C300008F06AC0E35DF24D0C94762C9091650615
:103C40009272FE01E054F847EF30F10508F05CC0D5
:103C5000E85CF24D0C94762C0E947C0AE5CE91151E
:103C600091F10E94900AE0CE911591F10E94B20A62
:103C7000DBCE911591F10E94C50AD6CE911591F136
:103C80000E94DB0AD1CE911591F10E94EF0ACCCEB1
:103C900080915D06837011F41092700180915D0631
:103CA0008C7F816080935D060E94420ABDCE809128
:103CB0005D06837011F01092700180915D068C7F1B
:103CC000F1CF911571F20E94850AAECE911571F275
:103CD0000E94AA0AA9CE911571F20E94BA0AA4CE36
:103CE000911571F20E94D00A9FCE911571F20E9437
:103CF000E60A9ACE911529F00E940E0B95CE9115E9
:103D0000D9F30E94F80A90CE9E01205E32452032FF
:103D10003105A0F4811124C08C2F8F71C1E0D0E057
:103D200002C0CC0FDD1F8A95E2F76C2F83E090E094
:103D30000E94C72CCE010E94CA0676CE8115B9F129
:103D4000CB359CE7D90751F1CC359CE7D907D9F0A1
:103D5000CA359CE7D90701F1C1309CE7D90731F199
:103D6000C3309CE7D907E1F0C115DC4701F5FCDA67
:103D70008FEF94E32CE0815090402040E1F700C0A9
:103D800000000E94910E80916E06002482FF039431
:103D9000802D0E940C0F48CE81E0FBCF80E0F9CF50
:103DA0006FEF7FEF80E090E00E94E12CFEDAF701F8
:103DB00000811181811509F445C0C8010E94A20942
:103DC000C82F682FC8010E94F206B8018C2F0E94EC
:103DD000A1070E94B608D82FC92FF701D580068108
:103DE00002950F7080916C06877001F1CD2CD11473
:103DF000F1F0892F807F803461F08D2F805E8830D4
:103E0000A8F0892F807E803221F4D23078F001151D
:103E100069F080916E0682FF09C082E00E948307EC
:103E200080916C068770CC24C3948111C12CEC2F37
:103E3000E295EF70C03C08F067C0F0E0E95BF24D3E
:103E40000C94762CC8010E942707C82FBECF1C2FC8
:103E50001F70C03110F01295107FD114B9F01115F8
:103E600069F08D2F805E883010F0D11109C08091EB
:103E70006506812B809365060E94220F8D2F3EC020
:103E800080916F06812B80936F06F6CF8D2F05DA18
:103E90001115D1F18D2F805E883010F0D11104C042
:103EA000812F0E94990706C0109580916F0681238B
:103EB00080936F060E94220F27C01C2F1F70C07FA7
:103EC000C03211F01295107FD13040F009F461C07A
:103ED000D11409F46BC0011599F1D0CF80916E0611
:103EE00082FD2AC0D11461F0111539F08091650668
:103EF000812B809365060E94220F80E07BD904C04D
:103F000080E0CBD91111CCCFC11409F4B6C0809197
:103F10006C0680FDB2C0F701158286958695869560
:103F20000E94D406C70160DD80916C068695869557
:103F300086950E94E206A1C0D11489F0013020F4D8
:103F4000812F0E94600FE0CFF9F680916606912FD5
:103F500098231917C9F2812B80936606D5CF0111DA
:103F6000D3CF812F0E94690F90916606812F8923FC
:103F700029F0812F809589238093660680916706BA
:103F8000912F982309F4C0CF10951823109367063A
:103F9000BBCFD11421F0063008F0B6CFD1CF053019
:103FA00008F0B2CF812F0E94690FAECF0115D1F377
:103FB000D93349F48FEF97EE23E0815090402040B1
:103FC000E1F700C000008D2F68D99ECF8C2F869519
:103FD00086958370813060F009F096CF8D2F9C2FED
:103FE0009370D11002C080E090E00E94750C8CCFDD
:103FF0008D2F9C2F9370D11002C080E090E00E9422
:104000004E0C82CF6D2D8D2F36D87ECF8C2F8370A6
:1040100009F046C0D1102FC04D2F429546954770EC
:10402000440F440F2D2F2F7030E0042E02C0220FBA
:10403000331F0A94E2F780E090E0D4FF09C08FE0DC
:1040400090E002C0880F991F4A95E2F780959095FD
:10405000C695C695C370C230D1F0C330A9F0409167
:10406000680650916906C13069F0822B932B842336
:1040700095230E94CA060E943B0C60E0C7010E9483
:10408000D609E1CC242B352B822B932BF2CF822B1C
:10409000932B209168063091690682279327E9CFF8
:1040A000D11491F1C0FFE7CF4D2F4295469547704F
:1040B000440F440F2D2F2F7030E0042E02C0220F2A
:1040C000331F0A94E2F780E090E0D4FF09C08FE04C
:1040D00090E002C0880F991F4A95E2F7809590956D
:1040E000C695C695C370C230B9F0C33091F0409107
:1040F0006A0650916B06C13051F0822B932B8423BA
:1041000095230E94CF06B7CF823070F6B4CF242B10
:10411000352B822B932BF5CF822B932B20916A0684
:1041200030916B0682279327ECCFCF70D11439F0F2
:104130008C2F0E94D4068D2F0E94600F9CCF8D2F54
:104140000E94690F8C2F0E94E20695CFD23F91F119
:1041500068F4D03FC1F0D13F89F0D11409F45AC0BE
:10416000011509F454C08D2F45D885CFD33F49F1AF
:10417000D43F99F790916E0692FD31C08C2F8F71CC
:10418000D11409F31BC0D11499F0053008F073CF96
:10419000CF7181E090E002C0880F991FCA95E2F7C5
:1041A000EC0180916A0690916B068C279D27A9CF20
:1041B0000630ECCF8C2F8F71D110C5CF0E94D40662
:1041C0005ACF80E090E0D11409F49BCFCF7181E009
:1041D00090E002C0880F991FCA95E2F792CFD114E0
:1041E00061F08C2F8F7192FFE9CF982F990F990F63
:1041F000990F936090936C06E1CF81E00E94830752
:10420000023008F438CF82E00E94830734CF8C2F2D
:104210008F71D4CF011571F0D93349F48FEF97EE38
:1042200023E0815090402040E1F700C000008D2F36
:1042300034D821CF8C2F8F7186CFC6319CE7D90718
:1042400009F0FCCC80915C0665E3811101C069E254
:1042500088EB92E00E94B70C16C090916506C631BB
:104260002CE7D20709F0DECC9A7A81E0911101C0E7
:1042700080E080935C0665E3911101C069E288EB00
:1042800092E00E949C0C0E94220FCECB8091B0063F
:10429000803170F48091AF06811551F0E091710684
:1042A000209170063091AB064091AA062E1301C0F2
:1042B0000895BF0187E0E89FF0011124DF01AE58A7
:1042C000B94F14968C911497811551F111968C91D8
:1042D0001197831325C08C91841322C015968C915D
:1042E000159781111DC012968D919D91A091AC06DC
:1042F000B091AD068A1B9B0B883C910588F4809198
:10430000B0068F7080618093B006E858F94F8081C5
:104310008F70806180838AEA96E066DB0C9479076F
:104320006F5F7F4FFB01E770C1CFADE0B0E0EBE91D
:10433000F1E20C94252C8C0186E0F801DE01189640
:1043400001900D928A95E1F7F801F580C4808AEA20
:10435000882E86E0982E7090AE0671101FC0C11492
:10436000D1F0F11409F415C1C8010E94FB098115AF
:1043700009F40FC187E0F801D40101900D928A95EC
:10438000E1F78C2D813031F48091AA069091AB0633
:104390000E94F1097BDFFF24F39453C0E080A280E8
:1043A000B380D090AF068091AC069091AD06950198
:1043B000281B390BD11409F4B5C0283C310508F08D
:1043C0008DC0C11441F39091AB06C1808091B006BD
:1043D000803108F056C0C91213C09091AA069E11F0
:1043E0000FC0F11048C08F7080618093B0068AEAD8
:1043F00096E0FADA8091B006F8018683F12C21C0AC
:10440000F11039C040E06C2D8E2D0E945A0740E01B
:104410006C2D8E2D0E945A07F82E8111EFCF8885C2
:1044200099850E94F109292F22952F70903470F4FC
:104430009F70223098F09115A9F0F8019681903183
:1044400088F48F2D2D96EDE00C94412C2A5F2F706F
:10445000223060F0C801C8DAFD2CF3CF911511F0BD
:10446000811579F3805E883060F3F4CF803F48F3A4
:10447000815F8330F9CF8091B00681608093B00670
:10448000BDCFC91207C09091AA069E1103C0F114B6
:1044900009F469C0C8010E94FB09811509F479C0BB
:1044A000F11409F476C08091B006803270F020914A
:1044B000AA063091AB0629833A83AB82BC827D8207
:1044C0001E828F83CE0101968FDA87E0F801AAEA77
:1044D000B6E001900D928A95E1F75CCF8091B0062D
:1044E000803148F48AEA96E07FDAF40187E011929D
:1044F0008A95E9F783CFC11409F44DCF2091AB061B
:1045000091812913C7CF9091AA069E11C3CFF110B4
:10451000C1CF8683C80168DAF40187E011928A95D9
:10452000E9F739CF283C310500F7C11409F433CF3E
:10453000F11479F19091AB068181981320C080919C
:10454000AA068E111CC08091B00680FD0FC080317C
:1045500068F08683807F803F39F08681982F907F36
:10456000905F8F70892B8683C8013EDA87E0F8015F
:10457000AAEAB6E001900D928A95E1F70CCFC80146
:104580000E94FB098111A1CF8091B00681608093C8
:10459000B006C80129DAFFCEABE1B0E0E2EDF2E20D
:1045A0000C942E2C4E8B5F8B688F798F8A8F192FEE
:1045B0009B8F911110926F061D8A86E0FE01769600
:1045C000DE011F9601900D928A95E1F70A8D011583
:1045D00061F00B8B1C8B61E0CE010F960E94D60917
:1045E00061E0CE010F960E94D6090B8B1C8B87E0F1
:1045F000FE013F96DE01189601900D928A95E1F733
:10460000CE01089692DE81112EC020917006309165
:10461000710687E0AE01485F5F4FFA0147505109CC
:10462000DA0101900D928A95E1F78C858115D9F018
:10463000822F90E08395877090E0AC0134171506C7
:10464000E1F097E0929FD0011124AE58B94F9E013E
:104650002F5F3F4FF90101900D929A95E1F740933A
:1046600070060E94790780917106909170068913F7
:1046700011C06B96E4E00C944A2C0E94B41910927D
:10468000700610927106EAEAF6E087E011928A95C8
:10469000E9F7E9CF27E0829FC00111248E58994F96
:1046A00044DE811531F38091710690917206019676
:1046B000877080937106D7CFA6E0B0E0E2E6F3E220
:1046C0000C942E2C0E940F148C0180913206909134
:1046D00033068017910771F019821A820E940F1415
:1046E000BC0149815A8180E090E056DF0093320698
:1046F000109333062696E4E00C944A2CCDB7DEB72F
:1047000028970FB6F894DEBF0FBECDBF85B780687F
:1047100085BF85B7806885BF84B7877F84BF0FB6A4
:10472000F894A89580916000886180936000109251
:1047300060000FBE80E890E00FB6F89480936100AF
:10474000909361000FBE81E080930F0186E29AE0B2
:104750008093B6029093B7020E941A0E0E94CB0D6E
:104760008091E20084608093E20078948091A705B4
:10477000811599F08091E9001091EC008F7010FB89
:10478000112717F9182B1092E9008091E80083FD9A
:104790000E94EA191F701093E90082E084BD93E043
:1047A00095BD9AEF97BD80936E0010922E061092E1
:1047B0002F0610923006109231068091D800806149
:1047C0008093D8008AE18A95F1F700C08091D900E2
:1047D000182F117080FD04C00E941A0E1092A705B8
:1047E00010932C0684988C988FE891E00197F1F74C
:1047F00000C0000088277C99839580932D068093C4
:10480000140180912C068111B8D6E7E0F6E088E02B
:1048100011928A95E9F78091140191E08927880F18
:104820008093BD058091140182E08093C205809140
:1048300014018091140181110CC082E38093120154
:1048400086E38093100185EF8093130184E98093C0
:10485000110110E060E0812F0E94860B61E0812F42
:104860000E94860B812F11E08130A1F78FE891E043
:104870000197F1F700C0000010E08091C205181701
:1048800008F4BBC08091140181111FC081E38093A3
:104890006C0187EF80936D0186EF80936E0183E357
:1048A00080936F0185E0E4E7F1E09E012F5F3F4FC9
:1048B000D90101900D928A95E1F785E0F901A7E60B
:1048C000B1E001900D928A95E1F78091140191E099
:1048D0008927880F880F8093230694E0981B909374
:1048E000170657E6E52E51E0F52E0CE611E0F7012C
:1048F00081917F018F3F11F00E94280A0E151F053C
:10490000B1F74CE6E42E41E0F42E00E711E0F701A8
:1049100081917F018F3F11F00E94280A0E151F051B
:10492000B1F7EBE1F6E088E011928A95E9F7E4E26D
:10493000F6E088E011928A95E9F780E090E00E9425
:10494000B32C833E9E4F69F163EE7EEF80E090E0F2
:104950000E94E12C60E082E090E00E94C72C81E0A0
:1049600090E0809368061092690661E083E00E94FF
:10497000C72C60E074E184E090E00E94E12C0E948A
:10498000631160E070E0AB018FE090E00E94D92CF1
:1049900060E070E0AB0183E190E00E94D92C0E94BE
:1049A000581182E090E0D7D78093B00584E090E082
:1049B000DAD780936D0690936E060E9424148FEFD1
:1049C00096E721E0815090402040E1F700C00000D0
:1049D0000E942414E0912D0611E0E127EE0FEE0F66
:1049E000F0E0E55EF94F808184FF19C06FEF7FEF43
:1049F00080E090E0E6D70E94910E60E0812F0E9457
:104A0000A60B082F61E0812F0E94A60BE12FF0E09A
:104A1000E254FA4F880F802B80831F5F2ECF83E0F4
:104A200090E099D790E00E94CA060E94C30B1093B1
:104A3000980348E050E067E170E08DE596E07BD7B1
:104A40001092980380915D06843010F40E946311E7
:104A500083E08093A40580E28093A30529D46BE0D2
:104A600070E085E89BE00E94F5128115E9F18091E4
:104A7000A40565E070E081FDC6C080E89BE00E946F
:104A8000F512811589F16DE070E08EE69BE00E94E1
:104A9000F512811549F10E94C60CDC01CB01805A48
:104AA0009541AF4FBF4F80939F059093A005A09372
:104AB000A105B093A205EDE9F3E0DF0180E092E00B
:104AC0001D920197E9F7E0939B03F0939C038FEF0E
:104AD0009FEF8093990390939A0381E080939E05C2
:104AE0008093C80510929D0580912C06811101C00C
:104AF00047D585E191E08093340690933506B12C3B
:104B0000A12ECE0101968F8398878091A70500E1A1
:104B100010E422E1F22E853009F4D0C00E94241462
:104B200091EBC92E95E0D92E8BE196E01C01FC019A
:104B3000D6019D91808129EB35E02A173B0709F4C6
:104B4000C7C031969817A9F340902C0688EAE82E42
:104B500085E0F82E912CF10181901F01F6018191E1
:104B60006F01881509F442C08825582E00E010E036
:104B700077247394872D852189F1672C682041144F
:104B8000F9F0F701808190E09501002E01C0220F1D
:104B90000A94EAF78223892B99F409839A820E9466
:104BA0000F148B839C8381E08D8391E0611001C0A1
:104BB00090E09E8349815A816B817C818D81ECDC00
:104BC00061100CC08A2D002E01C0880F0A94EAF7EC
:104BD000982F9095F701808189238083770C0F5F50
:104BE0001F4F0530110531F6F601829293948FEF35
:104BF000E81AF80A892D883009F0ADCF0E94D20C4E
:104C0000DD24D39469C08BE79BE039CF8091A70561
:104C1000843039F10E9479110E9424131092A50565
:104C200088E190E00FB6F894A895809360000FBEDD
:104C30001093600083B7817F846083BF83B78160F6
:104C400083BF7894889583B78E7F83BF0FB6F8941F
:104C5000A895809160008861809360001092600048
:104C60000FBE0E942414EBE1F6E0A8EAB5E080E074
:104C700021912D9391E0211101C090E0892B96E0C4
:104C8000E332F907A9F78115C9F08091A6058115CE
:104C9000A9F009BDF9BC09B400FEFDCF8091D80090
:104CA0008F7D8093D8008091E00082608093E00047
:104CB0008091E00081FDFCCF0E94B4198091A7058E
:104CC000853009F4A3CF0E94B4190E943B0C26CF73
:104CD00098133ACFF1DCD12C0E947911F0902C0678
:104CE000F11419F00E948719F82E8091D5058115CD
:104CF00051F01092D5058091090680930A068091A3
:104D0000070680930806E12C38C061E08E2D0E94D2
:104D1000A60B182F60E08E2D0E94A60B110F812B81
:104D20000E2D10E0D801A254BA4FEC919E2F937033
:104D3000891711F1EE0FEE0FE82BEC938091BD0572
:104D40008E0DEF70F0E0E85CFD4F07541A4FC08005
:104D5000F8019081C90E9C2D60E094301CF49D3FB9
:104D60001CF461E00E94660B8C2DCC0C990B64E066
:104D700070E0A9D5F8018083E3948091C205E8161C
:104D800020F280912C06811519F00E948719F82ACB
:104D9000F11439F00E94D20C0E94DA150E9402131D
:104DA00004C00E94DA15D110F9CF86E0E5E5F6E0FF
:104DB000AF81B88501900D928A95E1F790905606E3
:104DC000D090570610915806C090590600915A0687
:104DD00010925706109258061092590610925A06D1
:104DE000812F8D2909F441C0E090C505F090C605DA
:104DF0000E940F148E199F099C01909153069115E2
:104E000009F4B1C02531310580F19F3F19F09F5F52
:104E100090935306D11459F00E94F60B91E01D14A3
:104E20000CF09FEF899F802D112480935706111558
:104E300059F00E94F60B91E011160CF09FEF899F3C
:104E4000802D11248093580680915706811569F0B2
:104E5000F0905806F11449F00E94E80B8093570631
:104E60008F2D0E94E80B80935806802F8C2909F41F
:104E700041C0E090C305F090C4050E940F148E1944
:104E80009F099C0190915206911509F467C0213544
:104E9000310580F19F3F19F09F5F90935206C11436
:104EA00059F00E94160C91E01C140CF09FEF899FA2
:104EB000802D112480935906011559F00E94160C7B
:104EC00091E010160CF09FEF899F802D11248093A4
:104ED0005A0680915906811569F0F0905A06F1142E
:104EE00049F00E94E80B809359068F2D0E94E80B31
:104EF00080935A0680915606981219C080915706E1
:104F0000811511F08D1113C020915806211511F053
:104F100012130DC090915A06911511F0091307C094
:104F200030915906311103C0822B892B11F00E9458
:104F3000131886E0EF81F885A5E5B6E001900D92A3
:104F40008A95E1F70E943B0C9091C705891709F4F7
:104F5000DCCD8093C7050E94C60CD7CD2B30310520
:104F600008F09ACFC7CF2B30310508F050CF7DCF56
:104F700078941F921FB61F9211248F939F93AF9323
:104F8000BF938091D3029091D402A091D502B091A9
:104F9000D6020196A11DB11D8093D3029093D40235
:104FA000A093D502B093D602BF91AF919F918F91FC
:104FB0001F901FBE1F9018951F920F920FB60F9251
:104FC00011242F933F934F935F936F937F938F930E
:104FD0009F93AF93BF93EF93FF938091E10082FF84
:104FE00009C08091E20082FF05C08091E1008B7FC3
:104FF0008093E1008091DA0080FF24C08091D80086
:1050000080FF20C08091DA008E7F8093DA0080914B
:10501000D90080FFA9C080E189BD82E189BD09B4C2
:1050200000FEFDCF81E08093A7058091C20281112F
:1050300009C00E941A0E0E94CB0D8091E20084608C
:105040008093E2008091E10080FF1AC08091E2002D
:1050500080FF16C08091E2008E7F8093E2008091F5
:10506000E20080618093E2008091D80080628093AA
:10507000D80019BC85E08093A70583E080930F01D9
:105080008091E10084FF2FC08091E20084FF2BC05B
:1050900080E189BD82E189BD09B400FEFDCF809128
:1050A000D8008F7D8093D8008091E1008F7E80931F
:1050B000E1008091E2008F7E8093E2008091E20027
:1050C00081608093E2008091C102811509F452C091
:1050D00084E08093A7058091A705843009F052C031
:1050E00082E080930F018091E10083FF2CC08091CA
:1050F000E20083FF28C08091E100877F8093E10078
:1051000082E08093A7051092C1028091E1008E7F1A
:105110008093E1008091E2008E7F8093E200809195
:10512000E20080618093E20042E060E080E00E9463
:105130004B0D8091F00088608093F00081E08093B7
:105140000F0180930E01FF91EF91BF91AF919F915D
:105150008F917F916F915F914F913F912F910F9020
:105160000FBE0F901F90189519BC1092A7051092B2
:10517000C20268CF8091E30087FF02C083E0A9CF1D
:1051800081E0A7CF81E0ADCF1F920F920FB60F92B3
:1051900011241F932F933F934F935F936F937F93AC
:1051A0008F939F93AF93BF93CF93DF93EF93FF932F
:1051B000E9EEF0E080811091EC008F7010FB112778
:1051C00017F9182B1082C0EFD0E08881877F888381
:1051D00078940E94EA19E9EEF0E0108288818860F4
:1051E00088831F701083FF91EF91DF91CF91BF9162
:1051F000AF919F918F917F916F915F914F913F916F
:105200002F911F910F900FBE0F901F901895EF9246
:10521000FF921F93CF93DF93182FEB011092BC00E6
:1052200084EA8093BC000E940F147C018091BC0032
:1052300087FF26C08091B900887F883029F080914F
:10524000B900887F803189F51093BB0084E8809392
:10525000BC000E940F147C018091BC0087FF1EC01F
:105260002091B900287F80E090E0283189F081E02A
:1052700090E0203409F480E091958195910908C06F
:10528000C7010E941B14C817D90780F68EEF9FEF45
:10529000DF91CF911F91FF90EF900895C7010E9479
:1052A0001B14C817D907C0F6F1CF8FEF9FEFF0CFCF
:1052B0001092B9008CE08093B80008950F931F936B
:1052C000CF93DF93EB018093BB0084E88093BC0015
:1052D0000E940F148C018091BC0087FF10C02091A8
:1052E000B900287F81E090E0283209F480E09195B0
:1052F00081959109DF91CF911F910F910895CF3F33
:10530000DC0749F3C8010E941B14C817D90718F716
:105310008EEF9FEFEFCFA0E0B0E0E0E9F9E295C2B9
:10532000982E862E772E6A0179010E940F145C0157
:1053300084E1E816F10410F18FEFE816FE0409F19C
:10534000C70164E170E068D2162F072F612F702F1C
:10535000892D5DDFEC01892BB1F4082D172DC00ECE
:10536000D11E0C151D0511F02097C1F084E9809322
:10537000BC00CE01CDB7DEB7EDE083C211E000E0A6
:10538000E5CF15E0FCCF8FEFE816FE04F9F2C5017A
:105390000E941B14E816F906C8F6DFCFB701F80122
:1053A00081918F018BDFEC01DCCFA0E0B0E0EAED72
:1053B000F9E24BC2982E862E772E6A0189010E944F
:1053C0000F145C010431110500F10F3F100701F1CA
:1053D000C80164E170E020D2EB01BE01892D17DF26
:1053E0007C01892BB9F4C82DD72DCC0EDD1ECC1530
:1053F000DD0519F0E114F104B9F084E98093BC00F3
:10540000C701CDB7DEB7EDE03CC2C1E0D0E0E5CFEB
:10541000C5E0FCCF0F3F100701F3C5010E941B142C
:1054200008171907D0F6DFCFFE018491B80146DFD7
:105430007C012196DCCFA0E0B0E0E0E2FAE204C219
:10544000982E862E742E652E6901E8010E940F1495
:105450005C010431110508F10F3F100711F1C8017B
:1054600064E170E0D9D1F62EE72E6F2D7E2D892DC7
:10547000CEDE8C01892BC1F0CF3FDC07B1F3C50133
:105480000E941B14C817D90780F784E98093BC00D9
:10549000C801CDB7DEB7EEE0F3C1FF24F394E12CF1
:1054A000E4CF85E0F82EFBCFBE01882D07DF8C010D
:1054B000E72CF62CCE0CDF1CEC14FD0431F30115A7
:1054C000110519F7BE01F70181917F01F7DE8C010B
:1054D000F3CF8EE14A9B02C08150E1F74A9BFECF99
:1054E00008955A9880E28A95F1F75A9A0895FC0136
:1054F0008BE08A95F1F728E080E090E031E040E130
:105500004A95F1F7880F4A9B02C08160932742E0D9
:105510004A95F1F7000040E14A95F1F7215079F7FB
:1055200020E12A95F1F729B132E03A95F1F7000030
:1055300030E13A95F1F731E022FD93272081920F77
:1055400090830895A1E0B0E0E7EAFAE285C119820C
:105550008C017C01E60EF11CBCDFCE010196C7DF99
:10556000F80181938F01EE15FF05B1F781E0998174
:10557000911180E02196E6E08BC1529A5A9A0895E3
:1055800052985A9AEA9AE9E6F0E080818F7C80830B
:1055900008956150770B91E001C0990F6A95EAF781
:1055A000692F90E021E0611108C0911591F05A9A9D
:1055B00080E28A95F1F75A980895362F382339F00A
:1055C0005A9A922730E23A95F1F76695ECCF5A98BD
:1055D000F9CF5A98EDCFFF920F931F93CF93DF939C
:1055E000EC018C01060F111D8991F82E7ADF68E01D
:1055F0008F2DCFDFC017D107B9F7CDB7DEB7E5E004
:1056000048C11F920F920FB60F9211240F931F9350
:105610002F933F934F935F936F937F938F939F93BA
:10562000AF93BF93EF93FF93CF93DF930F92CDB7D9
:10563000DEB719824EDFCE01019659DF082F06959D
:1056400006950695282F22952570902F9570920F1C
:10565000292F237096959695920F98279770898198
:10566000892B09F055C00A3008F052C080E18A95B4
:10567000F1F75A9A529A82E08A95F1F700C05A9847
:1056800088E0089F80011124D801A15EBE4F1696C4
:10569000ED91FD911897309791F0609148027091CB
:1056A000490214962D913D91260F371F15978D9124
:1056B0009D91680F791F4C9113978C910995F80172
:1056C000E15EFE4F6381611549F0209148023091FF
:1056D000490284819581820F931F7DDF02DF80E183
:1056E0008A95F1F75A9852985A9A80E18A95F1F77B
:1056F000F801E15EFE4F6081611549F0209148029A
:105700003091490281819281820F931F1BDFE1DE7C
:105710000F90DF91CF91FF91EF91BF91AF919F914A
:105720008F917F916F915F914F913F912F911F9139
:105730000F910F900FBE0F901F9018950F931F930E
:10574000CF93DF93EC010A970CF05EC0F894529A65
:105750005A9885E08A95F1F700009C2F96959570F0
:105760008C2F8570980F892F837096959695292F89
:1057700093E0CC0FDD1F9A95E1F7280F822F8C2B39
:10578000082FAFDE00C068E0802F03DF80E18A953C
:10579000F1F752985A9A4A9B30C087E090E04A99B4
:1057A0002EC0FE01E15EFE4F6381611559F020912C
:1057B00048023091490284819581820F931FC2DE95
:1057C0008115F9F086DE80E28A95F1F75A98529AAF
:1057D00080E18A95F1F7C15EDE4F6881611549F07D
:1057E000209148023091490289819A81820F931F4A
:1057F000F2DE77DE789481E008C000C0CCCF01975C
:1058000049F4529A5A9A789480E0DF91CF911F918F
:105810000F91089500C0C3CFAA1BBB1B51E107C065
:10582000AA1FBB1FA617B70710F0A61BB70B881F30
:10583000991F5A95A9F780959095BC01CD010895BF
:105840002F923F924F925F926F927F928F929F9290
:10585000AF92BF92CF92DF92EF92FF920F931F937E
:10586000CF93DF93CDB7DEB7CA1BDB0B0FB6F8942F
:10587000DEBF0FBECDBF09942A88398848885F846F
:105880006E847D848C849B84AA84B984C884DF80E0
:10589000EE80FD800C811B81AA81B981CE0FD11DC4
:1058A0000FB6F894DEBF0FBECDBFED010895992766
:1058B00078E0880F991F961708F0961B881F7A9535
:1058C000C9F78095089597FB072E16F4009406D02B
:1058D00077FD08D0A1DF07FC05D03EF490958195B7
:1058E0009F4F0895709561957F4F0895EE0FFF1FAC
:1058F0000590F491E02D0994FB01DC0102C00590B4
:105900000D9241505040D8F70895FB01DC0104C0CE
:105910008D910190801921F441505040C8F7881BA7
:10592000990B0895FB01DC0102C001900D924150DA
:105930005040D8F70895DC01CB01FC01F999FECF66
:1059400006C0F2BDE1BDF89A319600B40D92415007
:105950005040B8F70895F999FECF92BD81BDF89AED
:10596000992780B50895A8E1B0E042E050E0E5CF86
:10597000DC01A40FB51F4150504040F0CB01840F13
:10598000951F2E9105D041505040D8F70895262FED
:10599000F999FECF92BD81BDF89A019700B4021625
:1059A00039F01FBA20BD0FB6F894FA9AF99A0FBED3
:1059B00008950396272FECDFEADF252FE9DF242F58
:1059C000E7CF0196272FE4DFE2CFF894FFCF471807
:1059D0004D18501856186B186B186B186B186B18FD
:1059E0006B186B186B1859185E18621868187818BD
:1059F0007E188218CB1AF11AF71AF11AF71A461BF9
:105A0000691BF71A5A1C671C2C1D301D101D281D00
:105A1000341D381D3C1D9E1D041EA61D711D751DC7
:105A2000AA1D791DAE1DBA1D851DFD1D891DBE1D3A
:105A30008D1DC21DE61D911DC61DED1D961DCB1DA4
:105A4000D31D7D1DB21D811DB61D9A1DCF1DDD1DEF
:105A5000F51DFB1D6B1DA21D0B1E2C1E2F1E611E96
:105A6000341E661E391E6B1E3E1E701E431E751EA2
:105A7000481E571E2C1E2F1E611E341E661E391E08
:105A80006B1E3E1E701E431E751E7A1E7F1E271F34
:105A9000271F5D1F5D1FE61F0220841F841F062035
:065AA0009520A620A620BF
:105AA6000021007F22000300FF00FFFF000001002D
:105AB6003432353301C30CEF0EED0C020F070F0025
:105AC60000000100000000000000040100000004C6
:105AD60005000000000000000000010900000000B1
