:10000000B7C60000EEC60000ECC600000C94172B2B
:10001000E8C60000E6C60000E4C60000E2C6000034
:10002000E0C60000DEC600000C94F2270C94DA282B
:100030000C941A14D6C60000D4C60000D2C6000024
:10004000D0C60000CEC60000CCC60000CAC6000064
:10005000C8C600000C94CE27C4C60000C2C600006B
:10006000C0C60000BEC60000BCC60000BAC6000084
:10007000B8C60000B6C60000B4C60000B2C6000094
:10008000B0C60000AEC60000ACC60000AAC60000A4
:10009000A8C60000A6C60000A4C60000A2C60000B4
:1000A000A0C600009EC600009CC600000501090213
:1000B000A10185020901A1000509190129081500FE
:1000C0002501950875018102050109300931158165
:1000D000257F95027508810609381581257F9501D0
:1000E00075088106050C0A38021581257F95017572
:1000F000088106C0C005010980A101850319012AF4
:10010000B700150126B700950175108100C0050CD8
:100110000901A101850419012AA002150126A002E6
:10012000950175108100C005010906A10105071997
:10013000E029E715002501950875018102950175F3
:100140000881010507190029FF150026FF00950603
:100150007508810005081901290515002501950577
:1001600075019102950175039101C009023B0002DE
:100170000100A0FA09040000010301010009211196
:100180000100012244000705810308000109040160
:10019000000103000000092111010001227B00077A
:1001A00005820320000112010002000000081D8DDD
:1001B00017EC0001010200012403410075007200E8
:1001C0006F00720061002000530077006500650039
:1001D00070002000720065007600310000001803F6
:1001E000730070006C00690074006B0062002E00E8
:1001F00063006F006D000000040309042020005319
:1002000020002020004320002020004E2000ABAC26
:1002100000CFD000C600CA00C800CC00A9AA00B117
:10022000B2008B8C00CDCE00C500C900C700CB004A
:10023000898A00919200A7A800AFB000C600CA004A
:10024000C800CC00A5A600ADAE008788008F900046
:10025000C500C900C700CB008586008D8E002094A4
:1002600095962020B4B5B62020D4D5D62000209D68
:100270009E9F2020BDBEBF2020DDDEDF2000209716
:1002800098992020B7B8B92020D7D8D92000209A33
:100290009B9C2020BABBBC2020DADBDC2000202085
:1002A00020202000737765657000000000E000F8F2
:1002B000C0F8E0C0FC007E180080000280F000C0A2
:1002C00080F8C0E070603C383C1C003F0C0F1F03FE
:1002D0000701C300E08000E080F880C0F7C76F7BB3
:1002E0003930008000C000C0C2E000403830381E05
:1002F000181E0F0C07070703032121313018181CA3
:10030000080C0E07060703C303014CCCC2C24149C7
:10031000092B2A6A6E2424049292B1F1F1F2E6A428
:10032000A4040428282828282828000000100000F9
:100330000000000000081C08000000000000000091
:10034000020000000000100000000000000020007B
:1003500000000000000000020040E040000000003B
:100360000000040000000080C080C0800000000089
:100370000000E0008000F00000C00000000000006D
:10038000004000000000000001008100C000FE00ED
:10039000FC00FF20FFF00FF000FF00000000100045
:1003A000000000009000F80000F8FF10FF84FF60DC
:1003B000FF36FF0FFF3F005F000580008000C03860
:1003C00000ECF000FB80FFF0FFEFFFE8FF03FF0C05
:1003D000FF00FF00030000F80080FF20FFD0FFE0D7
:1003E000FEF8FFFCFFFF0FFF013FFF000F000100C1
:1003F0000300FE80FE00C0FFC4FBFFFEFFFFFF3FC7
:10040000FFFF07FF033F000FC0000000B800FF40E0
:10041000BEF0FFF1FFFEFFFFFFFF1FFF6700EF00D1
:100420001F0000070000E000FFF0FF88FFC4FFF896
:10043000FFFFFFFFFFFF8F7F0FFF0007FE0007009A
:10044000000000F800C03FF8E7FFFFFFFF1FFFFFBD
:100450001F3F01FF0B00FF000005000000E000F857
:100460006080FEE3FCFF1EFFFF23FF09FF20003F2B
:100470000200000F004000C000FCE0FCF0FFFF7F26
:10048000FCFF0FFF071F00010F000F0081700CF031
:10049000800000E4F8E6703FCFFF1FFF48FF0F0029
:1004A0000700004360F8F0FE38FE00FC0300C8724D
:1004B000CFFC00030F01E01CE003000F0000000070
:1004C000000000F806F900030007FF001012C9F051
:1004D000CFB47F80E01E0140655EE00000F00CF0CC
:1004E00000807E018093FCC000000000000089189D
:1004F0002C46000721101080091331BFFF00081A95
:10050000F70F0000444534BFB80010F008F418118C
:10051000FC18FB0E10F804F810201809FF0CEA1F55
:10052000286030F820C04233210000AE00AF000048
:10053000000000003E5B4F5B3E003E6B4F6B3E0099
:100540001C3E7C3E1C00183C7E3C18001C577D570E
:100550001C001C5E7F5E1C0000183C180000FFE7BA
:10056000C3E7FF00001824180000FFE7DBE7FF00E7
:1005700030483A060E00262979292600407F0505D5
:100580000700407F05253F005A3CE73C5A007F3E6C
:100590001C1C0800081C1C3E7F0014227F22140033
:1005A0005F5F005F5F0006097F017F00006689953D
:1005B0006A0060606060600094A2FFA2940008047A
:1005C0007E04080010207E20100008082A1C080065
:1005D000081C2A0808001E10101010000C1E0C1E0B
:1005E0000C0030383E383000060E3E0E060000008B
:1005F0000000000000005F0000000007000700008E
:10060000147F147F1400242A7F2A12002313086405
:100610006200364956205000000807030000001C05
:10062000224100000041221C00002A1C7F1C2A00DD
:1006300008083E080800008070300000080808081C
:1006400008000000606000002010080402003E5115
:1006500049453E0000427F4000007249494946003A
:100660002141494D33001814127F1000274545459C
:1006700039003C4A494931004121110907003649F6
:1006800049493600464949291E000000140000006F
:100690000040340000000008142241001414141417
:1006A00014000041221408000201590906003E41CD
:1006B0005D594E007C1211127C007F494949360079
:1006C0003E41414122007F4141413E007F4949492D
:1006D00041007F09090901003E41415173007F0833
:1006E00008087F0000417F4100002040413F010099
:1006F0007F08142241007F40404040007F021C02DE
:100700007F007F0408107F003E4141413E007F0989
:10071000090906003E4151215E007F091929460062
:1007200026494949320003017F0103003F40404010
:100730003F001F2040201F003F4038403F0063140F
:10074000081463000304780403006159494D430011
:10075000007F414141000204081020000041414156
:100760007F000402010204004040404040000003BA
:10077000070800002054547840007F284444380083
:10078000384444442800384444287F0038545454A2
:10079000180000087E0902001824241C78007F0835
:1007A0000404780000447D4000002040403D0000EB
:1007B0007F102844000000417F4000007C04780442
:1007C00078007C08040478003844444438007C18DD
:1007D00024241800182424187C007C080404080031
:1007E00048545454240004043F4424003C40402016
:1007F0007C001C2040201C003C4030403C00442831
:10080000102844004C9090907C004464544C440068
:100810000008364100000000770000000041360863
:1008200000000201020402003C2623263C000000D6
:10083000000000000000C0E0F0F8F81800C0F0FC74
:10084000FEFFFFFFFFFFFFFF7E00000000F8042215
:1008500052E2424242E252222222428202022222F8
:100860000204F80000F804020282422242820202DC
:1008700002824222122242820204F80000F8FCDEC8
:10088000AE1EBEBEBE1EAEDEDEDEBE7EFEFEDEDE08
:10089000FEFCF80000F8FCFEFE7EBEDEBE7EFEFE24
:1008A0000000000000008080404020201010080858
:1008B00010102020404080808080C0C0E0E0F0F038
:1008C000F8F8F0F0E0E0C0C0808080804040202058
:1008D000101008081010202040408080808040C008
:1008E00060A050B058A850B060A040C0808000F810
:1008F000FCFEFFE000FFFFFFFFFFFF80FFFFFFFFA9
:10090000FFFFFFFFFF1F070100000000001F204442
:100910004A47424242474A444040404041424444A0
:1009200040201F00001F20404140404040404140C7
:1009300041414F4848484F4141201F00001F3F7B25
:1009400075787D7D7D78757B7F7F7F7F7E7D7B7BEE
:100950007F3F1F00001F3F7F7E7F7F7F7F7F7E7FE7
:1009600000000000000088885D5D3E3E7C7CF8F859
:100970007C7C3E3E5D5D88888888555523234747AB
:100980008F8F47472323555588888888D5D5E2E23D
:10099000C4C48888C4C4E2E2D5D5888888885DD577
:1009A0006BB66DD6ADDA6DD66BB65DD588880003B3
:1009B0000F1F3F3F3F3F1F1F3F3F7F7F7F3F3F1F37
:1009C0003F7F7F7F7F7C7878381C0F0004F8000021
:1009D000F804201F00001F20FCF80000F8043F1F4F
:1009E00000001F2004F80000F8FC201F00001F3F3B
:1009F000FCF80000F8FC3F1F00001F3FFE7EBEDE3B
:100A0000EEDEBE7EFEFCF8007E7E70777777707E2D
:100A10007E3F1F00000000000000000000000000FA
:100A200000000000000000000101020204040808A8
:100A3000040402020101000000000101020204049A
:100A40000808040402020101000000000101030380
:100A500007070F0F07070303010100000000010152
:100A6000030205060D0A050603020101000000014C
:100A7000010101010101010102020202020202025E
:100A80000203030303030303030404040404040430
:100A900005050505050606060606070707070708F4
:100AA000080808090909090A0A0A0B0B0B0C0C0CA7
:100AB0000D0D0D0E0E0E0F0F0F1010111111121241
:100AC00013131414151516161717181819191A1ABE
:100AD0001B1B1C1D1D1E1E1F20202122222324241F
:100AE000252626272829292A2B2C2D2D2E2F30315B
:100AF0003232333435363738393A3B3C3D3E3F406D
:100B00004142434445464748494A4C4D4E4F505157
:100B10005354555658595A5B5D5E5F616264656611
:100B200068696B6C6D6F7072737577787A7B7D7E98
:100B30008082838587888A8C8E8F91939596989AE8
:100B40009C9EA0A2A3A5A7A9ABADAFB1B3B5B7BA00
:100B5000BCBEC0C2C4C6C9CBCDCFD1D4D6D8DBDDD4
:100B6000DFE2E4E7E9EBEEF0F3F5F8FAFDFF00DA97
:100B70000281FFD9F1DB20A4A62EAF00A0C0D300D4
:100B800000A1C8D30000AED580A81F408D1420005E
:100B90001700150008001A0014000A0009000700D9
:100BA000160004220500190006241B281D212B42D3
:100BB0002C410000000000001C0018000C00120076
:100BC00013000B000D000E000F0033321100100057
:100BD00036343738383128432A44000000000000FA
:100BE00000000000000000002900000000000000DC
:100BF0000000E10000000000E200E300E00000006F
:100C0000000000000000000046004A0052004D00B5
:100C10004B004900500051004F004E000000000002
:100C200000000000000029004C000000000000004F
:100C30004052000000000000000000000000000022
:100C40000000E10000000000E200E300E00000001E
:100C500000000000000000003A003B003C003D00A6
:100C600000003E003F004000410000004200430001
:100C700044004500000000000000000000000000EB
:100C800037023602340035001E02270226022102F6
:100C90003100240230002F001F022D0223023002F7
:100CA0002F02000000000000000000000000000013
:100CB00000000000000000000000E500000000004F
:100CC000E600E700E4000000000000000000000073
:100CD000550020001F001E002202540023002200A5
:100CE000210067005700260025002400200256003E
:100CF0002700000000000000455200000000000036
:100D00004C000000000000000000E50000000000B2
:100D1000E6006338E400000000000000000000006E
:100D20000500130009001A0014000A00170016003D
:100D3000150004221900070006211B241D212B4247
:100D40002C4100000000000001000F0018001C00F2
:100D500033001000110008000C0012320E000B00CE
:100D600036383734383128432A4400000000000068
:100D700011241FBECFEFDAE0DEBFCDBF04B603FE05
:100D800019C08091B7069091B806A091B906B091AC
:100D9000BA068730904BA740B04B61F41092B7066B
:100DA0001092B8061092B9061092BA06E0E0F8E385
:100DB000099500C012E0A0E0B1E0E2EDFAE502C062
:100DC00005900D92AC3BB107D9F726E0ACEBB2E051
:100DD00001C01D92A73BB207E1F70E949E230C942D
:100DE000FB2C0EC980936E0690936F060895809336
:100DF000700690937106089521E030E002C0220F42
:100E0000331F8A95E2F78091700690917106822BCC
:100E1000932BEDCF21E030E002C0220F331F8A95E3
:100E2000E2F72095309580917006909171068223AB
:100E30009323DDCF983090F5853080F5E82FF0E0F2
:100E400085E0989FE00DF11D112451E0E1FD54E093
:100E5000E0FD550FE2FD529583E0F695E7958A9502
:100E6000E1F7EE0FFF1FEE0FFF1FEC5BF94F20E0E5
:100E700030E070E04191DF01CB01022E02C0969577
:100E800087950A94E2F78695880B84278523842723
:100E90008E932F5F3F4F2430310561F70895292F3E
:100EA000983070F5853060F590E035E0239F800D37
:100EB000911D1124682F677023E0969587952A95D8
:100EC000E1F7FC01EE0FFF1FEE0FFF1FEC5BF94F88
:100ED00040E050E080E0219130E0062E02C03695DF
:100EE00027950A94E2F72170042E01C0220F0A947C
:100EF000EAF7822B4F5F5F4F4430510561F7089549
:100F000080E00895E091770690917606E91302C09B
:100F100080E008959F0157E0E59FF0011124E85813
:100F2000F94F5181561306C05081581303C05581A3
:100F3000541305C02F5F3F4FF901E770E7CF81E001
:100F400008958091770620917606281301C00895B0
:100F500001968770FACF90917206809589238093CD
:100F60007206282F277061F4891751F0909174064A
:100F700092FF06C08695869586954CDF1092720684
:100F800008958095982F80916B06892380936B0636
:100F90000895972F7830C8F46530B8F48630C0F4DF
:100FA00070E025E0929F600D711D112498E2899FE9
:100FB000600D711D1124FB01EE0FFF1FE057F44F70
:100FC00085919591282F822F089520E090E0FBCF06
:100FD00021E0FCCF803E9105D1F1C8F48133910529
:100FE00009F481C048F48932910509F471C08A324C
:100FF000910509F47FC0089589339105E1F08238A5
:101000009105C9F08533910509F45DC00895843ECA
:101010009105D1F148F4823E910531F1833E91056D
:1010200041F181EE90E00895863E9105C1F1873E41
:101030009105F1F1089520917306237009F064C0C1
:101040002091740623FF14C089E290E00895209156
:10105000730620FD45C03091740630FF09C024FDA1
:1010600024C083EE90E008952091730622FDF7CF0F
:1010700008952091730622FD44C03091740630FD1E
:1010800043C024FFF5CF11C02091740621FFF0CF9B
:101090008091730684FD09C087EE90E00895209149
:1010A000730623FFE5CF24FFF7CF80E090E008959B
:1010B0002091730623FD2BC03091740631FFE1CFE0
:1010C00084EE90E008952091730625FFD1CFBCCF28
:1010D0002091730625FD1EC02091740623FFC8CF02
:1010E00089E390E008952091730626FFC1CF8AE23C
:1010F00090E008952091730626FFBACF81E390E037
:10110000089582EE90E0089580EE90E0089586EED6
:1011100090E0089585E390E008959091730692FF22
:1011200010C041E0282F2471243009F040E031E064
:10113000282F2871283009F030E0431711F02CE0F7
:10114000822793FF10C041E0282F2471243109F039
:1011500040E031E0282F2871283109F030E04317B2
:1011600011F02CE082273091740630FF10C051E05E
:10117000282F2171213009F050E041E0282F2871FB
:10118000283009F040E0541711F029E0822731FFA0
:1011900010C041E0282F2171213109F040E031E0F9
:1011A000282F2871283109F030E0431711F029E089
:1011B000822794FF02C083FD877E08950F931F93BB
:1011C000CF93DF9307DFEC01D23508F04DC0D03567
:1011D00008F0C3C0C03ED10530F5CD3CD10508F0C4
:1011E0009AC0C83AD10578F4C53AD10508F090C044
:1011F000C130D10599F1CE010497813A910570F182
:10120000C0E0D0E02BC0CE01885A91094B97C0F7BF
:10121000C85AD0E0CC0FDD1FC05BDD4F0990D881EC
:10122000C02DD4641BC0D03490F4D03208F0A8C0D4
:10123000C83ED10598F0CE0191509F3108F78D2F0F
:101240006CDF082F8C2F90E0C5DE902B54C08C2FC4
:1012500090E0C0DEDF70C82FD92BD06ACE01DF91BD
:10126000CF911F910F910895C03882E5D807B8F546
:10127000C03682E5D80708F056C0C03482E5D807EA
:10128000C8F4C03282E5D80708F047C08C2F869595
:10129000869520E2829FC0011124C37021E030E0D6
:1012A00002C0220F331FCA95E2F7E901C82BD92BE0
:1012B000DD68D4CF8C2F86958695877020E2829F3B
:1012C000C0011124C37021E030E002C0220F331F9F
:1012D000CA95E2F7E901C82BD92BDC68BFCFC03C27
:1012E00082E5D80750F48C2F8F71C03AD24580F533
:1012F000982F84EF906AEC01B1CFCE01805C9245CB
:10130000809708F07DCFDC2FDF71C0EFD06AA6CFC9
:10131000A497D064A3CFD065A1CF8C2F8F71D82F85
:10132000C1EFD06A9BCF8C2F86958695877020E27F
:10133000829FC0011124C37021E030E002C0220F5F
:10134000331FCA95E2F7E901C82BD92BDA6886CF9B
:10135000E4DEC0E0D82FD06281CF8C2F8F71DDDE2C
:1013600093E0CC0FDD1F9A95E1F7DF70282F84FF03
:1013700004C090E1899F90011124C22FD0696ECFE3
:101380008D2F8F71CADE082F8C2F90E023DE902BDB
:10139000EC01E1CFCF92DF92FF920F931F93CF9397
:1013A000DF936C01009170061091710680916E06BA
:1013B00090916F06082B192BCFE0D0E081E090E0F0
:1013C0000C2E02C0880F991F0A94E2F78023912304
:1013D000892B61F4219790F7F12C8F2DDF91CF911C
:1013E0001F910F91FF90DF90CF900895FC2EB601D2
:1013F0008C2FCFDDE3DE019769F3EFCF1F93CF93FF
:10140000DF93FC012581C081D181CE01211571F0CE
:10141000611561F0BFDF182F682FCE010BDDBE0113
:10142000812FB7DDDF91CF911F91089538DD182FFF
:10143000F6CFCF93DF93EC01ADDFBE01AADDBEDEB8
:10144000DF91CF910895FC012481211599F08081CD
:101450009181EFDF282F92959F70963099F060F47C
:10146000925F9F70923030F4203FB1F038F481E009
:10147000283E38F080E008959A5FF3CF81E0243F62
:10148000C9F7089591E0213F09F090E081E0283EFE
:1014900008F080E0892B089581E0089580E00895A8
:1014A000F894E82FE295EF70F0E041A18F7021E011
:1014B00001C0220F8A95EAF7922F9095942391A369
:1014C00092A1822F892B82A37894089581E0809342
:1014D000DB05089580919E03816080939E030895AB
:1014E000FF920F931F93CF93DF93182F062FF42EA5
:1014F00080E090E020913306EC012196211571F0F7
:10150000873120F42F2D402F612F6CD1CE01AE9763
:1015100089F7CDB7DEB7E5E00C945F2C873110F486
:10152000CE01E8CF4797EECF9AE0899F802D112416
:10153000982F965F9F3208F09EE22091330621118A
:1015400004C0873128F487E10895983108F097E1C5
:1015500008958091630691E0892780936306109235
:101560007001B8CF80916306837031F084608093FE
:10157000630610927001AECF089580916306837068
:1015800031F084608093630610927001A3CF0895B8
:1015900090916306937051F08093640660936506A2
:1015A000413808F040E84093660694CF0895E3E69A
:1015B000F6E0818190E0438162810896E9CFE3E61D
:1015C000F6E08181438162818850990BE1CFE3E6A7
:1015D000F6E0628120E1620F08F46FEF81814381C0
:1015E00090E0D6CFE3E6F6E0628120E1621B08F4EA
:1015F00060E08181438190E0CBCFE3E6F6E0438178
:1016000020E1420F08F44FEF8181628190E0C0CF6A
:10161000E3E6F6E0438120E1421B08F440E08181EB
:10162000628190E0B5CF2091670630E1230F08F486
:101630002FEF209367064ECF2091670630E1231BE2
:1016400008F420E02093670645CFE0916806EF3F5D
:1016500061F0E53061F0E23061F4EF5FF0E0E8570F
:10166000FE4F80818093680635CFE0E0F6CFE1E061
:10167000F4CFE0E0F3CFE0916806EF3F89F0E5308A
:1016800069F0E23019F0E1110DC0E3E0E150F0E063
:10169000E857FE4F8081809368061CCFE1E0F6CFCB
:1016A000E3E0F5CFE0E0F3CF0F931F93CF93DF9309
:1016B000A091A103B091A2039D01235A3340620F70
:1016C000731F613042E0740710F060E072E04091F7
:1016D0009F035091A003FC0101E010E0261737079B
:1016E00048F040939F035093A003DF91CF911F9147
:1016F0000F91089584919D91981789F0ED018A9337
:10170000C901C5E096958795CA95E1F7E80102C041
:10171000CC0FDD1F8A95E2F7CE014C2B592B2F5FA2
:101720003F4F3196DBCF90910F06292F30E070911B
:101730001006A9014395437050E07417150689F00F
:10174000235F394F60FB87F9F90184839F5F9370B2
:1017500090930F0680910D068F5F80930D0681E0B8
:10176000089580E0089590E06115D1F08F5E9E4F5E
:10177000FC0180818F3F99F0E82FE295EF70F0E057
:1017800041A18F7021E001C0220F8A95EAF7922FC4
:101790009095942391A392A1822F892B82A30895DF
:1017A0008D5E9E4FE5CF90E06115A9F08F5E9E4F54
:1017B000FC0120812F3F91F0E22FE295EF70E05E77
:1017C000F0E0808190E02F7002C0959587952A9572
:1017D000E2F7817008958D5E9E4FEACF80E0089514
:1017E000539A0895FC01EE0FFF1FE80FF91FED510A
:1017F000FD4F6183408322830895FC01680F791FA8
:101800008FEF41E39191892728E030E0982F990FDD
:1018100087FF09C0892F842721503040B9F7E61788
:10182000F70781F70895892FF7CF382F25EB32037B
:10183000C001112497FF04C080589109892F089591
:1018400080589F4FFBCF80915A0680FD14C081FDC8
:1018500014C082FD16C080915906811581F08E3129
:1018600080F420E5829FC00111246EE170E00E94A7
:10187000792C862F089584E1089588E2089588E000
:10188000089580E5089580915A0680FD17C081FD76
:1018900017C082FD19C080915806811599F08832D1
:1018A00098F428E0829FC001112468E270E00E9451
:1018B000792C6115710551F0862F089562E0FCCFF7
:1018C00064E0FACF61E0F8CF68E0F6CF81E00895F8
:1018D00080913206811571F0E0913A06F0913B0655
:1018E000309739F00190F081E02D309711F0099593
:1018F000089580E00895A3E0B0E0E1E8FCE00C94F6
:10190000462C2091DF023091E00228173907B1F010
:101910008093DF029093E002E0913A06F0913B065B
:10192000309761F00084F185E02D309739F023E0A5
:1019300029838A839B83CE01019609952396E2E051
:101940000C94622CA3E0B0E0E8EAFCE00C94462C96
:101950002091DD023091DE0228173907B1F0809323
:10196000DD029093DE02E0913A06F0913B0630975B
:1019700061F00084F185E02D309739F024E029836F
:101980008A839B83CE01019609952396E2E00C940D
:10199000622C9C01FC01329680E09FEF408146174B
:1019A00059F031969F3F19F4411101C0982F8F5F74
:1019B0008630A1F79F3F09F40895290F311D97FD47
:1019C0003A95F90162830895FC01329608962191B7
:1019D000261302C0DF011E92E817F907C1F7089528
:1019E00080910D0108952FB7F8946091D9027091FC
:1019F000DA028091DB029091DC022FBF0895809182
:101A00003206811539F0EFDF462F572FBC01CB018D
:101A1000BA010895E8DFDC01CB0140913406509112
:101A200035066091360670913706480F591F6A1FB8
:101A30007B1FEDCF0895FC012091CF023091D002A1
:101A40002617370748F06115710529F49091E800D1
:101A50009E779093E8009B0190E02115310541F4B9
:101A6000911106C08091E80082FF32C080E00895A5
:101A70008091AD058115C1F18530C1F18091E800FB
:101A800083FD30C08091E80082FDECCF8091E800BA
:101A900080FFE3CF8091F3004091F200582F211591
:101AA000310519F04830510558F091E048305105A2
:101AB00009F090E04091E8004E774093E800CDCFE8
:101AC00081918093F100215031094F5F5F4FE7CF43
:101AD0008091AD05811541F0853041F08091E8009D
:101AE00083FFC0CF81E0089582E0089583E00895E8
:101AF000982F9093E900891771F07091EC00209174
:101B0000ED005091F00021FD09C09F5F973089F7EB
:101B10008093E9000895762F242F50E03091EB0058
:101B20003E7F3093EB003091ED003D7F3093ED0030
:101B30003091EB0031603093EB007093EC00209318
:101B4000ED005093F0002091EE0027FDDECF0895C8
:101B50008091C90287FF13C08091E80082FF06C010
:101B60008091E8008B778093E80008958091AD051F
:101B70008111F2CF08958091AD058115D9F380913F
:101B8000E80080FFF8CF8091E8008E77ECCF2091BD
:101B9000E4003091E50095E6A9012091EC00822F48
:101BA000817020FF06C08091E80080FF06C080E0C1
:101BB00008952091E80022FD1AC08091AD0581159D
:101BC00089F0853089F08091EB0085FD0FC0209170
:101BD000E4003091E50042175307F9F29150E1F625
:101BE00084E0089582E0089583E0089581E00895F7
:101BF000CF93DF93C8EDD0E088818F7E8883E7EDB7
:101C0000F0E080818160808384E082BF81E0809306
:101C1000C80288818E7F8883E2EE10821092DA00FB
:101C2000A1EEB0E01C9288818F77888388818068DC
:101C3000888388818F7D888319BC1092AD051092AE
:101C4000C7021092AC051092C602A0EE8C918B7F59
:101C50008C9388818160888342E060E080E048DF87
:101C6000A1EEB0E08C918E7F8C93E2EEF0E080816B
:101C700081608083808188608083E0EE80818E7FB8
:101C80008083888180618883DF91CF910895E8ED1A
:101C9000F0E080818E7F80831092E2001092DA0063
:101CA0001092E100A0EEB0E08C9181608C93808175
:101CB0008F77808319BCA7ED8C918E7F8C93808168
:101CC0008F7E80831092C8020895A0E0B0E0EBE61A
:101CD000FEE00C943E2C7C016B015A0180911906A8
:101CE0000AE010E08A3010F001E010E0C1E0D0E03E
:101CF000B601C701F5010995811115C021960C1790
:101D00001D078CF0CC9F9001CD9F300D300D11241C
:101D100080E090E045E34A95F1F7000001968217D4
:101D20009307C1F7E5CFCDB7DEB7EAE00C945A2CA4
:101D30003BB1377F2BB128604FB7F89483EE92E028
:101D4000FC010196508168E02BB9000000C057FFEC
:101D50003BB9550F000000C000C000C03BB900C037
:101D60006A9591F753E08D36950751F74FBF8FE590
:101D700094E00197F1F700C00000089581E080939E
:101D8000E00080E28093D8001092C9008FE19EE4C9
:101D90000197F1F700C00000A7E0B0EBCD01809300
:101DA000B7069093B806A093B906B093BA0688E137
:101DB0009CE00FB6F894A895809360000FBE9093B6
:101DC0006000FFCF0F931F93CF93DF93EB018A0146
:101DD0009091AD05943059F58093E9008FEF909183
:101DE000E80095FD06C095ED9A95F1F70000815049
:101DF000B1F78091E80085FF1AC0C9DE811112C0D9
:101E00008091E80085FD06C08091E8008E77809380
:101E1000E800F3CF88818093F1000150104011F069
:101E20002196EECF8091E8008E778093E800DF91D5
:101E3000CF911F910F910895CF93DF93EC0148E06C
:101E400050E0BC0181E0BEDF88E0FE01A1EDB2E020
:101E500001900D928A95E1F7DF91CF91089546E0C8
:101E600050E0BC0182E0AECF43E050E0BC0182E034
:101E7000A9CF9091740692FB222720F9281771F0C0
:101E800080FB92F9909374066091730670917406CA
:101E900084E090E00E94F72C82E05DC80895809174
:101EA0006B0690917506892B90916C06911589F0BF
:101EB000892B90E020EC32E0F90140812F5F3F4F09
:101EC00041119F5F42E0263C3407B1F79111109217
:101ED0006C068093BE0248E050E06CE376E08EEB47
:101EE00092E00E949B2C892BB9F088E0EEEBF2E0A7
:101EF000ACE3B6E001900D928A95E1F7E0913A06E5
:101F0000F0913B06309741F00280F381E02D30974D
:101F100019F08EEB92E009950895811531F09091BA
:101F20006B06982B90936B06BACF0895811511F02C
:101F300028D8B5CF0895CF92DF92FF920F931F93C9
:101F4000CF93DF936901E801082F880F110B41152A
:101F50005105B1F0F80133E0EE0FFF1F3A95E1F7BC
:101F6000E15EFE4F8181928183519A4FE0812E2F55
:101F700030E04E17510508F49A01A9010E94A82CDF
:101F8000C8010E94B42BF82E8115E1F02097D1F002
:101F9000C80123E0880F991F2A95E1F7FC01E15E53
:101FA000FE4F2381422F50E0C217D10508F4AE0145
:101FB000815E9E4FFC016481758163517A4FC60139
:101FC0000E94A82C8F2DDF91CF911F910F91FF9030
:101FD000DF90CF900895A4E0B0E0E1EFFFE00C9433
:101FE000422CE090D705F090D8050091D9051091CA
:101FF000DA05F9DCDC01CB018E199F09A00BB10BCE
:1020000011E084369105A105B10500F1F8DCDC0191
:10201000CB010296A11DB11D89839A83AB83BC833A
:1020200000E010E0980144E050E0BE016F5F7F4F98
:1020300086E081DF182F811549F0D5DC6093D70544
:102040007093D8058093D9059093DA05812F249653
:10205000E6E00C945E2CA1E0B0E0E1E3F0E10C944A
:10206000362C662E2A01190168018D019E012F5F11
:102070003F4F40E050E0BA015EDF182F811591F12B
:10208000F20180809180A280B380ADDC79806819F4
:1020900079098A099B09643671058105910528F43F
:1020A000B701C601AADB8715E9F08701910140E07D
:1020B00050E0BA01862D3FDF082FB701C6019DDB36
:1020C00010E087110AC0102F117000FF06C08BDCD2
:1020D000F2016083718382839383812F2196E2E1F1
:1020E0000C94522CA701B601C1010E94A82CF5CF77
:1020F000A4E0B0E0EEE7F0E10C94402C6B017D0130
:102100000EEE15E09E012F5F3F4F49EE55E061E076
:1021100080E0A1DF811561F049815A816B817C816A
:102120004093E5055093E6056093E7057093E80555
:102130004091E5055091E6056091E7057091E8054D
:10214000F60140835183628373832496E8E00C9404
:102150005C2CA8E0B0E0EFEAF0E10C94422C7D01A9
:1021600007EF15E09E012F5F3F4F4DED55E064E016
:1021700083E071DF182F811591F19091F605809120
:10218000DC05981761F19091FA058091F90589179E
:1021900001F1E92FF0E0EF50FA4F828587FB6627C7
:1021A00060F99F5F93709093FA059091F8059F5F97
:1021B0009093F8058F77B7DAF82E8111E4CF00E01D
:1021C00010E09801A801B80185E0B5DEF8221F2DC6
:1021D00002C0F110F4CF8091F6058093DC05812FC9
:1021E0002896E6E00C945E2CA0E0B0E0EAEFF0E187
:1021F0000C943C2CD82EEB01C42E59014801E880E8
:10220000F9800A811B81EFDBDC01CB018E199F096C
:10221000A00BB10B84369105A105B10510F4C114D2
:1022200071F000E010E09801A401B5018D2D83DE6E
:10223000811531F0D8DB688379838A839B8381E0C1
:10224000CDB7DEB7ECE00C94582CA1E0B0E0EBE2A7
:10225000F1E10C94442C8091CE05898320910C06E9
:1022600090E041E02817190609F440E08D019E0135
:102270002F5F3F4F6FEC75E088E0B6DF2196E4E01A
:102280000C94602CA9E0B0E0E8E4F1E10C94442C5B
:1022900088E0E3E6F6E08E010F5F1F4FD801019062
:1022A0000D928A95E1F7198649E050E063E076E007
:1022B000C8010E949B2C41E09801892B09F440E061
:1022C00009E010E063ED75E087E08EDF2996E4E039
:1022D0000C94602C0F931F93CF93DF93EC0144E099
:1022E00050E062EF75E00E949B2C41E0892B09F4DD
:1022F00040E004E010E09E0161EE75E082E074DFF2
:10230000DF91CF911F910F91089548E050E067E170
:1023100070E083E696E00E94CE2C10929E03089512
:1023200085E0809363068091710190917201A09184
:1023300073018093640690936506A09366068FE709
:10234000809367068FEF80936806DFCFA0E0B0E050
:10235000ECEAF1E10C943E2C52DBAB01BC01409362
:102360009503509396038093970370939803D091AD
:102370009D0380917001823009F440C1D0F4811135
:1023800020C0109207014093990350939A036093E1
:102390009B0370939C0380916306837021F080916E
:1023A00063068695869580939D0381E080937001F6
:1023B00003C0833009F42BC1CDB7DEB7EAE00C943B
:1023C0005A2C80910B01D8132AC090916306937008
:1023D00020910A0130E081E09217130609F480E0B1
:1023E000809309018091680690910801981731F057
:1023F0008093080140E060E080E072D8D13089F03D
:10240000DF3F09F4CBC0D11108C0809109018115CB
:1024100021F040E060E080E063D880E024C081E00B
:10242000DFCF8091070180D8A82E092F4091640644
:10243000B0906506E0916606F0E0E259F54FB11004
:1024400024C0E491CE2F1E2FDE2EEA2CF12C909189
:1024500033060E1511F008F081C081E0911509F4E2
:102460009BC00731D0F6909107019F5F90930701C1
:102470008111A2CF82E080937001809109018111C6
:102480009BCFD11199CF83E091CFE491CE2F86E0FD
:10249000489F700111242FEF30E0C701B9010E945D
:1024A000222C440F551FF5E5F69FC001F79F900DB4
:1024B0001124481B842F880F480FD901AB19B1098B
:1024C000EA9FC001EB9F900D1124192FB49E60016B
:1024D0001124CD2CD12CD901AC19BD096D01EC9D75
:1024E000D001ED9DB00D11246330710569F16901D2
:1024F000C41AD108A601B49E6001B59ED00C112467
:10250000CD2CD12C2C193D09E29FA001E39F500D49
:102510001124D52E2CEFE21623E0F20658F4613098
:102520007105B1F06230710509F08FCFC92F152FF9
:10253000DE2E8BCF6430710571F06630710509F4C1
:1025400084CFD92E1B2F81CFDB2EC92F1E2F7DCFFD
:10255000DE2ECB2F7ACFC52FD92EF8CFF701E05F33
:10256000FD4F808120910801822339F0F7019115F8
:1025700041F087E1E816F1044CF08FEFE81AF80A11
:1025800066CF87E1E816F104C4F37797212F4D2D2C
:102590006C2FCF0127D9F1CF0E3264CF90919A03DF
:1025A000A0919B03B0919C03892F9A2FAB2FA695E6
:1025B00097958795A69597958795837090E0A0E06D
:1025C000B0E082309105A105B10589F08330910515
:1025D000A105B10579F040E060E01097904081409E
:1025E00059F464E180E00E94700A82E0DFCE44E1A9
:1025F00060E0F8CF44E164E184E1F5CFD0930B01D2
:1026000080916306837080930A0192DB3CCF8091B6
:102610009E0381117ADEC0909903D0909A03E090D6
:102620009B03F0909C0380913206811571F0DBD9F9
:102630006C197D098E099F0960317105810591052D
:1026400008F4BACE10927001B7CED9D9F1CFAB0150
:1026500024E630E0BC0188E70E94EB299C0181E080
:10266000232B09F080E008958091A4058115E9F0FD
:10267000BAD9DC01CB01805A9541AF4FBF4F80934F
:10268000A5059093A605A093A705B093A8058091F2
:10269000CE0581110AC062E070E08CE295E0D7DFE0
:1026A000811519F081E08093CE0508958091A405ED
:1026B000811561F08091CE05811541F062E070E0F6
:1026C0008AE295E0C4DF81111092CE050895CF9380
:1026D000DF93C091A103D091A2038A30C1F440914D
:1026E000A905CE01835A9340642F70E00E94222CEA
:1026F000481B842F66E00E946D2CC82FC11103C0B7
:10270000DF91CF910895C15080E2E1DFF7CF8D30A6
:10271000C1F4C35AD3404091A905642F70E0CE01A3
:102720000E94222C481BCE01840F911D923010F084
:1027300080E090E08D559C4F8093A1039093A2037D
:10274000DFCF96E0FE01AFE8B3E001900D929A95DD
:10275000E1F7803E08F455C086E019928A95E9F7C2
:10276000C091A103D091A20346E050E0BE018FE8E2
:1027700093E00E949B2C9E01235A3340892B41F108
:10278000C90145E0969587954A95E1F741E050E00B
:10279000BA0102C0660F771F8A95E2F7CB016091FC
:1027A0009F037091A003862B972BB9016B5F7F4F1E
:1027B000E5E076956795EA95E1F702C0440F551F6D
:1027C0006A95E2F7842B952B80939F039093A00347
:1027D0002A5F3F4F4091A905642F70E0C9010E9414
:1027E000222C481B463010F4240F311D323010F0DB
:1027F00020E030E02D553C4F2093A1033093A203FD
:102800007FCF96E0899FB0011124625D7A4F46E048
:1028100050E0CE010E94922CA3CFCF93DF93EC0126
:10282000FE018491811103C0DF91CF9108954FDFA4
:102830002196F6CF1F921FB61F9211248F939F935C
:10284000AF93BF938091AB05811113C08091D902E2
:102850009091DA02A091DB02B091DC024196A11DB9
:10286000B11D8093D9029093DA02A093DB02B0935A
:10287000DC02BF91AF919F918F911F901FBE1F905F
:1028800018952FB7F8948091D9029091DA02A0910F
:10289000DB02B091DC022FBF0895CF93DF93EC01F0
:1028A000F0DF8C1B9D0BDF91CF910895ACE0B0E081
:1028B000ECE5F4E10C943F2CFE013196DF0188E059
:1028C0001D928A95E9F787E6E82E81E0F82EDD244F
:1028D000D394BE2ECF2E00E711E0F70181917F0146
:1028E0008F3F09F444C0F894E82FE295EF70F0E0D0
:1028F00021A18F7041E001C0440F8A95EAF7922F21
:10290000942B91A392A1842F8095892382A37894FC
:1029100000C06CE671E0EB2DFC2D4D2D4095DB01E8
:102920009D91BD0181919F3F09F4A4C0292F22955B
:102930002F70205E30E0D9012C919F7002C0359538
:1029400027959A95E2F720FD95C08D299F0121508A
:102950003109D9018C930617170709F7F7018291FE
:102960008F3F11F00E94500A80EA8A95F1F7DD0C42
:102970008CE691E08E159F0509F0AFCF48E050E05E
:102980006B2D7C2D8AE296E00E949B2C009749F0EB
:1029900028E0EB2DFC2DAAE2B6E001900D922A95DD
:1029A000E1F70091290610E00F5D194F892B09F41A
:1029B00063C081E08093200664DF80931E069093BD
:1029C0001F0680913206811509F4AEC07E0189E0B0
:1029D000E80EF11CF70184E011928A95E9F78091E5
:1029E00019068A3008F06BC048E750E1B701C8010A
:1029F0006CD9811509F487C04AE651E1B701C801D5
:102A000064D9811509F47FC049EA50E1B701C801D2
:102A10005CD9811509F477C04BEE5FE0B701C801BE
:102A200054D9811509F46FC042E451E1B701C801DE
:102A30004CD9811509F467C045E251E1B701C801DD
:102A400044D9811509F45FC01092190680911D06C2
:102A500090E044E050E0B7018F5D994F0E949B2CBD
:102A600021E020931C06892B09F03FC02C96E9E059
:102A70000C945B2C84236ACF80912006811509F485
:102A8000A0CFE0901E06F0901F06FBDE8E199F0976
:102A9000059708F496CF44E050E06AE276E0C8017A
:102AA0000E949B2C892B41F084E0EAE2F6E0D801F9
:102AB00001900D928A95E1F71092200682CFC09086
:102AC0001A06D0901B06DDDE8C199D09843F9140CB
:102AD00008F08ACF80911C06811541F2F70184E04D
:102AE00011928A95E9F710921C06E0911D06F0E01C
:102AF000EF5DF94F89859A85AB85BC85808391838D
:102B0000A283B383B3CF809119068F3F31F4B9DE2E
:102B100080931A0690931B06DDCF8F5F8093190672
:102B20008A3008F493CFF3CFE0901D06F12CC70153
:102B30008F5D994F7C01F80180819181A281B381E1
:102B40008093EE059093EF05A093F005B093F10507
:102B500064E070E08EEE95E00E94FD0B8093ED0541
:102B60008091F2059091F305A091F405B091F505DF
:102B7000F70180839183A283B38388E0EDE0F6E0E0
:102B8000A7EFB5E001900D928A95E1F768E070E05B
:102B900087EF95E00E94FD0B8093F605C090FF053E
:102BA000D0900006E0900106F09002068091150694
:102BB00090911606A0911706B0911806C816D9066E
:102BC000EA06FB06C1F0C0921506D0921606E09206
:102BD0001706F09218060E94F30CC61AD70AE80AE4
:102BE000F90AC601D7018093340690933506A09365
:102BF0003606B093370688E0E3E0F6E0A3E6B6E0F9
:102C000001900D928A95E1F780910C06811511F0E3
:102C10002BDD2CCF4BDD2ACF4F925F926F927F92AC
:102C20008F929F92BF92CF92DF92EF92FF920F937B
:102C30001F93CF93DF938091A405811509F4F2C10E
:102C4000C0918D03D0918E031CDE8C1B9D0BC2970F
:102C500008F40DC116DE80938D0390938E0383EAF2
:102C600093E08093A1039093A20380913206811593
:102C700009F4EBC160E870E08AEA92E00E94540B2C
:102C80008091A90524E0829FC0011124923014F0A4
:102C900080E090E08D559C4F8093A1039093A20318
:102CA00084EA92E0BADD8EE992E0B7DD2091700609
:102CB0003091710680916E0690916F06282B392B0A
:102CC000832F90E0009709F03DC0C90120E0AC01DE
:102CD000F4E056954795FA95E1F74115510511F045
:102CE0002C5FCA01AC0156954795569547954115FD
:102CF000510511F02E5FCA0196958795820F82309B
:102D000019F1833021F1813029F58EE892E085DDDB
:102D10008EE992E082DDC0916C0680916B06C82B33
:102D2000DC2FD878C474D115C1F08BE592E075DD45
:102D3000C1111BC084E592E070DD8AE492E06DDD94
:102D4000C0E019C028E0C3CF8EE792E0E0CF8EE666
:102D500092E0DDCF8EE592E0DACF88E592E05DDDAE
:102D6000C11116C080E592E0E7CF86E592E055DD1F
:102D70008DE492E052DDD11571F087E492E04DDDF3
:102D8000C11111C080E492E048DD86E392E010C0FA
:102D900082E592E0ECCF84E492E03FDDC11120C0F7
:102DA0008CE392E0F1CF82E492E037DD89E392E0B8
:102DB00034DDC0916C0680916B06C82BDC2FD1717D
:102DC000C272D11581F083E392E027DDC11113C0F7
:102DD0008CE292E022DD82E292E01FDDC0E011C0D1
:102DE0008EE392E0E2CF80E392E017DDC11116C0DE
:102DF00088E292E0EFCF8EE292E00FDD85E292E092
:102E00000CDDD11571F08FE192E007DDC11111C029
:102E100088E192E002DD8EE092E010C08AE292E06A
:102E2000ECCF8CE192E0F9DCC1110CC184E192E0BD
:102E3000F1CF8AE192E0F1DC81E192E0EEDC0E94E8
:102E4000680CC82F8BE092E0C0FD02C088E092E0E1
:102E5000E4DC85E092E0C1FD02C082E092E0DDDCCE
:102E60008FEF91E0C2FD02C08CEF91E0D6DC809143
:102E70009F039091A003892B09F4BAC08091A40507
:102E8000811509F4B5C08091A3058111B1C0ECDBB7
:102E900080919F039091A003009709F4A9C0C82FC7
:102EA000C170D0E010E080FD0FC041E050E01F5F36
:102EB000EA01012E02C0CC0FDD1F0A94E2F79E0149
:102EC00028233923232B99F38091AA0580FFC4C0BE
:102ED000912F990F990F990F392F395F80E023E0D7
:102EE0009093020180930501309303012093060122
:102EF00024E630E047E050E060E071E088E70E94BF
:102F0000A129892B09F074C080E2189FA001112427
:102F10008091AA0580FFB2C0EDE6F3E080E2119255
:102F20008A95E9F734E8632E31E0732E80E891E06A
:102F30004C0168E871E0D301ED913D01D4010D91A0
:102F40004D01040F152F111DF0E0E359FC4F80E0F7
:102F500090E027E0B22EB81ACC24C394082E01C00A
:102F6000CC0C0A94EAF798012D553C4F2901E12C2D
:102F7000D201FD902D01FC202B2D2E19277030E061
:102F8000AF2D022E01C0AA0F0A94EAF7DA2E31956E
:102F9000219531092770332701C0F6942A95EAF765
:102FA000DF282081D22AD082E3942E2D283001F709
:102FB000019631968830910561F66615770509F01E
:102FC000BACF04E610E020E24DE653E060E488E783
:102FD0000E94312A892B61F4C095D09580919F037E
:102FE0009091A003C823D923C0939F03D093A0033B
:102FF0008091CE058115B1F00E94F30CC091A5051A
:10300000D091A605E091A705F091A805DC01CB01C0
:103010008C1B9D0BAE0BBF0B8F3F9F4FAF4FBF471E
:1030200008F444DBDF91CF911F910F91FF90EF9057
:10303000DF90CF90BF909F908F907F906F905F9028
:103040004F90089586E192E0F6CE60E072E08AE269
:1030500093E00E94540B0BCF20E2129FC001112479
:10306000880F492F441F550B5195242F912F92956E
:10307000990F9076392F315E842F32CF4D555C4FAA
:1030800004E610E020E230E0A1CFFBDB9C01909150
:103090005D0680915E06982B21F02093CB0530933E
:1030A000CC0590915F0680916006982B21F02093CB
:1030B000C9053093CA05E0913A06F0913B06309776
:1030C00059F00680F781E02D309731F082E080934F
:1030D0005B068BE596E009950895611509F448C0F3
:1030E000E82FED5CE33150F4F0E0E350F34D0C9445
:1030F0008C2C0E94230C819580935E06C6CF0E9483
:10310000230CFACF0E94230C819580935D06F6CFA5
:103110000E94230CFACF0E94430C80935F06EECFEF
:103120000E94430C8195F9CF0E94430C81958093B6
:103130006006E4CF0E94430CFACF815D990B21E039
:1031400001C0220F8A95EAF780915C06822B80935A
:103150005C06D4CF80915A06816080935A06CECF08
:1031600080915A068260F9CF80915A068460F5CF2B
:1031700040915D068D3C59F480915E0687FF0DC03D
:1031800010925E06411559F41092590608C08E3C03
:1031900081F480915E0618169CF3411581F08091B0
:1031A0005F0690916006892B09F0A8CF109258060F
:1031B000A5CF8F3C41F447FFF0CF10925D06809180
:1031C0005E068115E0CF803D19F41416B4F3E5CF07
:1031D00090915F06893D29F41916FCF610925F065E
:1031E000DCCF8A3D19F497FFD8CFF8CF90916006D5
:1031F0008B3D29F497FFD1CF10926006CECF8C3D46
:1032000019F41916CCF3C9CF982F915D983078F442
:10321000815D990B21E001C0220F8A95EAF7822F88
:10322000809590915C06892380935C06B6CF8D3D96
:1032300031F480915A068E7F80935A06AECF8E3D30
:1032400021F480915A068D7FF7CF8F3D09F0A5CFED
:1032500080915A068B7FF0CFCF93C82F8115A9F0AC
:103260008450813AA0F4E0ECF2E086EC92E0208118
:10327000C217E9F131968E179F07C9F76C2F8EEBB5
:1032800092E00E94C90C0E944F0FCF9108958C2F9D
:10329000805E883060F4C77021E001C0220FCA95BB
:1032A000EAF780916B06822B80936B06ECCF8C2F14
:1032B000855A833030F48C2F8452990B0E947B0CFA
:1032C000E4CFEC2FE85AEB3150F4F0E0EE0FFF1FA3
:1032D000EA57FD4F808191810E94A20CD6CF8C2F9E
:1032E0008D5C833190F661E08C2FF7DECECF6C2FB2
:1032F0008EEB92E00E94E40C0E944F0FBFCF81152D
:1033000081F1982F9450913A38F4682F8EEB92E027
:103310000E94E40C0C944F0F982F905E983058F454
:10332000982F81E091FD84E090FD880F92FD8295B9
:103330000E94C107EFCF982F955A933020F480E078
:1033400090E00C947B0C982F985A9B3120F480E0ED
:1033500090E00C94A20C982F9D5C933110F460E0E7
:10336000BCCE0895CF93C82F77DF8C2FC8DFCF91C5
:10337000089580E09091100620910F06291729F1F9
:10338000E92FF0E0EF5EF94F8081282F2F779F5FC4
:1033900093709093100690910E069F5F90930E0687
:1033A000223050F0223071F487FF0AC08EE401C051
:1033B00089EAD8DF81E0DECF87FDFACF8AEAF9CF4C
:1033C0008BE4F7CF2330B1F7EFCF089510926B065F
:1033D000E0ECF2E086E011928A95E9F780E090E077
:1033E0000E947B0C80E090E00E94A20C1092750677
:1033F0000E944F0FEBE5F6E086E011928A95E9F71F
:10340000109259061092580610925A063ECEDEDFF0
:1034100088E19CE00FB6F894A895809360000FBEF9
:1034200090936000FFCFAAE2B0E0E9E1FAE10C94EA
:10343000452C89EC92E0FC0101962091F10020835B
:1034400022E0813D9207B9F78091CA02893009F4E0
:1034500059C0C8F4823009F4B6C0833009F485C07D
:10346000813089F18091E80083FFEAC08091C90230
:103470009091CA029A3008F0E3C0E92FF0E0E05FD3
:10348000F24D0C948C2C8A3009F48CC08B3051F79F
:103490008091C902813231F78091CD029091CE02A4
:1034A000892B01F78091E800877F8093E8000E94D4
:1034B000A80D81E09091CB02911101C080E0809332
:1034C0000E0184DFCFCF8091C902813A59F68091F5
:1034D000E800877F8093E8008091CD029091CE0232
:1034E000892B61F060E080E090E070E00E941B0DAD
:1034F0008091E8008B778093E800B4CF68E081ED9D
:1035000092E0F3CF8091C902813209F0ABCF809174
:10351000CD029091CE02029708F0A4CF8091E800EE
:10352000877F8093E8008091E80082FF19C0209196
:10353000F3008091F200922F029731F48091F10014
:10354000813011F0863021F48091F10080930D01DB
:103550008091E8008B778093E8000E94A80D82CFCD
:103560008091AD058111DFCF7DCF8091C902813A75
:1035700009F078CF8091CD029091CE02892B09F08D
:1035800071CF8091E800877F8093E8008091E80008
:1035900080FFFCCF80910E018093F1008091E800C4
:1035A0008E77D9CF8091C902813209F05BCF8091AB
:1035B000E800877F8093E8000E94A80D8091CC02EC
:1035C00080930C014FCF8091C902813A09F04ACF14
:1035D0008091E800877F8093E8008091E80080FF79
:1035E000FCCF80910C01D8CF803889F0823841F52A
:1035F0008091CD028F70873018F58093E90080911B
:10360000EB0085FB882780F91092E90006C08091C5
:10361000AC05880F9091C602892B9091E800977FA6
:103620009093E8008093F1001092F1008091E800FF
:103630008E7723C0811116C08091CB02813011F1A9
:103640008091E80083FF0AC08091E800877F809323
:10365000E8008091EB0080628093EB00AA96E3E0A3
:103660000C94612C823061F78091CB02811581F03E
:103670001092E9008091E800877F8093E8000E9423
:10368000A80DDECF933009F080E08093AC05F0CF39
:103690008091CD028F70282F2150263088F680939C
:1036A000E9002091EB0020FFE3CF933031F48091CB
:1036B000EB0080628093EB00DBCF9091EB00906198
:1036C0009093EB0021E001C0220F8A95EAF7209346
:1036D000EA001092EA008091EB008860EBCF811144
:1036E000AFCF8091CB028F77182F8091E300807845
:1036F000812B8093E3008091E800877F8093E8002E
:103700000E94A80D8091E80080FFFCCF8091E3002B
:1037100080688093E30083E0111101C082E0809310
:10372000AD058ECF8058823008F08ACF2091CB0231
:103730003091CC022C3D83E0380791F583E08A83F9
:103740008AE289834FB7F894DE01139620E03EE0C9
:1037500051E2E32FF0E050935700849120FF03C023
:1037600082958F703F5F8F708A30C0F0895C8D9337
:103770001D922F5F243169F74FBF8091E800877F4A
:103780008093E8006AE270E0CE0101960E941B0D72
:103790008091E8008B778093E80052CF805DE7CF7F
:1037A000832F90E08330910519F160F48130910509
:1037B00009F46CC08230910509F042CF8BE3EBE64F
:1037C000F1E029C02091CD023091CE0281329105E5
:1037D00009F453C08232910509F032CF213031050E
:1037E00008F45CC009F02CCF8BE7ECEAF0E013C0E2
:1037F000822F90E0213099F182309105B9F1009744
:1038000009F01ECFE8EFF1E0E4918E2FE8EFF1E050
:10381000009709F415CF2091E800277F2093E80056
:103820002091CF023091D0028217930708F49C01B7
:1038300040E021153105B1F5411134C08091E80017
:1038400082FDA6CF8091AD05811509F4A1CF853009
:1038500009F49ECF8091E80083FFF0CF99CFEEED81
:10386000F1E0E4918E2FEEEDF1E0D2CFE8EBF1E064
:10387000E4918E2FE8EBF1E0CBCF2130310550F011
:1038800009F0DECE89E0E6E9F1E0C5CF82E1E6EAC3
:10389000F1E0C1CF89E0EDE7F1E0BDCF84E4E7E2FC
:1038A000F1E0B9CF8091AD05811509F471CF853074
:1038B00009F46ECF8091E80083FD6ACF8091E80023
:1038C00082FDBCCF8091E80080FFB3CF4091F30030
:1038D0008091F200942F2115310519F0883091055F
:1038E00050F041E0089709F040E08091E8008E77C1
:1038F0008093E8009ECF44914093F100319621508F
:1039000031090196E8CF803809F09ACE8091E8001D
:10391000877F8093E8008091C7028093F10086CE74
:1039200081118ECE8091CB02182F823008F088CE84
:103930008091E800877F8093E8001093C7020E947F
:10394000A80D1115A9F084E08093AD0542E061EC6B
:1039500081E00E94780D42E261EC82E00E94780DE5
:103960008091AD05843051F482E080930F0168CEE0
:103970008091E30087FDE7CF81E0E6CF81E0F5CFDE
:10398000FF920F931F93CF93DF93C62FD42FF22E66
:103990008115B1F0609361060E9441148093E102A9
:1039A0009093E20281E0C1FD84E0C0FD880FC2FD7A
:1039B00082950E948D0FCDB7DEB7E5E00C945F2CA9
:1039C00080916106681331C00091E1021091E2021A
:1039D0000E944114801B910B883C910530F51D2FEE
:1039E000105ECD17A1F0C77001E0802F01C0880FD5
:1039F000CA95EAF70E94960F183048F48D2F877009
:103A000001C0000F8A95EAF7802F0E948D0F8F2D3D
:103A1000A9DC81E0D1FD84E0D0FD880FD2FD829544
:103A2000183048F60E94960FC6CF81E0C1FD84E0B1
:103A3000C0FD880FC2FD8295F5CFA0E0B0E0E3E2C3
:103A4000FDE10C94402C7C01FC018481811521F165
:103A500061E0C7010E94FE09EC01F7018581FE01CA
:103A6000E851FC47E730F10598F5E65EF24D0C941D
:103A70008C2C26E241EE61EE83DF80917206877026
:103A800059F0F7018581811539F08091740682FF24
:103A900003C082E00E94AB07CDB7DEB7E8E00C942C
:103AA0005C2C27E245EE65EEE7CF26E241EE60EEC4
:103AB000E3CF27E245EE64EEDFCF26E241EE62EE91
:103AC000DBCF27E245EE66EED7CF28E241E0EBCF31
:103AD000811509F4D2C3109261069E01305723323A
:103AE000310508F0DAC384E090E00E94C92C80938D
:103AF000730690937406FE01E150F047E232F1053F
:103B000020F4EF5DF24D0C948C2C80917306816053
:103B100080937306609173067091740684E090E060
:103B20000E94F72C53DCA9CF8091740688608093A3
:103B30007406F0CF809173068260EACF809173069D
:103B40008460E6CF809173068860E2CF809174062E
:103B50008160EDCF809174068260E9CF8091730619
:103B60008061D6CF809173068062D2CF8091730638
:103B70008064CECF2BDC809173068068C9CF8091A2
:103B800073068C60C5CF809174068360D0CF80911E
:103B900073068E7FBDCF80917406877FC8CF8091DA
:103BA00073068D7FB5CF809173068B7FB1CF8091E7
:103BB0007306877FADCF809174068E7FB8CF8091DA
:103BC00074068D7FB4CF809173068F7EA1CF8091D4
:103BD00073068F7D9DCF809173068F7B99CFF6DB27
:103BE000809173068F7794CF80917306837F90CFF7
:103BF000809174068C7F9BCF90917306892F8B7F69
:103C000092FF8460877F92FF886082CF80917406E4
:103C1000982F909590FB80F990FB81F988CF909137
:103C20007306892F8F7B96FF806472CFCFDB9091D4
:103C30007306892F97FB87F980586ACF61E08EE081
:103C400090E00E94DD2C66CF60E0F9CF9091730682
:103C5000892F8F7E94FF80615BCF90917306892FAF
:103C60008E7F90FF816054CF90917406892F877F5B
:103C700093FF88605CCF9272FE01E052F847EB3010
:103C8000F10508F06AC0ED5BF24D0C948C2C90911C
:103C90006B069272FE01E054F847EF30F10508F030
:103CA0005CC0E25BF24D0C948C2C0E94A90AE5CE1C
:103CB000911591F10E94BD0AE0CE911591F10E94FB
:103CC000DF0ADBCE911591F10E94F20AD6CE911552
:103CD00091F10E94080BD1CE911591F10E941C0B1D
:103CE000CCCE80916306837011F4109270018091A4
:103CF00063068C7F8160809363060E946A0ABDCE52
:103D000080916306837011F01092700180916306B8
:103D10008C7FF1CF911571F20E94B20AAECE91154F
:103D200071F20E94D70AA9CE911571F20E94E70A9A
:103D3000A4CE911571F20E94FD0A9FCE911571F2E9
:103D40000E94130B9ACE911529F00E943B0B95CE41
:103D50009115D9F30E94250B90CE9E01205E32452D
:103D600020323105A0F4811124C08C2F8F71C1E065
:103D7000D0E002C0CC0FDD1F8A95E2F76C2F83E004
:103D800090E00E94DD2CCE010E94F20676CE8115D5
:103D900071F1CB359CE7D90709F1CC359CE7D90700
:103DA00091F0CA359CE7D907B9F0C1309CE7D90733
:103DB000E9F0C3309CE7D90799F0C115DC47B9F4A5
:103DC00005DB0E94BE0E80917406002482FF0394DE
:103DD000802D0E94390F51CE81E0FBCF80E0F9CFDA
:103DE0006FEF7FEF80E090E00E94F72C10DBF7018F
:103DF00000811181811509F445C0C8010E94CA09DA
:103E0000C82F682FC8010E941A07B8018C2F0E9482
:103E1000C9070E94DE08D82FC92FF701D580068177
:103E200002950F7080917206877001F1CD2CD1142C
:103E3000F1F0892F807F803461F08D2F805E883093
:103E4000A8F0892F807E803221F4D23078F00115DD
:103E500069F08091740682FF09C082E00E94AB077E
:103E6000809172068770CC24C3948111C12CEC2FF1
:103E7000E295EF70C03C08F067C0F0E0E35AF24D05
:103E80000C948C2CC8010E944F07C82FBECF1C2F4A
:103E90001F70C03110F01295107FD114B9F01115B8
:103EA00069F08D2F805E883010F0D11109C08091AB
:103EB0006B06812B80936B060E944F0F8D2F3EC0A7
:103EC00080917506812B80937506F6CF8D2F17DABA
:103ED0001115D1F18D2F805E883010F0D11104C002
:103EE000812F0E94C10706C010958091750681231D
:103EF000809375060E944F0F27C01C2F1F70C07F34
:103F0000C03211F01295107FD13040F009F461C039
:103F1000D11409F46BC0011599F1D0CF80917406CA
:103F200082FD2AC0D11461F0111539F080916B0621
:103F3000812B80936B060E944F0F80E08DD904C0C7
:103F400080E0DDD91111CCCFC11409F4B6C0809145
:103F5000720680FDB2C0F70115828695869586951A
:103F60000E94FC06C70169DD8091720686958695E0
:103F700086950E940A07A1C0D11489F0013020F46F
:103F8000812F0E948D0FE0CFF9F680916C06912F62
:103F900098231917C9F2812B80936C06D5CF011194
:103FA000D3CF812F0E94960F90916C06812F892389
:103FB00029F0812F8095892380936C0680916D066E
:103FC000912F982309F4C0CF1095182310936D06F4
:103FD000BBCFD11421F0063008F0B6CFD1CF0530D9
:103FE00008F0B2CF812F0E94960FAECF0115D1F30A
:103FF000D93349F48FEF97EE23E081509040204071
:10400000E1F700C000008D2F7AD99ECF8C2F8695C6
:1040100086958370813060F009F096CF8D2F9C2FAC
:104020009370D11002C080E090E00E94A20C8CCF6F
:104030008D2F9C2F9370D11002C080E090E00E94E1
:104040007B0C82CF6D2D8D2F48D87ECF8C2F837027
:1040500009F046C0D1102FC04D2F429546954770AC
:10406000440F440F2D2F2F7030E0042E02C0220F7A
:10407000331F0A94E2F780E090E0D4FF09C08FE09C
:1040800090E002C0880F991F4A95E2F780959095BD
:10409000C695C695C370C230D1F0C330A9F0409127
:1040A0006E0650916F06C13069F0822B932B8423EA
:1040B00095230E94F2060E94680C60E0C7010E94EE
:1040C000FE09EACC242B352B822B932BF2CF822BAB
:1040D000932B20916E0630916F0682279327E9CFAC
:1040E000D11491F1C0FFE7CF4D2F4295469547700F
:1040F000440F440F2D2F2F7030E0042E02C0220FEA
:10410000331F0A94E2F780E090E0D4FF09C08FE00B
:1041100090E002C0880F991F4A95E2F7809590952C
:10412000C695C695C370C230B9F0C33091F04091C6
:10413000700650917106C13051F0822B932B84236D
:1041400095230E94F706B7CF823070F6B4CF242BA8
:10415000352B822B932BF5CF822B932B209170063E
:104160003091710682279327ECCFCF70D11439F0AC
:104170008C2F0E94FC068D2F0E948D0F9CCF8D2FBF
:104180000E94960F8C2F0E940A0795CFD23F91F183
:1041900068F4D03FC1F0D13F89F0D11409F45AC07E
:1041A000011509F454C08D2F57D885CFD33F49F15D
:1041B000D43F99F79091740692FD31C08C2F8F7186
:1041C000D11409F31BC0D11499F0053008F073CF56
:1041D000CF7181E090E002C0880F991FCA95E2F785
:1041E000EC0180917006909171068C279D27A9CFD4
:1041F0000630ECCF8C2F8F71D110C5CF0E94FC06FA
:104200005ACF80E090E0D11409F49BCFCF7181E0C8
:1042100090E002C0880F991FCA95E2F792CFD1149F
:1042200061F08C2F8F7192FFE9CF982F990F990F22
:10423000990F936090937206E1CF81E00E94AB07E3
:10424000023008F438CF82E00E94AB0734CF8C2FC5
:104250008F71D4CF011571F0D93349F48FEF97EEF8
:1042600023E0815090402040E1F700C000008D2FF6
:1042700046D821CF8C2F8F7186CFC6319CE7D907C6
:1042800009F005CD8091620665E3811101C069E204
:104290008EEB92E00E94E40C16C090916B06C63142
:1042A0002CE7D20709F0E7CC9A7A81E0911101C09E
:1042B00080E08093620665E3911101C069E28EEBB4
:1042C00092E00E94C90C0E944F0FD7CB8091B60696
:1042D000803170F48091B506811551F0E091770638
:1042E000209176063091B1064091B0062E1301C0A0
:1042F0000895BF0187E0E89FF0011124DF01A8586D
:10430000B94F14968C911497811551F111968C9197
:104310001197831325C08C91841322C015968C911C
:10432000159781111DC012968D919D91A091B20695
:10433000B091B3068A1B9B0B883C910588F4809151
:10434000B6068F7080618093B606E258F94F80817F
:104350008F708061808380EB96E06FDB0C94A10707
:104360006F5F7F4FFB01E770C1CFADE0B0E0EBEBDB
:10437000F1E20C943B2C8C0186E0F801DE011896EA
:1043800001900D928A95E1F7F801F580C48080EBE9
:10439000882E86E0982E7090B40671101FC0C1144C
:1043A000D1F0F11409F415C1C8010E94230A811546
:1043B00009F40FC187E0F801D40101900D928A95AC
:1043C000E1F78C2D813031F48091B0069091B106E7
:1043D0000E94190A7BDFFF24F39453C0E080A2807F
:1043E000B380D090B5068091B2069091B306950146
:1043F000281B390BD11409F4B5C0283C310508F04D
:104400008DC0C11441F39091B106C1808091B60670
:10441000803108F056C0C91213C09091B0069E11A9
:104420000FC0F11048C08F7080618093B60680EB9A
:1044300096E003DB8091B606F8018683F12C21C05B
:10444000F11039C040E06C2D8E2D0E94820740E0B3
:104450006C2D8E2D0E948207F82E8111EFCF88855A
:1044600099850E94190A292F22952F70903470F493
:104470009F70223098F09115A9F0F8019681903143
:1044800088F48F2D2D96EDE00C94572C2A5F2F7019
:10449000223060F0C801D1DAFD2CF3CF911511F074
:1044A000811579F3805E883060F3F4CF803F48F364
:1044B000815F8330F9CF8091B60681608093B60624
:1044C000BDCFC91207C09091B0069E1103C0F11470
:1044D00009F469C0C8010E94230A811509F479C052
:1044E000F11409F476C08091B606803270F0209104
:1044F000B0063091B10629833A83AB82BC827D82BB
:104500001E828F83CE01019698DA87E0F801A0EB36
:10451000B6E001900D928A95E1F75CCF8091B606E6
:10452000803148F480EB96E088DAF40187E011925C
:104530008A95E9F783CFC11409F44DCF2091B106D4
:1045400091812913C7CF9091B0069E11C3CFF1106E
:10455000C1CF8683C80171DAF40187E011928A9590
:10456000E9F739CF283C310500F7C11409F433CFFE
:10457000F11479F19091B1068181981320C0809156
:10458000B0068E111CC08091B60680FD0FC0803130
:1045900068F08683807F803F39F08681982F907FF6
:1045A000905F8F70892B8683C80147DA87E0F80116
:1045B000A0EBB6E001900D928A95E1F70CCFC8010F
:1045C0000E94230A8111A1CF8091B6068160809359
:1045D000B606C80132DAFFCEABE1B0E0E2EFF2E2BC
:1045E0000C94442C4E8B5F8B688F798F8A8F192F98
:1045F0009B8F9111109275061D8A86E0FE017696BA
:10460000DE011F9601900D928A95E1F70A8D011542
:1046100061F00B8B1C8B61E0CE010F960E94FE09AE
:1046200061E0CE010F960E94FE090B8B1C8B87E088
:10463000FE013F96DE01189601900D928A95E1F7F2
:10464000CE01089692DE81112EC02091760630911F
:10465000770687E0AE01485F5F4FFA014750510986
:10466000DA0101900D928A95E1F78C858115D9F0D8
:10467000822F90E08395877090E0AC013417150687
:10468000E1F097E0929FD0011124A858B94F9E0104
:104690002F5F3F4FF90101900D929A95E1F74093FA
:1046A00076060E94A107809177069091760689137D
:1046B00011C06B96E4E00C94602C0E94E6191092F5
:1046C000760610927706E0EBF6E087E011928A9585
:1046D000E9F7E9CF27E0829FC00111248858994F5C
:1046E00044DE811531F3809177069091780601962A
:1046F000877080937706D7CFA6E0B0E0E2E8F3E2D8
:104700000C94442C0E9441148C01809138069091A5
:1047100039068017910771F019821A820E9441149C
:10472000BC0149815A8180E090E056DF0093380651
:10473000109339062696E4E00C94602CCDB7DEB7D2
:1047400028970FB6F894DEBF0FBECDBF85B780683F
:1047500085BF85B7806885BF84B7877F84BF0FB664
:10476000F894A89580916000886180936000109211
:1047700060000FBE80E890E00FB6F894809361006F
:10478000909361000FBE81E080930F018EE49AE068
:104790008093BC029093BD020E94470E0E94F80DC8
:1047A0008091E20084608093E20078948091AD056E
:1047B000811599F08091E9001091EC008F7010FB49
:1047C000112717F9182B1092E9008091E80083FD5A
:1047D0000E94131A1F701093E90082E084BD93E0D9
:1047E00095BD9AEF97BD80936E001092340610929B
:1047F000350610923606109237068091D8008061F7
:104800008093D8008AE18A95F1F700C08091D900A1
:10481000182F117080FD04C00E94470E1092AD0544
:104820001093320684988C988FE891E00197F1F705
:1048300000C0000088277C9983958093330680937D
:104840001001809132068111AED6EDE0F6E088E0ED
:1048500011928A95E9F79091330681E08927880FB4
:104860008093C30582E08093C805911110C0209108
:1048700074013091750180917701909178012093B6
:10488000130130931401809311019093120110E0F1
:1048900060E0812F0E94B30B61E0812F0E94B30B77
:1048A000812F11E08130A1F78FE891E00197F1F7B6
:1048B00000C0000010E08091C805181708F4B4C0CB
:1048C0008091330690E0811120C081E380936C01D8
:1048D00087EF80936D0186EF80936E0183E3809371
:1048E0006F0185E0EAE7F1E09E012F5F3F4FD901BC
:1048F00001900D928A95E1F785E0F901A7E6B1E014
:1049000001900D928A95E1F794E09093290684E056
:10491000891B80931D0647E6E42E41E0F42E0CE649
:1049200011E0F70181917F018F3F11F00E94500A41
:104930000E151F05B1F70CE611E0F80181918F010A
:104940008F3F11F00E94500A81E000371807A9F745
:10495000E1E2F6E088E011928A95E9F7EAE2F6E012
:1049600088E011928A95E9F780E090E00E94C92CD6
:10497000833E9E4F69F163EE7EEF80E090E00E94FF
:10498000F72C60E082E090E00E94DD2C81E090E076
:1049900080936E0610926F0661E083E00E94DD2C2A
:1049A00060E074E184E090E00E94F72C0E94901196
:1049B00060E070E0AB018FE090E00E94EF2C60E0DF
:1049C00070E0AB0183E190E00E94EF2C0E94851122
:1049D00082E090E0D6D78093B60584E090E0D9D706
:1049E00080937306909374060E9456148FEF96E797
:1049F00021E0815090402040E1F700C000000E947B
:104A00005614E091330611E0E127EE0FEE0FF0E0CF
:104A1000EF5DF94F808184FF19C06FEF7FEF80E079
:104A200090E0E5D70E94BE0E60E0812F0E94D30B7C
:104A3000082F61E0812F0E94D30BE12FF0E0EC53AF
:104A4000FA4F880F802B80831F5F35CF83E090E083
:104A500098D790E00E94F2060E94F00B10939E03FC
:104A600048E050E067E170E083E696E07AD7109284
:104A70009E0380916306843010F40E94901183E0BD
:104A80008093AA0580E28093A90528D46BE070E0AA
:104A900085E89BE00E9427138115E9F18091AA0522
:104AA00065E070E081FDC5C080E89BE00E942713AF
:104AB000811589F16DE070E08EE69BE00E9427137E
:104AC000811549F10E94F30CDC01CB01805A95411C
:104AD000AF4FBF4F8093A5059093A605A093A70560
:104AE000B093A805E3EAF3E0DF0180E092E01D92D5
:104AF0000197E9F7E093A103F093A2038FEF9FEFF3
:104B000080939F039093A00381E08093A4058093FA
:104B1000CE051092A30580913206811101C046D5C1
:104B200085E191E080933A0690933B06B12CA12E4B
:104B3000CE0101968F8398878091AD0500E110E446
:104B400022E1F22E853009F4CFC00E94561497EB73
:104B5000C92E95E0D92E81E296E01C01FC01D60118
:104B60009D91808125E0AF3BB20709F4C7C0319623
:104B70009817B1F3409032068EEAE82E85E0F82EC1
:104B8000912CF10181901F01F60181916F0188152F
:104B900009F442C08825582E00E010E07724739471
:104BA000872D852189F1672C68204114F9F0F701E0
:104BB000808190E09501002E01C0220F0A94EAF74F
:104BC0008223892B99F409839A820E9441148B8352
:104BD0009C8381E08D8391E0611001C090E09E8311
:104BE00049815A816B817C818D81F6DC61100CC01A
:104BF0008A2D002E01C0880F0A94EAF7982F90950D
:104C0000F701808189238083770C0F5F1F4F053068
:104C1000110531F6F601829293948FEFE81AF80AA3
:104C2000892D883009F0ADCF0E94FF0CDD24D3948C
:104C300069C08BE79BE03ACF8091AD05843039F1B4
:104C40000E94A6110E9456131092AB0588E190E0D5
:104C50000FB6F894A895809360000FBE1093600083
:104C600083B7817F846083BF83B7816083BF78947B
:104C7000889583B78E7F83BF0FB6F894A8958091EF
:104C80006000886180936000109260000FBE0E94F7
:104C90005614E1E2F6E0AEEAB5E080E021912D9312
:104CA00091E0211101C090E0892B96E0E932F907EB
:104CB000A9F78115C9F08091AC058115A9F009BD4E
:104CC000F9BC09B400FEFDCF8091D8008F7D8093A0
:104CD000D8008091E00082608093E0008091E00045
:104CE00081FDFCCF0E94E6198091AD05853009F465
:104CF000A3CF0E94E6190E94680C27CF98133ACFE1
:104D0000FBDCD12C0E94A611F0903206F11419F0B0
:104D10000E94B919F82E8091DB05811551F010928F
:104D2000DB0580910F068093100680910D0680931D
:104D30000E06E12C38C061E08E2D0E94D30B182F97
:104D400060E08E2D0E94D30B110F812B0E2D10E0F1
:104D5000D801AC53BA4FEC919E2F9370891711F183
:104D6000EE0FEE0FE82BEC938091C3058E0DEF70E4
:104D7000F0E0E25CFD4F01541A4FC080F8019081D1
:104D8000C90E9C2D60E094301CF49D3F1CF461E042
:104D90000E94930B8C2DCC0C990B64E070E0A9D58C
:104DA000F8018083E3948091C805E81620F2809191
:104DB0003206811519F00E94B919F82AF11439F058
:104DC0000E94FF0C0E940C160E94341304C00E9423
:104DD0000C16D110F9CF86E0EBE5F6E0AF81B8858F
:104DE00001900D928A95E1F790905C06D0905D0657
:104DF000F0905E06C0905F06E090600610925D063F
:104E000010925E0610925F06109260068F2D8D291B
:104E100009F441C00091CB051091CC050E944114CA
:104E2000801B910B9C0190915906911509F4B1C01A
:104E30002531310580F19F3F19F09F5F909359060E
:104E4000D11459F00E94230C91E01D140CF09FEF37
:104E5000899F802D112480935D06F11459F00E94E2
:104E6000230C91E01F140CF09FEF899F802D1124DB
:104E700080935E0680915D06811569F010915E0653
:104E8000111549F00E94150C80935D06812F0E9438
:104E9000150C80935E068E2D8C2909F441C000917B
:104EA000C9051091CA050E944114801B910B9C01F9
:104EB00090915806911509F467C02135310580F1AC
:104EC0009F3F19F09F5F90935806C11459F00E94BC
:104ED000430C91E01C140CF09FEF899F802D11244E
:104EE00080935F06E11459F00E94430C91E01E1478
:104EF0000CF09FEF899F802D112480936006809194
:104F00005F06811569F010916006111549F00E9445
:104F1000150C80935F06812F0E94150C809360060C
:104F200080915C06891119C080915D06811511F090
:104F30008D1113C020915E06211511F0F2120DC0E3
:104F400090916006911511F0E91207C030915F064B
:104F5000311103C0822B892B11F00E94451886E085
:104F6000EF81F885ABE5B6E001900D928A95E1F707
:104F70000E94680C9091CD05891709F4DDCD8093CE
:104F8000CD050E94F30CD8CD2B30310508F09ACF17
:104F9000C7CF2B30310508F050CF7DCF78941F92CA
:104FA0001FB61F9211248F939F93AF93BF9380914D
:104FB000D9029091DA02A091DB02B091DC02019655
:104FC000A11DB11D8093D9029093DA02A093DB0258
:104FD000B093DC02BF91AF919F918F911F901FBE44
:104FE0001F9018951F920F920FB60F9211242F93B6
:104FF0003F934F935F936F937F938F939F93AF9361
:10500000BF93EF93FF938091E10082FF09C08091ED
:10501000E20082FF05C08091E1008B7F8093E10078
:105020008091DA0080FF24C08091D80080FF20C0EA
:105030008091DA008E7F8093DA008091D90080FF22
:10504000A9C080E189BD82E189BD09B400FEFDCF20
:1050500081E08093AD058091C802811109C00E9452
:10506000470E0E94F80D8091E20084608093E20078
:105070008091E10080FF1AC08091E20080FF16C09D
:105080008091E2008E7F8093E2008091E200806157
:105090008093E2008091D80080628093D80019BC90
:1050A00085E08093AD0583E080930F018091E1005E
:1050B00084FF2FC08091E20084FF2BC080E189BD76
:1050C00082E189BD09B400FEFDCF8091D8008F7DBB
:1050D0008093D8008091E1008F7E8093E1008091E1
:1050E000E2008F7E8093E2008091E20081608093F5
:1050F000E2008091C702811509F452C084E08093D8
:10510000AD058091AD05843009F052C082E08093F6
:105110000F018091E10083FF2CC08091E20083FFAA
:1051200028C08091E100877F8093E10082E0809336
:10513000AD051092C7028091E1008E7F8093E1005F
:105140008091E2008E7F8093E2008091E200806196
:105150008093E20042E060E080E00E94780D809160
:10516000F00088608093F00081E080930F018093CD
:105170000E01FF91EF91BF91AF919F918F917F9120
:105180006F915F914F913F912F910F900FBE0F90B4
:105190001F90189519BC1092AD051092C80268CFE7
:1051A0008091E30087FF02C083E0A9CF81E0A7CF11
:1051B00081E0ADCF1F920F920FB60F9211241F9373
:1051C0002F933F934F935F936F937F938F939F930F
:1051D000AF93BF93CF93DF93EF93FF93E9EEF0E0AC
:1051E00080811091EC008F7010FB112717F9182B9C
:1051F0001082C0EFD0E08881877F888378940E94F6
:10520000131AE9EEF0E010828881886088831F70AD
:105210001083FF91EF91DF91CF91BF91AF919F915B
:105220008F917F916F915F914F913F912F911F913E
:105230000F900FBE0F901F901895EF92FF921F9343
:10524000CF93DF93182FEB011092BC0084EA809378
:10525000BC000E9441147C018091BC0087FF26C0E5
:105260008091B900887F883029F08091B900887FCB
:10527000803189F51093BB0084E88093BC000E94C4
:1052800041147C018091BC0087FF1EC02091B900B1
:10529000287F80E090E0283189F081E090E02034A0
:1052A00009F480E091958195910908C0C7010E9499
:1052B0004D14C817D90780F68EEF9FEFDF91CF917D
:1052C0001F91FF90EF900895C7010E944D14C817D9
:1052D000D907C0F6F1CF8FEF9FEFF0CF1092B90052
:1052E0008CE08093B80008950F931F93CF93DF93C2
:1052F000EB018093BB0084E88093BC000E944114C2
:105300008C018091BC0087FF10C02091B900287FDC
:1053100081E090E0283209F480E09195819591092F
:10532000DF91CF911F910F910895CF3FDC0749F393
:10533000C8010E944D14C817D90718F78EEF9FEFC8
:10534000EFCFA0E0B0E0E6EAF9E295C2982E862E13
:10535000772E6A0179010E9441145C0184E1E8160C
:10536000F10410F18FEFE816FE0409F1C70164E1C2
:1053700070E068D2162F072F612F702F892D5DDF07
:10538000EC01892BB1F4082D172DC00ED11E0C1580
:105390001D0511F02097C1F084E98093BC00CE0177
:1053A000CDB7DEB7EDE083C211E000E0E5CF15E058
:1053B000FCCF8FEFE816FE04F9F2C5010E944D14F0
:1053C000E816F906C8F6DFCFB701F80181918F0121
:1053D0008BDFEC01DCCFA0E0B0E0E0EFF9E24BC204
:1053E000982E862E772E6A0189010E9441145C0155
:1053F0000431110500F10F3F100701F1C80164E10C
:1054000070E020D2EB01BE01892D17DF7C01892BD2
:10541000B9F4C82DD72DCC0EDD1ECC15DD0519F045
:10542000E114F104B9F084E98093BC00C701CDB761
:10543000DEB7EDE03CC2C1E0D0E0E5CFC5E0FCCF97
:105440000F3F100701F3C5010E944D1408171907FB
:10545000D0F6DFCFFE018491B80146DF7C012196B2
:10546000DCCFA0E0B0E0E6E3FAE204C2982E862E9C
:10547000742E652E6901E8010E9441145C0104311B
:10548000110508F10F3F100711F1C80164E170E048
:10549000D9D1F62EE72E6F2D7E2D892DCEDE8C01F3
:1054A000892BC1F0CF3FDC07B1F3C5010E944D1439
:1054B000C817D90780F784E98093BC00C801CDB72D
:1054C000DEB7EEE0F3C1FF24F394E12CE4CF85E0F6
:1054D000F82EFBCFBE01882D07DF8C01E72CF62CC0
:1054E000CE0CDF1CEC14FD0431F30115110519F786
:1054F000BE01F70181917F01F7DE8C01F3CF8EE1D0
:105500004A9B02C08150E1F74A9BFECF08955A980A
:1055100080E28A95F1F75A9A0895FC018BE08A950A
:10552000F1F728E080E090E031E040E14A95F1F7C2
:10553000880F4A9B02C08160932742E04A95F1F7A9
:10554000000040E14A95F1F7215079F720E12A95D2
:10555000F1F729B132E03A95F1F7000030E13A95E0
:10556000F1F731E022FD93272081920F9083089577
:10557000A1E0B0E0EDEBFAE285C119828C017C017B
:10558000E60EF11CBCDFCE010196C7DFF801819366
:105590008F01EE15FF05B1F781E09981911180E04F
:1055A0002196E6E08BC1529A5A9A089552985A9AD7
:1055B000EA9AE9E6F0E080818F7C8083089561506B
:1055C000770B91E001C0990F6A95EAF7692F90E097
:1055D00021E0611108C0911591F05A9A80E28A95F4
:1055E000F1F75A980895362F382339F05A9A9227AE
:1055F00030E23A95F1F76695ECCF5A98F9CF5A9880
:10560000EDCFFF920F931F93CF93DF93EC018C01AB
:10561000060F111D8991F82E7ADF68E08F2DCFDFFC
:10562000C017D107B9F7CDB7DEB7E5E048C11F9283
:105630000F920FB60F9211240F931F932F933F9346
:105640004F935F936F937F938F939F93AF93BF938A
:10565000EF93FF93CF93DF930F92CDB7DEB719820D
:105660004EDFCE01019659DF082F06950695069567
:10567000282F22952570902F9570920F292F237037
:1056800096959695920F982797708981892B09F0A6
:1056900055C00A3008F052C080E18A95F1F75A9A55
:1056A000529A82E08A95F1F700C05A9888E0089FE4
:1056B00080011124D801A15EBE4F1696ED91FD9197
:1056C0001897309791F060914E0270914F021496A6
:1056D0002D913D91260F371F15978D919D91680F44
:1056E000791F4C9113978C910995F801E15EFE4F5B
:1056F0006381611549F020914E0230914F028481FF
:105700009581820F931F7DDF02DF80E18A95F1F79B
:105710005A9852985A9A80E18A95F1F7F801E15E19
:10572000FE4F6081611549F020914E0230914F0289
:1057300081819281820F931F1BDFE1DE0F90DF9149
:10574000CF91FF91EF91BF91AF919F918F917F91F9
:105750006F915F914F913F912F911F910F910F90FA
:105760000FBE0F901F9018950F931F93CF93DF9349
:10577000EC010A970CF05EC0F894529A5A9885E0B2
:105780008A95F1F700009C2F969595708C2F857067
:10579000980F892F837096959695292F93E0CC0FBB
:1057A000DD1F9A95E1F7280F822F8C2B082FAFDE93
:1057B00000C068E0802F03DF80E18A95F1F75298FE
:1057C0005A9A4A9B30C087E090E04A992EC0FE0169
:1057D000E15EFE4F6381611559F020914E023091D8
:1057E0004F0284819581820F931FC2DE8115F9F0EB
:1057F00086DE80E28A95F1F75A98529A80E18A957E
:10580000F1F7C15EDE4F6881611549F020914E02CB
:1058100030914F0289819A81820F931FF2DE77DEE9
:10582000789481E008C000C0CCCF019749F4529A27
:105830005A9A789480E0DF91CF911F910F9108954B
:1058400000C0C3CFAA1BBB1B51E107C0AA1FBB1FCF
:10585000A617B70710F0A61BB70B881F991F5A95FC
:10586000A9F780959095BC01CD0108952F923F92A4
:105870004F925F926F927F928F929F92AF92BF9260
:10588000CF92DF92EF92FF920F931F93CF93DF930C
:10589000CDB7DEB7CA1BDB0B0FB6F894DEBF0FBE69
:1058A000CDBF09942A88398848885F846E847D84B6
:1058B0008C849B84AA84B984C884DF80EE80FD80B8
:1058C0000C811B81AA81B981CE0FD11D0FB6F8942E
:1058D000DEBF0FBECDBFED010895992778E0880F98
:1058E000991F961708F0961B881F7A95C9F780951F
:1058F000089597FB072E16F4009406D077FD08D084
:10590000A1DF07FC05D03EF4909581959F4F089547
:10591000709561957F4F0895EE0FFF1F0590F491EC
:10592000E02D0994FB01DC0102C005900D9241506D
:105930005040D8F70895FB01DC0104C08D9101901F
:10594000801921F441505040C8F7881B990B0895E5
:10595000FB01DC0102C001900D9241505040D8F78C
:105960000895DC01CB01FC01F999FECF06C0F2BD20
:10597000E1BDF89A319600B40D9241505040B8F70D
:105980000895F999FECF92BD81BDF89A992780B507
:105990000895A8E1B0E042E050E0E5CFDC01A40FBB
:1059A000B51F4150504040F0CB01840F951F2E9100
:1059B00005D041505040D8F70895262FF999FECFD1
:1059C00092BD81BDF89A019700B4021639F01FBA52
:1059D00020BD0FB6F894FA9AF99A0FBE089503966F
:1059E000272FECDFEADF252FE9DF242FE7CF019611
:1059F000272FE4DFE2CFF894FFCF79187F188218C1
:105A000088189D189D189D189D189D189D189D1803
:105A10009D188B18901894189A18AA18B018B418D2
:105A2000F41A1A1B201B1A1B201B6F1B921B201B16
:105A3000831C901C551D591D391D511D5D1D611D77
:105A4000651DC71D2D1ECF1D9A1D9E1DD31DA21D98
:105A5000D71DE31DAE1D261EB21DE71DB61DEB1D95
:105A60000F1EBA1DEF1D161EBF1DF41DFC1DA61D29
:105A7000DB1DAA1DDF1DC31DF81D061E1E1E241ED4
:105A8000941DCB1D341E551E581E8A1E5D1E8F1E72
:105A9000621E941E671E991E6C1E9E1E711E801E25
:105AA000551E581E8A1E5D1E8F1E621E941E671E86
:105AB000991E6C1E9E1EA31EA81E471F471F7D1FFA
:105AC0007D1F06202220A41FA41F2620B520C6204B
:025AD000C620EE
:105AD2000021007F22000300FF00FFFF0000010001
